:020000040800F2
:1000000000000824893001081D3D01082B3D01082E
:10001000313D0108373D01083D3D01080000000069
:10002000000000000000000000000000433D010847
:10003000513D0108000000005F3D01086D3D0108D1
:10004000D9300108D9300108D9300108D930010868
:10005000D9300108D9300108D9300108D930010858
:10006000793D0108893D0108993D0108D930010811
:10007000D9300108D9300108D9300108D930010838
:10008000D9300108D9300108D9300108D930010828
:10009000D9300108D9300108D9300108A93D01083B
:1000A000D9300108D9300108D9300108D930010808
:1000B000D9300108D9300108D9300108D9300108F8
:1000C000D9300108D9300108D9300108D9300108E8
:1000D000D9300108D9300108D9300108D9300108D8
:1000E000C13D0108D930010800000000D9300108E5
:1000F000D9300108D9300108D9300108D9300108B8
:10010000D93001080B3E0108D9300108D930010867
:10011000D9300108D9300108D9300108D930010897
:10012000D9300108DF3D0108D9300108173E010828
:10013000CF3D0108D9300108D9300108D930010874
:10014000D9300108D930010800000000000000008B
:10015000D9300108D9300108D9300108D930010857
:10016000D9300108D9300108D9300108D930010847
:10017000D9300108D9300108113E01080000000003
:10018000D9300108D9300108D9300108D930010827
:10019000D9300108D9300108D9300108D930010817
:1001A000D9300108D9300108D9300108D930010807
:1001B000D9300108D9300108D9300108D9300108F7
:1001C000D9300108D9300108D9300108D9300108E7
:1001D000D9300108D9300108D9300108D9300108D7
:1001E000D9300108D9300108D9300108D9300108C7
:1001F000D9300108D9300108D9300108D9300108B7
:10020000D9300108D9300108D9300108D9300108A6
:10021000D9300108D9300108D9300108D930010896
:10022000D9300108D9300108FD3D0108D930010855
:10023000D9300108D9300108D9300108D930010876
:10024000D9300108D9300108ED3D0108D930010845
:10025000D9300108D9300108D9300108D930010856
:10026000D9300108D9300108D9300108D930010846
:10027000D9300108D9300108D9300108D930010836
:10028000D9300108D9300108D93001080000000038
:08029000D9300108D930010842
:1002980010B5054C237833B9044B13B10448AFF3B8
:1002A80000800123237010BDA00500240000000079
:1002B800545E010808B5034B1BB103490348AFF36B
:1002C800008008BD00000000A4050024545E010859
:1002D800F0B5054681B0402105F10C0015F06CFB26
:1002E800DFF81C0CDFF81C1C026800244CF24026C6
:1002F8005208520002600B684FF6F0700340B34298
:100308001FBF096808404CF27022904235D1DFF8CF
:10031800F83B186888BBDFF8F40B0168C1F30B01E0
:10032800B1F58A6F1FBF0068C0F30B0040F283412C
:10033800884222D1DFF8D81B01228A608868002809
:10034800FCD1DFF8D02BDFF8D03B0A60096899426E
:1003580022D0686468616A89E8612889AC612C6187
:10036800EC606C622C62AA86E8862C6428880128D6
:1003780014D000285DD00224A3E0DFF8A01B0122DE
:100388008A6088680028FCD1DFF8882BDFF8883B72
:100398000A6009689942DCD16B64DBE7DFF8801BEF
:1003A8000878002840F08D800023DFF8780BDFF80C
:1003B800782B0E1D56F8236002EA065700EA060C51
:1003C800C6F309566744F7190E1D46F823705B1CDF
:1003D8000F1D57F8236002EA065C00EA060EC6F312
:1003E8000956F444B4440E1D46F823C05B1C57F864
:1003F800236002EA065C00EA060EC6F30956F444D6
:10040800B4440E1D46F823C05B1C57F8236002EA6B
:10041800065C00EA060EC6F30956F444B4440E1D01
:1004280046F823C05B1CB3F5807FC2DB012008704F
:1004380047E0DFF8EC0A0178012942D10023DFF810
:10044800E41ADFF8E42A061D56F8236002EA065784
:1004580001EA060CC6F309566744F719061D46F863
:1004680023705B1C071D57F8236002EA065C01EA4B
:10047800060EC6F30956F444B444061D46F823C0D4
:100488005B1C57F8236002EA065C01EA060EC6F315
:100498000956F444B444061D46F823C05B1C57F8BB
:1004A800236002EA065C01EA060EC6F30956F44424
:1004B800B444061D46F823C05B1CB3F5807FC2DB3D
:1004C8000470688830B1012811BF641C286C40F0A2
:1004D80020002864A98E012904BFE88E012803D1D1
:1004E800296C41F040012964686828B1296C686862
:1004F800E86241F0100129640021298714B9286CA9
:1005080080302864204601B0F0BD0000F0B581B00D
:1005180005460E4600242DED028B686CDFF8F819AD
:10052800884218BF042040F0E380296C21F48071D0
:1005380029643288052A18BF062A1DD0072A18BF41
:10054800012A19D0022A1CBF032A042A14D008241D
:10055800B5F93800B6F90410884204BF2B8E9342CF
:1005680000F0BE80B6F9047017F10C0F5DDA6FF079
:100578000B004034B080B1E02B8E9342E8D00909DB
:1005880042EA0111296401F00F0001F0700170299D
:1005980025D1401E0628DBD8DFE800F01115191D0B
:1005A80005090D00D4E7DFF8080CA864DAE7DFF8DE
:1005B800041CA964D6E7DFF8000CA864D2E7DFF8CA
:1005C800FC1BA964CEE7DFF8F80BA864CAE7DFF8DC
:1005D800F41BA964C6E7DFF8F00BA864C2E7401E65
:1005E8000628B5D8DFE800F01115191D05090D001A
:1005F800AEE70FF25911A964B4E70FF26920A864B5
:10060800B0E70FF2D131A964ACE70FF23550A86416
:10061800A8E70FF2ED61A964A4E70FF61110A8642A
:10062800A0E70FF6B131A9649CE7342F03DB332030
:100638004034B08052E095F840009FED868ADFEDA7
:10064800858A00F00F00401E062827D8DFE800F052
:1006580013181D2204090E00B3EE008ADFED7E8A0E
:100668001CE0B2EE0C8ADFED7D8A17E0B2EE0A8A52
:10067800F2EE008A12E0B2EE068ADFED798A0DE02A
:10068800B2EE048AF7EE008A08E0B2EE028ADFEDE5
:10069800CF8A03E0B1EE0C8AF4EE008A3846F3EE16
:1006A800040A00EE100AB8EEC00AC0EE200AB2EE44
:1006B800040A15F0C9F960EE288A9FEDC51A71EE93
:1006C800480AB0EE000A15F0BFF928EE800A15F0C6
:1006D8001FFBBCEEC00A2F8785ED0F0A30882886DD
:1006E800718869861CB9286C40F48070286420469B
:1006F800BDEC028B01B0F0BD426CDFF81C389A42A9
:1007080001D004207047428E4A80038E0B80008FF0
:1007180088800020704710B481B013465A6CDFF807
:10072800F847A24218BF042006D11A6CD40506D493
:100738002020130658BF302001B010BC704703F1C9
:100748000C029B6C01B010BC184700002DE9F04F5B
:1007580086B013468246D3F810E0D3F8148098691F
:100768000C460490DF69D3F808C0D96800250391C6
:100778005A6BD3F83090DFF8540ADFF8541A02F0B5
:10078800100602F0200202960192DE8CDFF8902714
:10079800002E4FD005945C8D012C05D1019C5AF890
:1007A800026B54B176BA08E09AF800B0E4B21AF8CD
:1007B80004600AEB440A0BEB0626141D06F0FF0B37
:1007C80054F82B40C6F30726E719C7F30904BB46BC
:1007D800171D57F8267007EB9B27C7F30906BF0AB2
:1007E80046EA0446029C26FB01CB26FB00FCABF53F
:1007F800006B4CB11E6ADE44AEEB080ED8465EFBB9
:1008080016FE4FEA4E0EF346059E4FEA0B4B009636
:100818005BFB19F41E8D1FFA85FB6D1C24F38F04F6
:1008280006FB0BF6DDF800B02BF81640DE8CACB2F8
:10083800B442B0D3C3F808C00398D860DF61C3F8E6
:1008480010E0C3F8148004989861002006B0BDE851
:10085800F08F0000000000000000804226B497419D
:1008680026B417402DE9F04F84B007468846106932
:10087800516993690293566BD369D2F80890D2F8FC
:100888000CC0D2F830E006F0100B06F02006CDF8C8
:1008980004B000250096D68CDFF884A6002E00F060
:1008A8008780CDF80C80A846558D012D22D1009D5A
:1008B8003C78BDB108EBD87BFE784FEA6B0BB8EB00
:1008C8004B0507D124027D7804EB0644BF1C64194C
:1008D8001EE000BF97F802B0360206EB0B463F1D3C
:1008E800A41915E07E78BD78FF1C360206EB054694
:1008F800A4190DE0EDB297F800B07E5D17F8154029
:1009080005EB4505360206EB04462F4406EB0B04BF
:100918000AF1040504F0FF06240A55F826500AF1E6
:10092800040B04F0FF065BF8266005EB9325240A08
:1009380006EB9526C5F30903C6F3090545EA034501
:100948005BF82430DFF888484FF0010B03EB96235F
:1009580025FB04C4DFF8F8CDC3F3090625FB0C9C7E
:1009680006EB460906EB4606A4F5D8540CEB490CF1
:1009780025FB0BF9019DB1443DB1166A2018401AB8
:10098800214650FB16F040000446168DA40354FB84
:100998001EF5039C06FB08F608F101081FFA88F803
:1009A80025F38F0524F81650D58CA845FFF67CAFA3
:1009B800C2F80890C2F80CC0D36110615161029866
:1009C8009061002004B0BDE8F08F00006F12033F73
:1009D800000000422DE9F04F84B082468846106935
:1009E800516993690293576BD3699468D2F80CC024
:1009F800D2F830E007F0100B07F02007CDF804B06C
:100A080000260097D78CDFF81895002F00F08B8010
:100A1800CDF80C80F046558D012D06D1009D5AF871
:100A280004EBBDB19EFA9EFE14E0EDB21AF815E093
:100A380005EB45071AF807B01AF805704FEA0E4E8D
:100A48000EEB0B6E9AF800B00AEB850A0EEB072E38
:100A58000EEB0B0E09F104050EF0FF074FEA1E2EF0
:100A680055F8275009F1040B05EB93250EF0FF0309
:100A78005BF823304FEA1E2E0EF0FF0B4FEA1E2EB6
:100A880003EB9523C5F30907C3F3090545EA0745B1
:100A980009F1040757F82BB00BEB932B09F104036A
:100AA80053F82E3003EB9B23CBF309074FF4803B1D
:100AB800C3F3090E4EEA074EDFF8987C25FB07CCF6
:100AC8002EFB0BC7DFF890CCDFF890BC25FB0C445D
:100AD800DFF890CDA7F580472EFB0C4C012425FBB1
:100AE80004F4019D2EFB0B4445B1D2F820E03818E0
:100AF800401A394650FB1EF040000746B2F828B0AD
:100B08007F0357FB18F5B7B2DDF80CE0761C0BFB3A
:100B180007F725F38F052EF81750B2F826E0B5B27F
:100B28007545FFF478AF9460C2F80CC0D3611061CA
:100B3800516102989061002004B0BDE8F08F000078
:100B48002DE9F04F85B007468846106951699369C9
:100B58000393566BD369D2F80890D2F80CC0156B82
:100B680006F0100B06F02006CDF804B04FF0000E8A
:100B78000096D68CDFF8A8A3002E00F0B480CDF83C
:100B88001080F0460295558D012D0AD13C683D1D17
:100B9800D5F800E0AF1C009D05B364BA9EFA9EFE2E
:100BA8001CE0EDB217F8156005EB450E17F80E407E
:100BB80017F805E005EB850B360406EB04663C7870
:100BC80006EB0E2617F825E016EB040417F80B6061
:100BD8000EEB062E05EB450607EB46070AF1040B5C
:100BE80004F0FF05240A5BF8255005EB932504F073
:100BF800FF035BF82330240A04F0FF0B240A03EBFD
:100C08009523C5F30906C3F3090545EA06450AF124
:100C1800040656F82BB056F824600BEB932B06EB22
:100C28009B26CBF309030AF1040BC6F3090444EA33
:100C380003440EF0FF035BF82330CEF3072E5BF876
:100C48002EE0DFF810BB03EB9623C3F309060EEB87
:100C58009323C3F3090E4EEA064EDFF80C6C25FB0E
:100C680006CC4FF4803624FB0BCC4FF01B1B2EFB1D
:100C780006C6DFF8F8CB25FB0C99DFF8F4CB24FB8C
:100C88000B99A6F558462EFB0C9C4FF0010925FB45
:100C980009F9DFF8C85A24FB0599DFF8304D019DA2
:100CA8002EFB049945B1D2F820E03018401A31469D
:100CB80050FB1EF040000646029DF6021FFA88F41B
:100CC800DDF810E008F1010856FB15F5168D7443A0
:100CD80025F38F052EF81450B2F826E01FFA88F590
:100CE8007545FFF450AFC2F80890C2F80CC0D36144
:100CF8001061516103989061002005B0BDE8F08F44
:100D08002DE9F04F84B013468646D3F81080D3F807
:100D1800149098690290DE8CDC69D3F808A0D3F8A7
:100D28000CB0186B4FF0000C7D4A002E00F0D880F4
:100D380003910190598D01290AD193F83460FEE896
:100D480002010D46B7062AD540BA6DBA27E000BFA2
:100D58001EF8116001EB41001EF800501EF801005A
:100D68009EF80070360406EB0566C1EBC10506EB7C
:100D78000026F01901EB410601EB81071EF805502A
:100D880076001EF80660360406EB05661EF8075066
:100D980006EB05261EF821500EEBC10E7519111D24
:100DA80000F0FF0651F82670000A3C1900F0FF0712
:100DB80051F82710C4F3090601EB9424010A01F045
:100DC800FF07090AC4F3090040EA0640161D56F851
:100DD800277007EB9427141D54F8214004EB97243F
:100DE800C7F30906171DC4F3090141EA064105F0D6
:100DF800FF0657F8266006EB94262C0A0096C6F3E1
:100E0800090504F0FF0657F82660009F240A06EB40
:100E180097260096C6F3090704F0FF0647EA05453A
:100E2800171D57F82670009E240A07EB962700978F
:100E3800C7F30906171D57F82440009F04EB9724B1
:100E4800C4F30907A40A47EA0646DFF8847B20FBB7
:100E580007BBDFF8147A21FB07BBDFF8F87825FB1E
:100E680007BB4FF4803726FB07B7DFF868BB20FBCA
:100E78000BAA26FB1BAADFF860BBA7F5003721FBEE
:100E88000BAA25FB1BAB4FF0010A20FB0AFADFF87F
:100E9800CC0821FB00A0DFF8341B25FB0100DFF89C
:100EA800DC5C26FB050A186A40B1B844A8EB0908BF
:100EB80058FB10F8B9464FEA4808474601981D8D77
:100EC800BF02039957FB10F005FB0CF50CF1010C60
:100ED80020F38F0021F81500D88C8445FFF62AAF3F
:100EE800C3F808A0C3F80CB0DC61C3F81080C3F8DD
:100EF800149002989861002004B0BDE8F08F0000BB
:100F0800002000E000ED00E0002004E00010005C9C
:100F1800004C0258C2A507F4CDB5E8B50030024030
:100F28003401002400FC0F000000F03F2DE9F04FD1
:100F38000C4684B011464FF0000B0B69D1F81480B1
:100F48008A690292B1F826C0CA69D1F80890D1F826
:100F58000CA0D1F830E0BCF1000F00F01A81039426
:100F680084460091CDF804E0DDF800E0BEF82A40A0
:100F7800012C12D1009CDCF800E00CF1040000F117
:100F8800040C01685CF8020B94F83450AE0637D5AF
:100F98009EFA9EFE49BA40BA32E0E4B21CF814E068
:100FA80004EB44001CF800101CF80400C4EBC40552
:100FB8004FEA0E4E0EEB016E9CF800101CF805600F
:100FC8000EEB002E04EB440040001CF800708E4429
:100FD80004EB84011CF824003F0407EB06671CF8A7
:100FE800015004EBC40607EB05271CF834503918E8
:100FF8001CF8067005EB072004EB84050CEB450C88
:10100800DFF87C6B0EF0FF0756F827404FEA1E2EDC
:101018000EF0FF07A21856F82740C2F3090504EBA3
:1010280092244FEA1E22C4F3090E4EEA054E3546B5
:1010380002F0FF06120A55F8267055F82250DFF81C
:10104800402B07EB942705EB9725C7F30906DFF834
:10105800307BC5F3090444EA064401F0FF0652F860
:101068002620090A01F0FF0602EB952257F82660B0
:10107800C2F3090506EB92260A0AC6F3090141EAFA
:10108800054102F0FF0557F82550120A05EB962591
:10109800DFF8EC6A56F82260DFF8E42A06EB9526BA
:1010A800C5F30907C6F3090545EA074500F0FF0738
:1010B800C0F3072052F8277052F8202007EB962734
:1010C80002EB9722C7F30906DFF80479C2F3090097
:1010D800920A40EA0640DFF8AC6A2EFB06AADFF85F
:1010E800886724FB07AA4FF4803721FB06AADFF89C
:1010F800646625FB06AA20FB07A6DFF88CAA4FF03A
:101108004B172EFB0A99DFF8A4ACA6F57A3624FB18
:101118000A99DFF89CAC21FB079925FB0A99DFF8AF
:1011280094AC20FB0A9A4FF001092EFB09F9DFF86D
:101138002CE624FB0E99DFF89448DFF87CEC21FBC1
:101148000491DFF8389A25FB091120FB0E19009845
:10115800006A38B1F318A3EB080353FB10F3B04649
:101168005B001E46DDF800E0019876020399BEF8A0
:10117800284056FB10F004FB0BF40BF1010B20F395
:101188008F0021F814000098C18C8B45FFF6ECAE57
:101198000146C1F80890C1F80CA0CA610B61C1F8FA
:1011A800148002988861002004B0BDE8F08F000028
:1011B8008115000839160008691700087D1800080D
:1011C800E5190008951B0008D51D0008030001005B
:1011D800010003002DE9F04F89B08146D2F810A034
:1011E800D2F814B090694FF000080790D68CD569F2
:1011F800D2F808C0D2F80CE0106BDFF8C04B002E14
:1012080000F0AA810891019206900198468D012E5E
:101218000DD1019EF9E80201F9E8022396F834702D
:10122800BE065BD540BA49BA52BA5BBA56E0F6B2C6
:1012380099F8003019F8162006EB460019F8001046
:1012480019F80600C6EBC607120402EB016206EBAA
:10125800460102EB0022490019F80110D01806EBEC
:10126800860319F80720090401EB026119F80370D5
:1012780019F8262001EB072106EB860789180B22AF
:1012880012FB06F27F0019F8073019F8367019F8C2
:1012980002201B0403EB026306EBC60219F80220C6
:1012A80003EB0223DA19C6EBC607C6EB06137F0069
:1012B80019F8077019F803303F0407EB03670D238B
:1012C80013FB06F319F8033007EB032706EB460375
:1012D8009B0019F8033009EB0619FB18261D00F0CE
:1012E800FF0756F82770000A7E19C6F3090500960D
:1012F800271D00F0FF06000A57F82660009F06EB3E
:101308009726C6F3090747EA0547251D059700F004
:10131800FF0755F82750000A05EB9625261D56F8B5
:10132800206001F0FF00090A06EB9526C5F30907BE
:10133800C6F3090545EA0745271D049557F8200017
:1013480000EB962001F0FF0657F82660090A06EB25
:101358009026C0F3090501F0FF00090AC6F3090742
:1013680047EA0547251D039755F8200000EB96200E
:10137800261D56F8211002F0FF06120A01EB9021F3
:10138800C0F30905C1F3090747EA0547251D029778
:1013980055F8260002F0FF06120A00EB9120211DE5
:1013A80051F8261002F0FF06120A01EB9021C0F353
:1013B8000905C1F3090747EA0547251D009755F8B0
:1013C8002600271D00EB9120211D51F82210221D17
:1013D80001EB9021C0F30905C1F3090040EA05407B
:1013E80003F0FF051B0A52F8256006EB912603F06F
:1013F800FF0157F821201B0A02EB9622C6F30905C4
:1014080003F0FF061B0AC2F3090141EA0541251D45
:1014180055F8267007EB9227221D52F82350DFF863
:10142800A03905EB9725C7F30906049FC5F3090200
:10143800AD0A42EA0642059E26FB03E3DFF884E98B
:10144800DFF8846927FB0E33DDF80CE0DFF834772A
:101458002EFB0633029EDFF878E526FB0733009F54
:10146800DFF8046427FB0E33DFF8E8E24FF4803737
:1014780020FB0633DFF82C6C21FB0E33DDF814E07B
:1014880022FB0733DFF8207C2EFB06CC049EDFF816
:101498001CECA3F5801326FB07CC039FDFF8106C28
:1014A80027FB0ECCDDF808E0DFF8087C2EFB06CC25
:1014B800009EDFF804EC26FB07CCDFF8007CDFF8A1
:1014C800006C20FB0ECC21FB07CC059F22FB06CE2F
:1014D8004FF0010CA14E27FB0CFC049F27FB06CC08
:1014E800039FDFF8E86427FB06CC029FDFF88C66D1
:1014F80027FB06CC009FDFF8C06827FB06CCDFF887
:10150800C46B20FB06C0DFF8C0CB21FB0C00DFF862
:10151800BC1B22FB010C0198006A40B19A44AAEB5B
:101528000B0A5AFB10FA9B464FEA4A0A5346019A9D
:101538000698DB01089953FB10F0138D03FB08F3A1
:1015480008F1010820F38F0021F813000198C18CDD
:101558008845FFF65AAE0246C2F808C0C2F80CE049
:10156800D561C2F810A0C2F814B0079890610020A5
:1015780009B0BDE8F08F00002DE9F04F83B01646A2
:10158800814634697569B06988460290F169B36823
:10159800F0680190F08CD6F830C0D6F820E0012829
:1015A80039DBDFF82C7B4A460097DFF81078E146F4
:1015B80052F802CB9CFA9CFB07F1040C0BF0FF0AD3
:1015C800CBF3072B5CF82AA00AEB010C391D51F864
:1015D8002B10CCF3090A01EB9C21C1F3090C890AF1
:1015E8004CEA0A4CDFF8ECAA2CFB0A3A009BAAF555
:1015F800006A5444641B554654FB1EF42CFB03F349
:1016080064004FEA044C5CFB19FC401E2CF38F0C61
:1016180028F802CBCCD1B3600198F060F161346155
:1016280075610298B061002003B0BDE8F08F00003A
:101638002DE9F44F82B086468C46029D10695169A7
:101648009469DDF808800194EE69AA68EB682C6B50
:10165800ED8CD8F820804FF0000A002D40F3678009
:101668000AEBDA799EF803709EF800B04FEA690930
:10167800BAEB49090AD14FEA0B2B9EF801900BEB04
:10168800074B0EF1020E0BEB090707E09EF80290DC
:101698003F0207EB09470EF1040E5F44DFF8E094C0
:1016A80007F0FF0B59F82BB00AF1010A0BEB962B48
:1016B8003E0ACDF800B006F0FF07360ACBF3090959
:1016C800DFF8BCB45BF82770DDF800B007EB9B27A8
:1016D800C7F3090B4BEA0949DFF8A4B45BF82660A5
:1016E800DFF8F0B906EB972629FB0B3B184BABF557
:1016F800D85B5844C6F30907401A29FB032307EBB4
:10170800470250FB18F007EB470703EB420301229F
:1017180029FB02F2594640004FEA803959FB14F977
:10172800BA18AA4529F38F092CF8029B98DB029C6A
:10173800A260029AD360029BDE61029A106102984D
:101748004161029A01990020916103B0BDE8F08FD0
:1017580007000600030006000C000A00060003004C
:101768002DE9F44F83B084468946039D1069516979
:1017780094690294EA69AB68D5F80CE02C6BEE8C9E
:101788002D6A012E5CDB0194DFF84C89DFF82C769A
:10179800009534465CF8045B3E1D07F1040B6DBAF6
:1017A80005F0FF0A2D0A56F82A6006EB922605F086
:1017B800FF025BF822202D0A05F0FF0B2D0A02EB31
:1017C8009622C6F3090AC2F3090646EA0A4607F151
:1017D800040A5AF82BB00BEB922B3A1D52F825202D
:1017E80026FB08EE02EB9B22CBF3090ADFF874B064
:1017F800C2F3090545EA0A454FF4803A25FB0AEA8F
:10180800DFF8D8E826FB0E3325FB0B3E0123AAF5AB
:10181800804A5044401A514626FB03F3DFF8C0685B
:1018280025FB0633009D019E50FB15F04000450343
:1018380055FB16F5641E25F38F0529F8025BA9D11F
:10184800039CA360039BC3F80CE0039CE261039A2A
:10185800106103984161039A02990020916104B0D4
:10186800BDE8F08F0A000C000A000F0019001500EF
:10187800150019002DE9F44F83B084468846039D6E
:101888001069516994690294EA69AB68D5F80CE06B
:101898002C6BEE8C2D6A012EC0F28580DFF81C952A
:1018A800019400950CF10404DCF80050276804F159
:1018B800020C6DBA05F0FF0A2D0A7CBA09F104077B
:1018C80057F82AB005F0FF0A0BEB922B09F1040236
:1018D80052F82AA02A0A0AEB9B2ACBF3090709F136
:1018E800040BCAF3090545EA074502F0FF075BF850
:1018F8002770120A07EB9A2709F1040A5AF822A05E
:1019080004F0FF02C4F307240AEB972AC7F3090B74
:10191800CAF3090747EA0B4709F1040B5BF82220D1
:101928005BF82440DFF8B0B702EB9A22C2F3090A49
:1019380004EB9222C2F3090444EA0A44DFF8A4A79C
:1019480025FB0AEE4FF4803A27FB0BEE4FF01B1BEA
:1019580024FB0AEADFF890E725FB0E33DFF88CE773
:1019680027FB0B33AAF5584A5044401A514624FB2A
:101978000E3E012325FB03F3DFF8645727FB0533ED
:10198800DFF86C77019D24FB0733009C50FB14F0B3
:101998004000C40254FB15F4761E24F38F0428F883
:1019A800024B7FF47FAF039CA360039BC3F80CE05A
:1019B800039CE261039A106103984161039A0299BA
:1019C8000020916104B0BDE8F08F00000F000A000C
:1019D80015001C002A00240030002E002DE9F44FC9
:1019E80084B08E461669D2F814B09169049A0446F8
:1019F8000291D1691046D2F80C808568026B0346C3
:101A0800D88C1B6A0128C0F2A6800394DFF8ACC307
:101A180001920093039F0CF1040908370397083FCC
:101A2800D7E9002354BA5ABA0CF1040304F0FF0AA8
:101A3800240A59F82A7004F0FF09240A53F8299057
:101A48007918C1F3090A09EB91290CF104010CF189
:101A58000407C9F3090343EA0A4304F0FF0A240A06
:101A680051F82AA057F824100AEB992A01EB9A2179
:101A7800CAF3090902F0FF0A120AC1F3090444EA89
:101A880009440CF1040959F82A9009EB912902F04C
:101A9800FF0157F82110120A02F0FF07120A01EBA2
:101AA8009921C9F3090AC1F3090949EA0A490CF15C
:101AB800040A5AF8277007EB91270CF1040151F832
:101AC800221001EB9721C7F3090ADFF81876C1F352
:101AD8000902890A42EA0A42DFF818A623FB0A88A3
:101AE800DFF8F4A524FB0788DFF80C7629FB0A88C1
:101AF8004FF4803A22FB0A8ADFF8008623FB085855
:101B0800DFF8F85522FB15880125AAF5003A564456
:101B1800A6EB0B06D34624FB078829FB1788DFF8BA
:101B2800C07523FB05F3154D24FB0733DFF8C045CB
:101B380029FB043322FB0535009A019B56FB12F65C
:101B48007600B20252FB13F2401E22F38F022EF8E7
:101B5800022B7FF45FAF04988560049AC2F80C806A
:101B68000498C16104990E610498C0F814B0049AED
:101B780002990020916105B0BDE8F08F1C001500A6
:101B88003801002424002D003F0037002DE9F44FD0
:101B9800834685B01046DDF814A0059F02694369A5
:101BA800846904945046DAF81C508468B7F826E033
:101BB800DAF80CA0006B3F6ABEF1010FC0F2E480B6
:101BC8008C4603907D490297CDF804C04FEA0E0079
:101BD800DBF80070DBF804C0DBF808800BF10A0BB7
:101BE80097FA97FE9CFA9CF901F1040C98FA98F779
:101BF8000EF0FF084FEA1E2E5CF8286001F1040879
:101C080075190EF0FF0658F82680C5F3090C4FEA3F
:101C18001E2E0EF0FF0608EB95284FEA1E2EC8F37D
:101C2800090545EA0C4C0D1D55F8266006EB98266B
:101C380001F1040858F82E8008EB9628C6F3090528
:101C48000E1DC8F3090E4EEA054E09F0FF0556F8B9
:101C580025504FEA192905EB98250095C5F3090881
:101C680009F0FF0556F82550009E4FEA192905EBA3
:101C780096250095C5F3090609F0FF0546EA0848C8
:101C88000E1D56F82560009D4FEA192906EB95268A
:101C98000096C6F309050E1D56F82960DDF8009078
:101CA80006EB99260096C6F309090E1D49EA05496F
:101CB80007F0FF0556F82560009DC7F3072706EBD8
:101CC80095260096C6F309050E1D56F82760009F55
:101CD80006EB9726C6F3090747EA0547B50ADFF872
:101CE80020642CFB06AADFF80C642EFB06AADFF89A
:101CF800F46328FB06AADFF8E06329FB06AA4FF481
:101D0800803627FB06A6DFF8FCA32CFB0A44DFF885
:101D18009CA02EFB0A444FF04B1AA6F57A36B2184F
:101D2800D21A334628FB0A44DFF884A029FB0A4468
:101D3800DFF880A027FB0A4A01242CFB04FCE84CAE
:101D48002EFB04C4DFF8A8C3DFF86CE028FB0C44C2
:101D5800DFF8B483DDF80CC029FB084427FB0E44E8
:101D6800029FDDF804E052FB17F25200570257FBBE
:101D78001CF70EF1020E401ECDF804E027F38F0782
:101D88002EF8027D7FF424AF059884600599C1F888
:101D98000CA00598C56105990A6105984361059AE3
:101DA80004990020916106B0BDE8F08F4900450014
:101DB8004500490037003F002D002400340100246D
:101DC800690078004E005B00370042002DE9F44FAF
:101DD80088B00C46089BD2F810B0D2F814C09169AC
:101DE80081460791D969D3F808E0D3F80C801A6BBB
:101DF800D88C1B6A0128C0F23F81DFF810A3CDF808
:101E08000C90069205930494039C0AF10406083486
:101E18000394083C039DD4E9002308350395083D45
:101E2800D5E9004955BA5ABA63BA99FA99F405F04E
:101E3800FF072D0A56F8279005F0FF0756F8277078
:101E48002D0A4944C1F3090907EB912105F0FF0761
:101E58002D0AC1F3090646EA09490AF1040656F8AB
:101E680027600AF1040757F8255006EB912605EB81
:101E78009625C6F30901C5F3090646EA014602F0AC
:101E8800FF01120A029602F0FF0657F8211057F8D0
:101E98002660120A01EB952106EB9126C1F309058C
:101EA80002F0FF01120AC6F3090747EA05470AF1DB
:101EB8000405019755F8211001EB96210AF1040653
:101EC80056F8222003F0FF061B0A02EB9122C1F309
:101ED800090503F0FF011B0AC2F3090747EA054792
:101EE8000AF1040500970AF1040755F8266057F827
:101EF800211006EB922601EB9621C6F3090503F0A3
:101F0800FF061B0AC1F3090242EA05420AF1040569
:101F180055F8266006EB912657F8231001EB962119
:101F2800C6F3090504F0FF06240AC1F3090343EACE
:101F380005430AF1040555F8265005EB912504F0F0
:101F4800FF0157F82110240A04F0FF07240A01EBC7
:101F58009521C5F30906C1F3090545EA06450AF1C5
:101F6800040656F8277007EB91270AF1040151F887
:101F7800241001EB9721C7F30906654FC1F3090443
:101F8800890A44EA0644634E29FB0688029E26FB1A
:101F98000788019F604E27FB0688009F584E27FB45
:101FA8000688544E4C4F22FB06884E4E23FB06886B
:101FB8004FF4803625FB078824FB0686DFF8E4808B
:101FC800394F29FB08EEDDF80880A6F58016B344E2
:101FD800ABEB0C0BB44628FB07EE019FDFF8CC8077
:101FE80027FB08EE009FDFF8C88027FB08EEDFF824
:101FF800C480324F22FB08EEDFF8BC8023FB08EEDA
:10200800DFF8BC8025FB07EE354F24FB08E84FF0CE
:10201800010E29FB0EF9DDF808E02EFB0799019F58
:10202800DFF8CCE027FB0E99009FDFF8DCE027FB08
:102038000E99DFF8E8E022FB0E92DFF88890DFF8CF
:102048008CE023FB0922204B25FB0322069B24FB63
:102058000E2E059A049C5BFB12FB4FEA4B0B4FEAD2
:10206800CB1252FB13F2A41C401E049422F38F02DD
:1020780024F8022D7FF4C8AE0898C0F808E0089A42
:10208800C2F80C800898C1610899C1F810B0089886
:10209800C0F814C0089A07990020916109B0BDE8FA
:1020A800F08F000096008800AC00A200BA00B400CF
:1020B800C000BE00BE00C000B400BA00A200AC0060
:1020C80088009600420037005B004E0078006900E7
:1020D8000300010001000300030006000C000A00D1
:1020E800060003000A000F0019001500150019006A
:1020F8000F000A0015001C0030002E002A002400E2
:1021080024002D003F0037001C0015003401002476
:102118004E005B0069007800370042002D00240063
:1021280070B4840746D04C1E002941D0D5B203466E
:1021380002E0611EE4B30C4603F8015B9907F8D18D
:10214800032C2ED9D5B245EA05250F2C45EA0545BD
:1021580019D9264603F11001103E0F2E41F8105CE4
:1021680041F80C5C41F8085C41F8045C01F110018D
:10217800F2D8A4F1100121F00F0104F00F0410317E
:10218800032C0B440DD91E4621460439032946F871
:10219800045BFAD8211F21F0030104310B4404F039
:1021A80003042CB1D2B21C4403F8012BA342FBD187
:1021B80070BC70470C460346C2E780B584B000AFD8
:1021C800786039604FF0FF33FB603B681B68194645
:1021D800786800F031F80346002B28D1012000F080
:1021E800E1F83B681B681946786800F049F803462F
:1021F800002B1CD13B6819683B685B681A467868F5
:1022080000F096F80346002B11D13968786800F081
:102218005BF80346002B0AD13B689B68194678682F
:1022280000F0ACF80346002B01D10023FB60FB68EB
:1022380018461037BD4680BD80B582B000AF7860C3
:1022480039600E4B01221A600C4A3B6853600B4BF5
:1022580001229A60094B0022DA604FF6FF720749A3
:10226800786810F0ADFD0346002B02D04FF0FF3325
:1022780000E0002318460837BD4680BDBC05002491
:1022880080B582B000AF786039600E4B02221A60C8
:102298000C4A3B6853600B4B01229A60094B0022A1
:1022A800DA604FF6FF720749786810F089FD034637
:1022B800002B02D04FF0FF3300E000231846083708
:1022C800BD4680BDBC05002480B584B000AF7860F1
:1022D80039603B68DA683B681B691A433B685B698D
:1022E8001A433B689B691A433B68DB691343FB60ED
:1022F8000E4B04221A603B681B680C4A53600B4B58
:1023080001229A60094AFB68D3604FF6FF720749B9
:10231800786810F055FD0346002B02D04FF0FF33CC
:1023280000E0002318461037BD4680BDBC050024D8
:1023380080B584B000AFF860B9607A600E4A7B68F7
:1023480013600D4ABB6853600B4B08229A600A4B16
:102358000022DA604FF6FF720749F86810F030FD86
:102368000346002B02D04FF0FF3300E0002318464D
:102378001037BD4680BD00BFBC05002480B582B0C3
:1023880000AF786039603968786810F04EFD034610
:10239800002B02D04FF0FF3300E000231846083727
:1023A800BD4680BD80B584B000AF786006F070FD92
:1023B800F86000BF06F06CFD0246FB68D31A7A6825
:1023C8009A42F7D8002318461037BD4680BD000052
:1023D80080B485B000AF786039600023FB607B680B
:1023E800002B03D14FF0FF33FB6014E03B685A68C1
:1023F8007B685A603B689A687B689A603B68DA68D1
:102408007B68DA607B68074A5A617B68064A1A610A
:102418007B687A689A61FB6818461437BD465DF890
:10242800047B704793330008C533000880B586B035
:1024380000AFF860B9607A60FB6803F11000002310
:10244800BF4A002101F004F87861FB6803F110002D
:102458000323BC4AFF2100F0FBFF02467B691344BB
:102468007B61FB6803F110000023B74A002100F0EC
:10247800EFFF02467B6913447B61FB6803F11000A0
:102488000223B24AFF2100F0E3FF02467B691344AE
:102498007B61FB6803F110000023AB4A002100F0C8
:1024A800D7FF02467B6913447B61FB6803F1100088
:1024B8000023A74AC42100F0CBFF02467B691344DE
:1024C8007B610A21F86800F092FFFB6803F11000B5
:1024D8000023A04A002100F0BBFF02467B69134499
:1024E8007B61FB6803F1100000239B4AC42100F0C4
:1024F800AFFF02467B6913447B610A21F86800F04C
:1025080076FFFB6803F110000023944A002100F0D5
:102518009FFF02467B6913447B61FB6803F110004F
:1025280000238F4AC52100F093FF02467B691344BC
:102538007B61FB6803F1100000238A4A002100F048
:1025480087FF02467B6913447B61FB6803F1100037
:102558000023854AC52100F07BFF02467B691344AE
:102568007B61FB6803F110000023804A002100F022
:102578006FFF02467B6913447B61FB6803F110001F
:1025880000237B4AC02100F063FF02467B691344A5
:102598007B61FB6803F110000023694A002100F009
:1025A80057FF02467B6913447B61FB6803F1100007
:1025B8000023704AD92100F04BFF02467B6913447F
:1025C8007B61FB6803F1100000236B4A002100F0D7
:1025D8003FFF02467B6913447B61FB6803F11000EF
:1025E8000023664AC12100F033FF02467B69134489
:1025F8007B61FB6803F110000023614A002100F0B1
:1026080027FF02467B6913447B61FB6803F11000D6
:1026180000235C4AC12100F01BFF02467B6913447A
:102628007B61FB6803F110000023574A002100F08A
:102638000FFF02467B6913447B61FB6803F11000BE
:102648000023524AC52100F003FF02467B69134468
:102658007B61FB6803F1100000234D4A002100F064
:10266800F7FE02467B6913447B61FB6803F11000A7
:1026780000233D4AC52100F0EBFE02467B69134466
:102688007B61FB6803F1100000232D4A002100F054
:10269800DFFE02467B6913447B61FB6803F110008F
:1026A80002233C4AD82100F0D3FE02467B6913443A
:1026B8007B61FB6803F110000023374A002100F01A
:1026C800C7FE02467B6913447B61FB6803F1100077
:1026D8000023324AC52100F0BBFE02467B69134441
:1026E8007B61FB6803F1100000232D4A002100F0F4
:1026F800AFFE02467B6913447B61FB6803F110005F
:102708000023284AC02100F0A3FE02467B69134437
:102718007B61FB6803F110000023234A002100F0CD
:1027280097FE02467B6913447B61FB6803F1100046
:1027380000231E4AC52100F08BFE024638E000BF88
:10274800795E0108AC5E01087A5E0108B05E010896
:102758007B5E01087C5E01087D5E01087E5E0108E3
:102768007F5E0108805E0108815E0108825E0108C3
:10277800835E0108845E0108855E0108865E0108A3
:10278800875E0108885E0108895E01088A5E010883
:102798008B5E0108B45E01088C5E01088D5E01083D
:1027A8008E5E01088F5E0108905E0108915E010847
:1027B8007B6913447B61FB6803F110000023BE4A68
:1027C800002100F045FE02467B6913447B61FB68EB
:1027D80003F110000023B94AC42100F039FE024673
:1027E8007B6913447B61FB6803F110000023B44A42
:1027F800002100F02DFE02467B6913447B61FB68D3
:1028080003F110000023AF4AC12100F021FE024667
:102818007B6913447B61FB6803F110000023AA4A1B
:10282800002100F015FE02467B6913447B61FB68BA
:1028380003F110000223A54AB32100F009FE024665
:102848007B6913447B61FB6803F110000023A04AF5
:10285800002100F0FDFD02467B6913447B61FB68A3
:1028680003F1100006239B4ACE2100F0F1FD024639
:102878007B6913447B61FB6803F110000023964ACF
:10288800002100F0E5FD02467B6913447B61FB688B
:1028980003F110000E23914ACE2100F0D9FD024623
:1028A8007B6913447B61FB6803F1100000238C4AA9
:1028B800002100F0CDFD02467B6913447B61FB6873
:1028C80003F110000E23874ACE2100F0C1FD024615
:1028D8007B6913447B61FB6803F110000023824A83
:1028E800002100F0B5FD02467B6913447B61FB685B
:1028F80003F110000A237D4ACF2100F0A9FD02460A
:102908007B6913447B61FB6803F110000023784A5C
:10291800002100F09DFD02467B6913447B61FB6842
:1029280003F110000023734ACF2100F091FD024605
:102938007B6913447B61FB6803F110000023644A40
:10294800002100F085FD02467B6913447B61FB682A
:1029580003F110000A23684ACB2100F079FD0246F2
:102968007B6913447B61FB6803F110000023634A11
:10297800002100F06DFD02467B6913447B61FB6812
:1029880003F110000F235E4ACB2100F061FD0246DF
:102998007B6913447B61FB6803F1100000234E4AF6
:1029A800002100F055FD02467B6913447B61FB68FA
:1029B80003F110000F23534ACB2100F049FD0246D2
:1029C8007B6913447B61FB6803F110000023444AD0
:1029D800002100F03DFD02467B6913447B61FB68E2
:1029E80003F110000A23484ACB2100F031FD0246CA
:1029F8007B6913447B61FB6803F1100000233A4AAA
:102A0800002100F025FD02467B6913447B61FB68C9
:102A180003F110000F233D4ACB2100F019FD0246B7
:102A28007B6913447B61FB6803F110000023304A83
:102A3800002100F00DFD02467B6913447B61FB68B1
:102A480003F110000F23324ACB2100F001FD0246AA
:102A58007B6913447B61FB6803F1100000232D4A56
:102A6800002100F0F5FC02467B6913447B61FB689A
:102A780003F110000A23284ACB2100F0E9FC0246A2
:102A88007B6913447B61FB6803F110000023234A30
:102A9800002100F0DDFC02467B6913447B61FB6882
:102AA80003F110000A231E4ACB2100F0D1FC024694
:102AB8007B6913447B6135E0855E0108925E0108FD
:102AC800875E0108935E0108945E0108B85E0108FC
:102AD8007A5E0108BC5E0108955E0108C45E0108C3
:102AE800965E0108D45E0108975E0108E45E01085D
:102AF800985E0108A55E0108F05E0108995E01086C
:102B0800FC5E01080C5F01081C5F0108285F0108D2
:102B1800385F01089A5E0108485F01089B5E01085A
:102B2800545F0108FB6803F110000023AE4A00213E
:102B380000F08EFC02467B6913447B61FB6803F15D
:102B480010000A23A94ACC2100F082FC02467B69C6
:102B580013447B61FB6803F110000023A44A0021A1
:102B680000F076FC02467B6913447B61FB6803F145
:102B780010000F239F4ACC2100F06AFC02467B69B3
:102B880013447B61FB6803F1100000239A4A00217B
:102B980000F05EFC02467B6913447B61FB6803F12D
:102BA80010000F23954ACC2100F052FC02467B69A5
:102BB80013447B61FB6803F110000023904A002155
:102BC80000F046FC02467B6913447B61FB6803F115
:102BD80010000A238B4ACC2100F03AFC02467B699C
:102BE80013447B61FB6803F110000023864A00212F
:102BF80000F02EFC02467B6913447B61FB6803F1FD
:102C080010000F23814ACC2100F022FC02467B6988
:102C180013447B61FB6803F1100000237C4A002108
:102C280000F016FC02467B6913447B61FB6803F1E4
:102C380010000F23774ACC2100F00AFC02467B697A
:102C480013447B61FB6803F110000023724A0021E2
:102C580000F0FEFB02467B6913447B61FB6803F1CD
:102C6800100000236D4AC52100F0F2FB02467B6983
:102C780013447B61FB6803F110000023684A0021BC
:102C880000F0E6FB02467B6913447B61FB6803F1B5
:102C980010000023634AF52100F0DAFB02467B6945
:102CA80013447B61FB6803F1100000235E4A002196
:102CB80000F0CEFB02467B6913447B61FB6803F19D
:102CC80010000023594AC62100F0C2FB02467B6966
:102CD80013447B61FB6803F110000023544A002170
:102CE80000F0B6FB02467B6913447B61FB6803F185
:102CF800100003234F4AFF2100F0AAFB02467B691C
:102D080013447B61FB6803F110000023484A00214B
:102D180000F09EFB02467B6913447B61FB6803F16C
:102D280010000023424A002100F092FB02467B6912
:102D380013447B61FB6803F1100010233E4AE12134
:102D480000F086FB02467B6913447B61FB6803F154
:102D580010000023364A002100F07AFB02467B6906
:102D680013447B61FB6803F110001023334AE2210E
:102D780000F06EFB02467B6913447B61FB6803F13C
:102D8800100000232E4A112100F062FB02467B69E5
:102D980013447B617821F86800F029FBBB68002B9D
:102DA80012D0BB68022B53D1FB6803F1100000233B
:102DB800244A3A2100F04CFB02467B6913447B61AC
:102DC800214B02225A6044E0FB6803F11000002303
:102DD8001E4A3A2100F03CFB02467B6913447B61A2
:102DE800194B00225A6034E07A5E0108605F0108DE
:102DF800995E01086C5F0108955E01087C5F010817
:102E0800965E01088C5F0108975E0108985F0108CB
:102E1800985E0108A85F0108855E0108A65E0108A2
:102E2800A75E0108A85E0108A95E0108AA5E01085C
:102E3800795E0108B85F0108BC5F0108CC5F010832
:102E48009C5E01089D5E0108CC0500249E5E010879
:102E580000BF7B68012B2AD16023FB74FB6803F158
:102E6800100007F113020023362100F0F1FA0246A0
:102E78007B6913447B61FB6803F110000423444A17
:102E88002A2100F0E5FA02467B6913447B61FB685E
:102E980003F1100004233F4A2B2100F0D9FA02461F
:102EA8007B6913447B613C4B01221A6002E03A4B78
:102EB80000221A60FB6803F110000023374A5121F1
:102EC80000F0C6FA02467B6913447B61344B93F8E1
:102ED8002730344AA2FB0323DB09DBB21A466423FA
:102EE80003FB02F32C4A9360FB6803F110000023F4
:102EF8002D4A532100F0ACFA02467B6913447B61EA
:102F0800FB6803F110000023284A552100F0A0FABD
:102F180002467B6913447B61FB6803F110000023C0
:102F2800234A5E2100F094FA02467B6913447B61D0
:102F3800FB6803F1100000231E4A292100F088FADB
:102F480002467B6913447B61FB6803F11000002390
:102F5800194A002100F07CFA02467B6913447B6120
:102F6800FB6803F110000023144A2C2100F070FACA
:102F780002467B6913447B617B69002B02D04FF0CA
:102F8800FF337B617B6918461837BD4680BD00BF9B
:102F9800705E0108745E0108CC0500249F5E01087C
:102FA800785E010881808080A05E0108A15E01082A
:102FB800A25E0108A35E0108795E0108A45E01080B
:102FC80080B483B000AF78604FF0FF3318460C37F9
:102FD800BD465DF8047B704780B584B000AF78606B
:102FE80039607B6803F1100000233A68DA2100F0A9
:102FF80018FA0346002B03D04FF0FF33FB6001E0C3
:103008000023FB60FB6818461037BD4680BD0000F2
:1030180080B584B000AF786039603A6813461B0207
:103028009B1A104AA2FB03235B09DBB2FB727B6885
:1030380003F1100007F10B020023512100F008FAF8
:103048000346002B03D04FF0FF33FB6004E0064A31
:103058003B6893600023FB60FB6818461037BD4649
:1030680080BD00BF1F85EB51CC05002480B483B020
:1030780000AF78603960054B9A683B681A60002396
:1030880018460C37BD465DF8047B7047CC05002414
:1030980080B584B000AF78600023FB727B6803F1D1
:1030A800100007F10B020023292100F0D1F9034693
:1030B800002B03D04FF0FF33FB6001E00023FB60DF
:1030C800FB6818461037BD4680BD80B584B000AF98
:1030D80078600023FB727B6803F1100007F10B0294
:1030E8000023282100F0B4F90346002B03D04FF049
:1030F800FF33FB6001E00023FB60FB6818461037D4
:10310800BD4680BD80B584B000AF7860396060236B
:10311800FB720023BB723B68012B06D03B68002B77
:1031280003D04FF0FF33FB604DE03B68012B25D106
:103138007B6803F1100007F10B020023362100F031
:1031480087F9F8607B6803F110000423234A2A21D9
:1031580000F07EF90246FB681344FB607B6803F1CC
:10316800100004231E4A2B2100F072F90246FB6866
:103178001344FB601B4B01221A6024E07B6803F1B7
:10318800100007F10A020023362100F061F9F86007
:103198007B6803F110000423104A2A2100F058F933
:1031A8000246FB681344FB607B6803F110000423AC
:1031B8000B4A2B2100F04CF90246FB681344FB60D4
:1031C800084B00221A60FB68002B02D04FF0FF3337
:1031D800FB60FB6818461037BD4680BD705E01086D
:1031E800745E0108CC05002480B483B000AF786019
:1031F8003960054B1A683B681A60002318460C377B
:10320800BD465DF8047B7047CC05002480B483B0CC
:1032180000AF786039600E4B1B68002B02D0012B81
:1032280005D009E03B684FF4F0721A6009E03B688A
:103238004FF448721A6004E03B684FF448721A6011
:1032480000BF002318460C37BD465DF8047B704765
:10325800CC05002480B483B000AF786039600E4B91
:103268001B68002B02D0012B05D009E03B684FF406
:1032780048721A6009E03B684FF4F0721A6004E083
:103288003B684FF4F0721A6000BF002318460C37F1
:10329800BD465DF8047B7047CC05002480B485B03A
:1032A80000AFF860B9607A604FF0FF331846143702
:1032B800BD465DF8047B704780B485B000AFF86008
:1032C800B9607A603B604FF0FF3318461437BD464B
:1032D8005DF8047B704780B485B000AFF860B960D2
:1032E8007A603B604FF0FF3318461437BD465DF8EF
:1032F800047B704780B485B000AFF860B9607A602D
:103308003B604FF0FF3318461437BD465DF8047B29
:10331800704780B485B000AFF860B9607A603B60F0
:103328004FF0FF3318461437BD465DF8047B7047ED
:1033380080B485B000AFF860B9607A603B604FF048
:10334800FF3318461437BD465DF8047B704780B4D8
:1033580085B000AFF860B9607A603B604FF0FF332A
:1033680018461437BD465DF8047B704780B485B0B5
:1033780000AFF860B9607A603B604FF0FF331846E1
:103388001437BD465DF8047B704790B587B000AF31
:10339800F8607A601A460B467B8113463B81FB68CE
:1033A8007B617B699C687B6918883B8979897A6825
:1033B800A047034618461C37BD4690BD90B587B058
:1033C80000AFF8607A601A460B467B8113463B8152
:1033D800FB687B617B695C687B6918883B897989B4
:1033E8007A68A047034618461C37BD4690BD80B58D
:1033F80084B000AF786039607B68DB689847034623
:10340800FB6000BF7B68DB68984703461A46FB6889
:10341800D31A3A689A42F5D8002318461037BD46A1
:1034280080BD90B585B000AFF8607A601A460B464B
:103438007B8113463B81FB685C68FB6898683B8925
:1034480079897A68A047034618461437BD4690BD67
:1034580090B585B000AFF8607A601A460B467B815C
:1034680013463B81FB681C68FB6898683B8979892F
:103478007A68A047034618461437BD4690BD000039
:1034880080B584B000AF7860396003237B817B68A6
:1034980003F1180007F10A0202234FF4817101F0C9
:1034A800B9FDF86000237B817B6803F1180007F100
:1034B8000A02022340F6170101F0ACFD0246FB6840
:1034C8001344FB607B6803F1180007F10A0202232A
:1034D8004FF4817101F09EFD0246FB681344FB60C6
:1034E8006C237B817B6803F1180007F10A02022331
:1034F800392101F08FFD0246FB681344FB603B68ED
:103508001B68002B0FD013237B817B6803F1180005
:1035180007F10A020223012101F07CFD0246FB6843
:103528001344FB600EE003237B817B6803F11800E2
:1035380007F10A020223012101F06CFD0246FB6833
:103548001344FB603221786801F0ECFC3B685B684F
:10355800032B00F2418101A252F823F07B380008C6
:10356800753500080F360008A936000840F60C43E8
:103578007B817B6803F1180007F10A020223052109
:1035880001F048FD0246FB681344FB6000237B8181
:103598007B6803F1180007F10A02022340F2016177
:1035A80001F038FD0246FB681344FB607B6803F1B9
:1035B800180007F10A02022340F2026101F02AFD15
:1035C8000246FB681344FB6002237B817B6803F19E
:1035D800180007F10A02022340F2046101F01AFD03
:1035E8000246FB681344FB607B6803F1180007F18F
:1035F8000A02022340F2056101F00CFD0246FB6855
:103608001344FB6036E140F203337B817B6803F1AE
:10361800180007F10A020223052101F0FBFC02460B
:10362800FB681344FB6001237B817B6803F118006E
:1036380007F10A02022340F2016101F0EBFC0246A5
:10364800FB681344FB607B6803F1180007F10A026A
:10365800022340F2026101F0DDFC0246FB681344DC
:10366800FB6000237B817B6803F1180007F10A02E5
:10367800022340F2046101F0CDFC0246FB681344CA
:10368800FB607B6803F1180007F10A02022340F28D
:10369800056101F0BFFC0246FB681344FB60E9E0EA
:1036A8003B681B68052B4AD140F60F737B817B680A
:1036B80003F1180007F10A020223052101F0AAFC10
:1036C8000246FB681344FB6003237B817B6803F19C
:1036D800180007F10A02022340F2016101F09AFC86
:1036E8000246FB681344FB607B6803F1180007F18E
:1036F8000A02022340F2026101F08CFC0246FB68D8
:103708001344FB607B6803F1180007F10A020223E7
:1037180040F2046101F07EFC0246FB681344FB6042
:103728007B6803F1180007F10A02022340F20561E1
:1037380001F070FC0246FB681344FB609AE040F617
:103748000F737B817B6803F1180007F10A020223DB
:10375800052101F05FFC0246FB681344FB6001236E
:103768007B817B6803F1180007F10A02022340F20B
:10377800016101F04FFC0246FB681344FB607B6863
:1037880003F1180007F10A02022340F2026101F076
:1037980041FC0246FB681344FB6002237B817B6883
:1037A80003F1180007F10A02022340F2046101F054
:1037B80031FC0246FB681344FB607B6803F1180088
:1037C80007F10A02022340F2056101F023FC0246D8
:1037D800FB681344FB604DE040F203337B817B6858
:1037E80003F1180007F10A020223052101F012FC77
:1037F8000246FB681344FB6001237B817B6803F16D
:10380800180007F10A02022340F2016101F002FCEC
:103818000246FB681344FB607B6803F1180007F15C
:103828000A02022340F2026101F0F4FB0246FB683F
:103838001344FB6000237B817B6803F1180007F1C8
:103848000A02022340F2046101F0E4FB0246FB682D
:103858001344FB607B6803F1180007F10A02022396
:1038680040F2056101F0D6FB0246FB681344FB6099
:1038780000E000BF3B681B68013B042B00F2E081BD
:1038880001A252F823F000BF793A0008A5380008D1
:1038980063390008493C0008373B00084FF443638C
:1038A8007B817B6803F1180007F10A0202230421D7
:1038B80001F0B0FB0246FB681344FB60DB237B810D
:1038C8007B6803F1180007F10A0202234FF48A61AA
:1038D80001F0A0FB0246FB681344FB604FF4C043B1
:1038E8007B817B6803F1180007F10A020223022199
:1038F80001F090FB0246FB681344FB6002237B81C6
:103908007B6803F1180007F10A0202234FF4C16132
:1039180001F080FB0246FB681344FB607B6803F1FF
:10392800180007F10A02022340F2096101F072FB54
:103938000246FB681344FB600E237B817B6803F11E
:10394800180007F10A0202234FF4E06101F062FB5C
:103958000246FB681344FB6073E111237B817B689B
:1039680003F1180007F10A020223282101F052FB93
:103978000246FB681344FB6035237B817B6803F1B7
:10398800180007F10A020223292101F043FB02462D
:10399800FB681344FB607B6803F1180007F10A0217
:1039A80002232A2101F036FB0246FB681344FB6020
:1039B80040F203337B817B6803F1180007F10A02A8
:1039C8000223042101F026FB0246FB681344FB6036
:1039D800DB237B817B6803F1180007F10A020223CD
:1039E8004FF4886101F016FB0246FB681344FB6044
:1039F80046F250337B817B6803F1180007F10A0215
:103A08000223022101F006FB0246FB681344FB6017
:103A180002237B817B6803F1180007F10A02022365
:103A280040F2066101F0F6FA0246FB681344FB60B7
:103A38007B6803F1180007F10A02022340F20761CC
:103A480001F0E8FA0246FB681344FB6048F20D03F4
:103A58007B817B6803F1180007F10A0202234FF407
:103A6800E06101F0D7FA0246FB681344FB60E8E026
:103A78004FF443737B817B6803F1180007F10A0256
:103A88000223042101F0C6FA0246FB681344FB60D6
:103A9800DB237B817B6803F1180007F10A0202230C
:103AA8004FF4886101F0B6FA0246FB681344FB60E4
:103AB80046F250337B817B6803F1180007F10A0254
:103AC8000223022101F0A6FA0246FB681344FB60B8
:103AD80002237B817B6803F1180007F10A020223A5
:103AE80040F2066101F096FA0246FB681344FB6057
:103AF8007B6803F1180007F10A02022340F207610C
:103B080001F088FA0246FB681344FB600D237B81B1
:103B18007B6803F1180007F10A0202234FF4E06101
:103B280001F078FA0246FB681344FB6089E040F62E
:103B38003C737B817B6803F1180007F10A020223BA
:103B4800042101F067FA0246FB681344FB60DB239B
:103B58007B817B6803F1180007F10A0202234FF406
:103B68008A6101F057FA0246FB681344FB607B68E0
:103B780003F1180007F10A0202234FF4886101F0EB
:103B880049FA0246FB681344FB6046F2A0337B8186
:103B98007B6803F1180007F10A020223022101F0F1
:103BA80039FA0246FB681344FB6002237B817B6879
:103BB80003F1180007F10A02022340F2066101F03E
:103BC80029FA0246FB681344FB607B6803F118007E
:103BD80007F10A02022340F2076101F01BFA0246CC
:103BE800FB681344FB607B6803F1180007F10A02C5
:103BF80002234FF4C16101F00DFA0246FB68134439
:103C0800FB607B6803F1180007F10A02022340F207
:103C1800096101F0FFF90246FB681344FB600D23BC
:103C28007B817B6803F1180007F10A0202234FF435
:103C3800E06101F0EFF90246FB681344FB6000E025
:103C480000BF3B689B681946786800F0F9FF024698
:103C5800FB681344FB603B681B68052B1AD10021E5
:103C6800786800F059FF0246FB681344FB600321A3
:103C7800786800F0ABFF0246FB681344FB607B6882
:103C880018330121184601F0F3FA0246FB68134481
:103C9800FB601BE03B68DB681946786800F03CFF76
:103CA8000246FB681344FB600221786800F08EFF2F
:103CB8000246FB681344FB607B68183301211846F1
:103CC80001F0D6FA0246FB681344FB6000237B81AF
:103CD8007B6803F1180007F10A02022340F202315F
:103CE80001F098F90246FB681344FB600A237B81C4
:103CF8007B6803F1180007F10A0202234FF40271EE
:103D080001F088F90246FB681344FB6001237B81BC
:103D18007B6803F1180007F10A0202234FF40071CF
:103D280001F078F90246FB681344FB603B685B6866
:103D3800002B00F0C6813B685B68022B64D13B68AE
:103D48001B68002B60D14FF480737B817B6803F183
:103D5800180007F10A0202232D2101F05BF902463F
:103D6800FB681344FB607B6803F1180007F10A0243
:103D780002232E2101F04EF90246FB681344FB6032
:103D8800524B1B78012B19D14FF401437B817B687F
:103D980003F1180007F10A0202234FF4887101F0B9
:103DA80039F90246FB681344FB60484B00221A703D
:103DB80040F24511786801F0B5F814E048F20813AC
:103DC8007B817B6803F1180007F10A0202234FF494
:103DD800887101F01FF90246FB681344FB60322129
:103DE800786801F09FF800237B817B6803F1180055
:103DF80007F10A0202234FF4846101F00BF902462D
:103E0800FB681344FB60F4E04FF440737B817B68EC
:103E180003F1180007F10A020223032101F0FAF85E
:103E28000246FB681344FB6000237B817B6803F137
:103E3800180007F10A020223222101F0EBF80246DA
:103E4800FB681344FB607B6803F1180007F10A0262
:103E58000223232101F0DEF80246FB681344FB60CD
:103E68004FF440737B817B6803F1180007F10A0265
:103E78000223362101F0CEF80246FB681344FB60AA
:103E880043F203037B817B6803F1180007F10A0200
:103E98000223012101F0BEF80246FB681344FB60CF
:103EA8003B681B68052B13D140F205237B817B6897
:103EB80003F1180007F10A020223512101F0AAF8C0
:103EC8000246FB681344FB6011E000BF9400002425
:103ED80005237B817B6803F1180007F10A0202239E
:103EE800512101F097F80246FB681344FB6043F246
:103EF80003337B817B6803F1180007F10A02022370
:103F0800012101F087F80246FB681344FB60222375
:103F18007B817B6803F1180007F10A020223602104
:103F280001F078F80246FB681344FB6049F62573F4
:103F38007B817B6803F1180007F10A0202234C21F8
:103F480001F068F80246FB681344FB600F217868AB
:103F580000F0E8FF01237B817B6803F1180007F17B
:103F68000A0202232D2101F055F80246FB6813448A
:103F7800FB607B6803F1180007F10A0202232E2177
:103F880001F048F80246FB681344FB604FF44C7399
:103F98007B817B6803F1180007F10A0202230321E1
:103FA80001F038F80246FB681344FB6033237B8139
:103FB8007B6803F1180007F10A020223542101F07B
:103FC80029F80246FB681344FB6040F20111786847
:103FD80000F0A8FFEE237B817B6803F1180007F14E
:103FE8000A020223602101F015F80246FB68134417
:103FF800FB60C0237B817B6803F1180007F10A028C
:1040080002234FF4C26101F005F80246FB6813442D
:10401800FB607B6803F1180007F10A02022340F2F3
:10402800116100F0F7FF0246FB681344FB601023A0
:104038007B817B6803F1180007F10A0202234FF421
:10404800846100F0E7FF0246FB681344FB60C0236D
:104058007B817B6803F1180007F10A02022340F212
:10406800126100F0D7FF0246FB681344FB607B68CF
:1040780003F1180007F10A02022340F2136100F06D
:10408800C9FF0246FB681344FB6010237B817B68F1
:1040980003F1180007F10A02022340F2224100F05E
:1040A800B9FF0246FB681344FB603B681B69DBB23F
:1040B8001A460121786800F09FF90246FB6813440C
:1040C800FB603B681B68002B00F0B5803B681B68F1
:1040D800012B03D03B681B68022B30D113237B8153
:1040E8007B6803F1180007F10A020223012100F09E
:1040F80091FF0246FB681344FB6002237B817B68C7
:1041080003F1180007F10A0202234FF4C46100F01A
:1041180081FF0246FB681344FB604FF460537B81C8
:104128007B6803F1180007F10A02022340F21141EB
:1041380000F070FF0246FB681344FB606FE03B68C9
:104148001B68052B3ED113237B817B6803F1180084
:1041580007F10A020223012100F05CFF0246FB6816
:104168001344FB6002237B817B6803F1180007F18D
:104178000A0202234FF4C46100F04CFF0246FB68B8
:104188001344FB604FF4C0537B817B6803F1180034
:1041980007F10A0202234FF4826100F03BFF024656
:1041A800FB681344FB607B6803F1180007F10A02FF
:1041B800022340F2114100F02DFF0246FB68134430
:1041C800FB602CE00B237B817B6803F1180007F16F
:1041D8000A020223182100F01DFF0246FB6813445F
:1041E800FB607B6803F1180007F10A0202231A2119
:1041F80000F010FF0246FB681344FB604FF4C05305
:104208007B817B6803F1180007F10A0202234FF44F
:10421800826100F0FFFE0246FB681344FB603B68C6
:104228001B69DBB21A460021786800F0E5F80246FF
:10423800FB681344FB60FB68002B02D04FF0FF3390
:10424800FB60FB6818461037BD4680BD80B582B05C
:1042580000AF78600021786800F061F803461846DE
:104268000837BD4680BD80B584B000AF786039603E
:104278007B681B6898477B68183307F10A02114668
:10428800184600F000FFF8607B891A463B681A6000
:10429800FB6818461037BD4680BD80B582B000AFB8
:1042A80078600021786800F0D3F90346184608378B
:1042B800BD4680BD80B584B000AF786001237B81A6
:1042C8000121786800F0C4F90346002B03D04FF0B1
:1042D800FF33FB6011E07B6803F1180007F10A0265
:1042E8000223022100F096FE0346002B03D04FF074
:1042F800FF33FB6001E00023FB60FB6818461037C2
:10430800BD4680BD80B582B000AF78600021786876
:1043180000F09EF9034618460837BD4680BD80B5B3
:1043280084B000AF786039600121786800F090F9B6
:10433800F8603B68012B54D04FF400737B817B6895
:1043480003F1180007F10A0202234FF4846100F018
:1043580061FE0246FB681344FB607B6803F11800AA
:1043680007F10A02022340F2224100F053FE0246FE
:10437800FB681344FB6000237B817B6803F1180012
:1043880007F10A0202232D2100F044FE0246FB68D1
:104398001344FB607B6803F1180007F10A0202234B
:1043A8002E2100F037FE0246FB681344FB607B6851
:1043B80003F1180007F10A020223052100F02AFE82
:1043C8000246FB681344FB607B6803F1180007F1A1
:1043D8000A020223002100F01DFE0246FB68134476
:1043E800FB60FB68002B02D04FF0FF33FB60FB68DB
:1043F80018461037BD4680BD80B586B000AFF8605E
:10440800B9601346FB71BB68012B40F08980FB79CA
:104418003E2B3CD90021F86800F01AF9786140F287
:104428007F137B82FB6803F1180007F11202022355
:104438001C2100F0EFFD02467B6913447B61FB6899
:1044480003F1180007F1120202231D2100F0E2FD1A
:1044580002467B6913447B61FB6803F1180007F18E
:1044680012020223262100F0D5FD02467B6913447F
:104478007B61FB6803F1180007F112020223272170
:1044880000F0C8FD02467B6913447B6183E0FB7939
:10449800002B05D10121F86800F0DAF878617AE09C
:1044A8000021F86800F0D4F87861FB799BB243F4F6
:1044B800A0739BB27B82FB6803F1180007F112021C
:1044C80002231C2100F0A6FD02467B6913447B6190
:1044D800FB6803F1180007F1120202231D2100F006
:1044E80099FD02467B6913447B61FB6803F1180060
:1044F80007F112020223262100F08CFD02467B6997
:1045080013447B61FB6803F1180007F112020223D0
:10451800272100F07FFD02467B6913447B613AE066
:10452800FB799BB243F480739BB27B82FB6803F1F7
:10453800180007F1120202234FF4806100F06AFDAF
:104548007861FB6803F1180007F11202022340F2B8
:10455800014100F05FFD02467B6913447B61FB6803
:1045680003F1180007F11202022340F2044100F09F
:1045780051FD02467B6913447B61FB6803F1180017
:1045880007F11202022340F2054100F043FD024602
:104598007B6913447B617B69002B02D04FF0FF33AA
:1045A8007B617B6918461837BD4680BD80B586B0EB
:1045B80000AFF860B9607A6000237B61BB68012BAB
:1045C8001ED1FB68183307F112021146184600F095
:1045D8006AFD0346002B03D04FF0FF337B612DE0CB
:1045E8007B8A1A46642303FB02F3174A82FB0312F1
:1045F8001A445211DB17D31ADAB27B681A701DE01D
:10460800FB68183307F112021146184600F060FEE5
:104618000346002B03D04FF0FF337B610EE07B8A0B
:104628001A46642303FB02F3084A82FB03121A4466
:10463800D211DB17D31ADAB27B681A707B69184675
:104648001837BD4680BD00BF832008823BC71A8942
:1046580080B584B000AF786039603B68012B1CD10D
:104668004FF400737B817B6803F1180007F10A029D
:1046780002234FF4846100F0CDFCF8607B6803F1FD
:10468800180007F10A02022340F2224100F0C2FC9E
:104698000246FB681344FB601AE010237B817B68A9
:1046A80003F1180007F10A0202234FF4846100F0B5
:1046B800B1FCF8607B6803F1180007F10A020223D5
:1046C80040F2224100F0A6FC0246FB681344FB605E
:1046D800FB68002B02D04FF0FF33FB60FB681846E5
:1046E8001037BD4680BD80B584B000AF78603960B2
:1046F8003B68022B03D03B68042B40F09C800023CE
:104708007B817B6803F1180007F10A02022301216B
:1047180000F080FCF86040F203337B817B6803F192
:10472800180007F10A020223052100F073FC024673
:10473800FB681344FB6001237B817B6803F118004D
:1047480007F10A02022340F2016100F063FC02460D
:10475800FB681344FB607B6803F1180007F10A0249
:10476800022340F2026100F055FC0246FB68134444
:10477800FB6000237B817B6803F1180007F10A02C4
:10478800022340F2046100F045FC0246FB68134432
:10479800FB607B6803F1180007F10A02022340F26C
:1047A800056100F037FC0246FB681344FB604FF4D8
:1047B80080737B817B6803F1180007F10A020223EA
:1047C8002D2100F027FC0246FB681344FB607B6840
:1047D80003F1180007F10A0202232E2100F01AFC47
:1047E8000246FB681344FB604FF401437B817B68FE
:1047F80003F1180007F10A0202234FF4887100F050
:1048080009FC0246FB681344FB604FF49671786814
:1048180000F088FB00237B817B6803F1180007F117
:104828000A0202234FF4846100F0F4FB0246FB689D
:104838001344FB6065E13B68012B49D140F60C430A
:104848007B817B6803F1180007F10A020223052126
:1048580000F0E0FBF86000237B817B6803F118001F
:1048680007F10A02022340F2016100F0D3FB02467D
:10487800FB681344FB607B6803F1180007F10A0228
:10488800022340F2026100F0C5FB0246FB681344B4
:10489800FB6002237B817B6803F1180007F10A02A1
:1048A800022340F2046100F0B5FB0246FB681344A2
:1048B800FB607B6803F1180007F10A02022340F24B
:1048C800056100F0A7FB0246FB681344FB603BE070
:1048D80040F60F737B817B6803F1180007F10A0229
:1048E8000223052100F096FBF86001237B817B6899
:1048F80003F1180007F10A02022340F2016100F0F7
:1049080089FB0246FB681344FB607B6803F11800CF
:1049180007F10A02022340F2026100F07BFB024623
:10492800FB681344FB6002237B817B6803F118005A
:1049380007F10A02022340F2046100F06BFB024611
:10494800FB681344FB6000BF4FF440737B817B68B6
:1049580003F1180007F10A020223032100F05AFBB1
:104968000246FB681344FB6000237B817B6803F1EC
:10497800180007F10A020223222100F04BFB02462D
:10498800FB681344FB607B6803F1180007F10A0217
:104998000223232100F03EFB0246FB681344FB6020
:1049A8004FF440737B817B6803F1180007F10A021A
:1049B8000223362100F02EFB0246FB681344FB60FD
:1049C80043F203037B817B6803F1180007F10A02B5
:1049D8000223012100F01EFB0246FB681344FB6022
:1049E80005237B817B6803F1180007F10A02022383
:1049F800512100F00FFB0246FB681344FB6043F2B1
:104A080003337B817B6803F1180007F10A02022354
:104A1800012100F0FFFA0246FB681344FB602223E1
:104A28007B817B6803F1180007F10A0202236021E9
:104A380000F0F0FA0246FB681344FB6049F6257360
:104A48007B817B6803F1180007F10A0202234C21DD
:104A580000F0E0FA0246FB681344FB600F21786817
:104A680000F060FA01237B817B6803F1180007F1ED
:104A78000A0202232D2100F0CDFA0246FB681344F6
:104A8800FB607B6803F1180007F10A0202232E215C
:104A980000F0C0FA0246FB681344FB604FF44C7305
:104AA8007B817B6803F1180007F10A0202230321C6
:104AB80000F0B0FA0246FB681344FB6033237B81A5
:104AC8007B6803F1180007F10A020223542100F061
:104AD800A1FA0246FB681344FB6040F201117868B2
:104AE80000F020FAEE237B817B6803F1180007F1C0
:104AF8000A020223602100F08DFA0246FB68134483
:104B0800FB60FB68002B02D04FF0FF33FB60FB68B3
:104B180018461037BD4680BD80B584B000AF7860B8
:104B280039600023FB607B6818333A6892B21146FB
:104B3800184600F04BFB0346002B02D04FF0FF3322
:104B4800FB60FB6818461037BD4680BD80B584B051
:104B580000AF786039600023FB6000237B817B68AD
:104B6800183307F10A021146184600F05FFB0346A6
:104B7800002B03D04FF0FF33FB6021E07B89032B30
:104B88001AD801A252F823F0A14B0008A94B00083B
:104B9800B14B0008B94B00083B6800221A600FE0CF
:104BA8003B6801221A600BE03B6802221A6007E0AA
:104BB8003B6803221A6003E03B6800221A6000BFCA
:104BC800FB6818461037BD4680BD00BF80B584B06D
:104BD80000AF786039600023FB607B6818333A685F
:104BE80092B21146184600F09FFA0346002B02D0F5
:104BF8004FF0FF33FB60FB6818461037BD4680BD99
:104C080080B584B000AF786039600023FB607B68B2
:104C1800183307F10A021146184600F0B5FA0346A0
:104C2800002B03D04FF0FF33FB6003E07B891A466B
:104C38003B681A60FB6818461037BD4680BD000007
:104C480080B584B000AF786039603B68554A9342BC
:104C58005DD03B68534A934200F291803B684AF624
:104C6800444293427DD03B684AF64442934200F264
:104C780086803B68B3F5FA4F3BD03B68B3F5FA4FF3
:104C88007DD83B6845F2226293425CD03B6845F28E
:104C98002262934273D83B68B3F57A5F1BD03B68B6
:104CA800B3F57A5F6BD83B68B3F5FA5F05D03B681C
:104CB80042F61132934238D061E003237B817B684E
:104CC80003F1180007F10A0202234FF4047100F0FF
:104CD800A1F9F86061E033237B817B6803F1180058
:104CE80007F10A0202234FF4047100F093F9F86007
:104CF80053E063237B817B6803F1180007F10A0204
:104D080002234FF4047100F085F9F86045E0A3230D
:104D18007B817B6803F1180007F10A0202234FF434
:104D2800047100F077F9F86037E013237B817B6822
:104D380003F1180007F10A0202234FF4047100F08E
:104D480069F9F86029E043237B817B6803F1180047
:104D580007F10A0202234FF4047100F05BF9F860CE
:104D68001BE073237B817B6803F1180007F10A02BB
:104D780002234FF4047100F04DF9F8600DE083232D
:104D88007B817B6803F1180007F10A0202234FF4C4
:104D9800047100F03FF9F86000BFFB68184610374F
:104DA800BD4680BD0077010080B584B000AF786053
:104DB80039600023FB6000237B817B68183307F18F
:104DC8000A021146184600F08DF90346002B03D05D
:104DD8004FF0FF33FB6043E07B890A2B3FD801A2E9
:104DE80052F823F0194E0008234E0008674E0008B9
:104DF8002D4E0008374E0008674E0008414E000847
:104E08004B4E0008554E0008674E00085F4E0008DC
:104E18003B684FF4FA521A6022E03B6842F61132BE
:104E28001A601DE03B684FF47A521A6018E03B683C
:104E380045F222621A6013E03B684FF4FA421A60A6
:104E48000EE03B684AF644421A6009E03B684BF6BC
:104E580080321A6004E03B68044A1A6000E000BF30
:104E6800FB6818461037BD4680BD00BF00770100BB
:104E780080B584B000AF78600023FB607B6818338E
:104E88000021184600F0EEF80346002B02D04FF040
:104E9800FF33FB60FB6818461037BD4680BD000035
:104EA80080B584B000AF786039607B68002B03D18F
:104EB8004FF0FF33FB602CE03B681A687B681A6090
:104EC8003B685A687B685A603B681A897B681A8114
:104ED8003B68DA687B68DA603B681A697B681A6144
:104EE8003B685A697B685A617B680C4ADA617B685F
:104EF8000B4A9A617B687A681A627B681B68002B88
:104F080004D07B681B689847F86002E04FF0FF33D5
:104F1800FB60FB6818461037BD4680BD614F00082E
:104F2800934F000880B584B000AF786039607B6823
:104F38005B6998470346FB6000BF7B685B699847DD
:104F480003461A46FB68D31A3A689A42F5D80023F2
:104F580018461037BD4680BD90B587B000AFF860E1
:104F68007A601A460B467B8113463B81FB687B615E
:104F78007B691C697B6918893B8979897A68A047AC
:104F8800034618461C37BD4690BD90B587B000AFA4
:104F9800F8607A601A460B467B8113463B81FB68B2
:104FA8007B617B69DC687B6918893B8979897A68C8
:104FB800A047034618461C37BD4690BD90B587B03C
:104FC80000AFF8607A601A460B467B8113463B8136
:104FD800FB685C68FB6898683B8979897A68A047B0
:104FE80078617B69002B10DB7B681B881B0A7B823E
:104FF8007B681B881B029BB21AB2B7F912301343A5
:105008001BB27B827B687A8A1A807B6918461C37B8
:10501800BD4690BD90B587B000AFF8607A601A467B
:105028000B467B8113463B817B681B881B0A9BB21E
:10503800FB827B681B881B029BB21AB2FB8A1BB2DD
:1050480013431BB29BB2FB82FB681C68FB68986821
:105058003B8907F116027989A047034618461C3791
:10506800BD4690BD80B582B000AF78600B467B80AE
:10507800BA1C022300217868FFF7CCFF03461846C4
:105088000837BD4680BD80B582B000AF7860396012
:1050980002233A6800217868FFF790FF0346184614
:1050A8000837BD4680BD80B584B000AF78603960F0
:1050B80002233A681C217868FFF780FFF860FB68D4
:1050C800002B0AD13B681B8803F03F039AB23B6868
:1050D8001A803B681A883B681A80FB6818461037A4
:1050E800BD4680BD80B584B000AF786039600223CA
:1050F8003A684FF404717868FFF760FFF860FB685E
:10510800002B0CD13B681B8803F0F0039AB23B6874
:105118001A803B681B881B099AB23B681A80FB6897
:1051280018461037BD4680BD80B584B000AF7860A2
:105138000B467B8000237B8107F10A0202234FF490
:1051480040717868FFF73AFFF860FB68002B16D1CA
:105158007B8923F018039BB27B817B88DB001AB222
:105168007B891BB213431BB29BB27B8107F10A02F6
:1051780002234FF440717868FFF74CFFF860FB6832
:1051880018461037BD4680BD80B584B000AF786042
:10519800396002233A684FF440717868FFF70EFFD0
:1051A800F860FB68002B0CD13B681B8803F01803E0
:1051B8009AB23B681A803B681B88DB089AB23B6846
:1051C8001A80FB6818461037BD4680BD80B584B08C
:1051D80000AF78600B467B8000237B8107F10A02D1
:1051E80002234FF440717868FFF7E8FEF860FB6827
:1051F800002B16D17B8923F060039BB27B817B88CF
:105208005B011AB27B891BB213431BB29BB27B8131
:1052180007F10A0202234FF440717868FFF7FAFE9B
:10522800F860FB6818461037BD4680BD80B584B06D
:1052380000AF7860396002233A684FF440717868AB
:10524800FFF7BCFEF860FB68002B0CD13B681B889D
:1052580003F060039AB23B681A803B681B885B09BD
:105268009AB23B681A80FB6818461037BD4680BD65
:1052780080B584B000AF78600B467B8000237B81CB
:1052880007F10A0202234FF440717868FFF796FE8F
:10529800F860FB68002B16D17B8923F480439BB20E
:1052A8007B817B889B031AB27B891BB213431BB299
:1052B8009BB27B8107F10A0202234FF440717868A0
:1052C800FFF7A8FEF860FB6818461037BD4680BD9A
:1052D80080B584B000AF7860396002233A684FF433
:1052E80080617868FFF76AFEF860FB68002B09D1D7
:1052F8003B681B88DBB29AB23B681A803B681A8805
:105308003B681A80FB6818461037BD4680BD000010
:1053180080B58AB000AF0346FB7100237B621B4B4C
:10532800D3F8E030194A43F48073C2F8E030174BE1
:10533800D3F8E03003F48073FB60FB68FB79144A10
:1053480052F823303B6101237B610123BB610323B6
:10535800FB61FB790F4A52F8233007F1100211461E
:10536800184607F0F1FDFB790A4A52F82300FB7949
:10537800074A52F823309BB20122194608F09EF8DA
:105388007B6A18462837BD4680BD00BF00440258D6
:10539800DC5F01089C00002480B584B000AF0346A0
:1053A800FB710023FB60FB79084A52F82300FB7964
:1053B800074A52F823309BB20022194608F07EF8BB
:1053C800FB6818461037BD4680BD00BF9C0000240E
:1053D800DC5F010880B584B000AF0346FB71002391
:1053E800FB60FB79084A52F82300FB79074A52F818
:1053F80023309BB20122194608F060F8FB68184672
:105408001037BD4680BD00BF9C000024DC5F01084A
:1054180080B588B000AF03460A46FB711346BB71DE
:105428002D4BD3F8E0302C4A43F00403C2F8E030A7
:10543800294BD3F8E03003F00403BB60BB684FF49A
:105448000053FB6000237B610223BB61BB79002B07
:105458000CD100233B61FB79204A52F8233007F135
:105468000C021146184607F06FFD30E01C4B3B61FB
:10547800FB791A4A52F8233007F10C0211461846F4
:1054880007F062FDFB79DB00164A1A44FB791649DE
:1054980051F823301946104607F005FDFB79DB006B
:1054A800104A9818FB79114A52F823301A460021FD
:1054B80007F0DAFC2820FB790D4A52F82330002245
:1054C800194603F030FE2823184603F046FE002351
:1054D80018462037BD4680BD00440258AC00002461
:1054E80000001111481400242C600108C400002495
:1054F800C800002480B582B000AF0346FB71FB7979
:10550800DB00044A1344184607F0E2FC00BF0837E2
:10551800BD4680BD4814002480B500AF00200EF0C1
:1055280049FB00BF80BD000080B590B000AF0346C6
:10553800FB710B46BB7113467B710023BB637A7901
:10554800684B1B681343674A13600023FB63C0E082
:105558000122FB6B02FA03F37B637A797B6B1340BE
:105568007A6B9A4240F0B280FB79002B40F0AE8013
:105578007B6B012B0FD15C4BD3F8E0305A4A43F4D4
:105588008063C2F8E030584BD3F8E03003F480630E
:10559800FB61FB694AE07B6B022B0FD1524BD3F8BE
:1055A800E030514A43F48063C2F8E0304E4BD3F800
:1055B800E03003F48063BB61BB6937E07B6B042B8D
:1055C8000FD1494BD3F8E030474A43F48063C2F81F
:1055D800E030454BD3F8E03003F480637B617B69AE
:1055E80024E07B6B082B0FD13F4BD3F8E0303E4AC9
:1055F80043F48063C2F8E0303B4BD3F8E03003F467
:1056080080633B613B6911E07B6B102B0ED1364BFD
:10561800D3F8E030344A43F48063C2F8E030324BC8
:10562800D3F8E03003F48063FB60FB682F4AFB6B20
:1056380032F813303B620123BB620323FB62BB7960
:10564800002B0CD100237B62294AFB6B52F82330D4
:1056580007F120021146184607F076FC36E0254B84
:105668007B62234AFB6B52F8233007F12002114674
:10567800184607F069FCFB6BDB001F4A1A441F49F8
:10568800FB6B51F823301946104607F00CFCFB6BF6
:10569800DB00194A98181A4AFB6B52F823301A464D
:1056A800002107F0E1FB174AFB6B32F91300164A99
:1056B800FB6B52F823300022194603F034FD114ADF
:1056C800FB6B32F91330184603F047FDFB6B0133CF
:1056D800FB63FB6B042B7FF63BAFBB6B1846403775
:1056E800BD4680BDDC05002400440258F45F010873
:1056F800B000002400003111E005002430600108EA
:10570800CC00002400600108E000002480B586B0C9
:1057180000AF03460A46FB711346BB71FB79002BA9
:1057280016D1BB793B613B6993FAA3F3FB60FB6835
:105738007B617B69002B01D1202303E07B69B3FAED
:1057480083F3DBB2DB00044A1344184607F0C0FBBE
:1057580000BF1837BD4680BDE005002480B483B083
:1057680000AF03463960FB7100BF0C37BD465DF8DA
:10577800047B704780B500AF10210020FFF7EEFFD3
:1057880000BF80BD80B500AF02210020FFF7E6FF13
:1057980000BF80BD80B500AF01210020FFF7DEFF0C
:1057A80000BF80BD80B500AF04210020FFF7D6FF01
:1057B80000BF80BD80B500AF08210020FFF7CEFFF5
:1057C80000BF80BD80B594B000AF78603960002319
:1057D800FB647B68012B03D96FF00103FB64DAE0FB
:1057E8003B6819686E487A681346DB0013449B00CF
:1057F8000344043319606A497A681346DB0013448A
:105808009B000B447A681A603B68596864487A6858
:105818001346DB0013449B000344083319603B68BC
:1058280099685F487A681346DB0013449B00034479
:105838000C3319603B68D96859487A681346DB000D
:1058480013449B000344143319603B681969544896
:105858007A681346DB0013449B0003441033196035
:105868004F497A681346DB0013449B000B441C33F2
:1058780000221A6001F006F80346002B02D06FF0F0
:105888000403FB64FB6C002B40F085803B685B687D
:105898001946444800F05DF90346002B03D06FF029
:1058A8000803FB6477E03F4B3F4A1A603D4801F02C
:1058B80043F8FB6C002B6ED13B685B68FB600023F0
:1058C8003B610123FB613B68DB68012B02D14FF48C
:1058D800805300E00023BB613B689B68202B01D10B
:1058E800E02300E080237B618023FB6240233B634D
:1058F8004FF400537B6200233B620023BB62052305
:105908007B6307F10C031946264800F099F8034613
:10591800002B03D06FF00303FB643CE03B689B68FB
:10592800202B01D1032300E000237B643B685B68E4
:105938003B640023BB633B681B68FB633B681B69D4
:10594800642B0AD83B681A6913469B019B1A174AAD
:10595800A2FB03235B09DBB200E03F23BB64144BCB
:105968001B681B68134A126807F1380110469847EC
:105978000346002B02D06FF00403FB64FB6C002B82
:1059880009D107497A681346DB0013449B000B448E
:105998001C3302221A60FB6C18465037BD4680BD86
:1059A800B406002478150024045801401F85EB51E3
:1059B80008060024B006002480B584B000AF7860E3
:1059C8000023FB607B68012B03D96FF00103FB60A8
:1059D80027E0164801F050FA144B154A1A60154B87
:1059E8001B685B68144A1268104698470346002BE8
:1059F80003D06FF00403FB6013E00C480CF03AFE90
:105A08000346002B03D06FF00303FB6009E00B494A
:105A18007A681346DB0013449B000B441C330022B6
:105A28001A60FB6818461037BD4680BD78150024FB
:105A38000458014008060024B0060024B4060024D7
:105A480080B584B000AF786039600023FB737B6851
:105A58001B681A687B681B6822F480321A603B68EE
:105A6800DA687B68DA623B681A687B681A623B68A6
:105A78005A687B685A607B6800229A617B680022BA
:105A88005A643B689A687B689A647B680022DA6487
:105A98003B681A697B681A653B685A697B689A6033
:105AA8003B689A697B685A617B680122DA613B68C6
:105AB800DA697B68DA607B6800221A637B680022F7
:105AC8005A637B6800225A627B6800229A627B686C
:105AD80000221A617B68002283F838207B68002244
:105AE8001A647B680022DA633B681A6A7B685A6525
:105AF8003B685A6A7B689A657B684FF48032DA653E
:105B08007B6800221A667B684FF480225A667B689D
:105B180000229A667B680022DA667B6804221A678C
:105B28003B689A6A7B685A6778680CF003FB0346FF
:105B3800002B01D00123FB737B681B681A687B6804
:105B48001B6842F480321A60FB7B18461037BD464A
:105B580080BD80B5B4B000AF78603960002387F8A5
:105B6800CF3007F10C0318460AF026FF3B6842F6CF
:105B78001132934209D03B6845F22262934204D025
:105B88003B684AF64442934205D12623BB6140F262
:105B9800AD137B6104E00723BB614FF4AC737B61F9
:105BA8004FF48073FB6001237B660123FB610123B3
:105BB8003B6219233B6107F10C03184609F08CFF7F
:105BC8000346002B02D0012387F8CF3097F8CF3057
:105BD8001846D037BD4680BD80B5B4B000AF7860F8
:105BE8003960002387F8CF3007F10C0318460AF014
:105BF800E3FE3B6842F61132934209D03B6845F216
:105C08002262934204D03B684AF64442934205D14B
:105C18002623BB6140F2AD137B6104E00723BB611F
:105C28004FF4AC737B614FF48063FB604FF4001357
:105C3800C7F8B4300123FB6101233B6219233B61A0
:105C480007F10C03184609F047FF0346002B02D062
:105C5800012387F8CF3097F8CF301846D037BD46A4
:105C680080BD000080B586B000AFF860B9607A608A
:105C780000237B61FB68012B0FD83349FA68134670
:105C8800DB0013449B000B440C331B68DB087A6869
:105C9800B2FBF3F3B3F5803F03D36FF001037B61ED
:105CA8004DE02949FA681346DB0013449B000B4476
:105CB8001C331B68022B0AD02349FA681346DB0001
:105CC80013449B000B441C331B68002B34D11E4922
:105CD800FA681346DB0013449B000B440C331B6823
:105CE800DB087A68B2FBF3F39BB21A46B968174827
:105CF8000CF0B8FD0346002B02D06FF003037B6164
:105D08007B69002B1BD1124B1B68DB68114A126898
:105D1800104698470346002B03D06FF004037B61BD
:105D28000DE00949FA681346DB0013449B000B4455
:105D38001C3301221A6002E06FF002037B617B6969
:105D480018461837BD4680BDB406002478150024CF
:105D580008060024B006002480B584B000AF78603F
:105D68000023FB607B68012B03D96FF00103FB6004
:105D780033E01C497A681346DB0013449B000B444C
:105D88001C331B68012B25D1174B1B689B69174ACD
:105D980012680121104698470346002B03D06FF084
:105DA8000403FB6019E012480CF0DEFC0346002BEC
:105DB80002D06FF00303FB60FB68002B0DD109498B
:105DC8007A681346DB0013449B000B441C33022201
:105DD8001A6002E06FF00203FB60FB681846103798
:105DE800BD4680BDB406002408060024B006002481
:105DF8007815002480B485B000AF7860396000233E
:105E0800FB607B68012B03D96FF00103FB600DE099
:105E18000A497A681346DB0013449B000B441C3381
:105E28001B68022B02D06FF00203FB60FB68184668
:105E38001437BD465DF8047B704700BFB4060024E4
:105E480080B582B000AF78607B68002B05D1054B28
:105E5800D3F88030184604F0D3FC00BF0837BD469D
:105E680080BD00BF7815002480B582B000AF78608F
:105E7800002000F025F800BF0837BD4680BD80B57A
:105E880082B000AF7860002000F024F800BF083727
:105E9800BD4680BD80B582B000AF78607B681B6866
:105EA800064A934203D1002000F01EF802E00020C9
:105EB8000DF0BEFB00BF0837BD4680BD0458014049
:105EC80080B483B000AF786000BF0C37BD465DF882
:105ED800047B704780B483B000AF786000BF0C3794
:105EE800BD465DF8047B704780B483B000AF78602E
:105EF80000BF0C37BD465DF8047B704790B593B082
:105F080000AF786039607B68012B02D96FF001031C
:105F18007DE13B681968A0487A6813465B00134422
:105F28001B010344043319603B68D9689A487A68AE
:105F380013465B0013441B010344103319603B688C
:105F4800596895487A6813465B0013441B0103445B
:105F5800083319603B6899688F487A6813465B0074
:105F680013441B0103440C3319603B6819698A48C0
:105F78007A6813465B0013441B01034420331960FD
:105F880085497A6813465B0013441B010B4424338C
:105F980000221A607B68002B40F0BE803B685B687B
:105FA80019467E48FFF7D5FD0346002B02D06FF057
:105FB80008032CE1794B7A4A1A60784800F0BCFC57
:105FC8003B68DB68012B02D14FF4805300E00023CB
:105FD8007B614023BB622023FB623B689B68202BCC
:105FE80001D1E02300E080233B613B689B68202BC4
:105FF80001D1802300E04023BB623B689B68202BD3
:1060080001D1402300E02023FB6200233B623B6870
:106018001B68002B01D1052300E00A233B635F4B7B
:106028005F4A1A605C497A6813465B0013441B0197
:106038000B4408331B68BB600323FB600123BB616F
:106048000123FB6100237B6207F1080319465348CB
:1060580000F05EF90346002B02D06FF00303D6E090
:10606800504B514A1A600123FB600023BB614FF477
:1060780000533B620023FB6100237B620F233B63D9
:1060880007F1080319464748FFF7DAFC0346002BD7
:1060980002D06FF00303BAE000F0F4FB0346002BD4
:1060A80040F0AA803B685B68FB630023BB633B68E6
:1060B8001B68002B04D103237B630223BB6301E02D
:1060C80002237B633B689B68202B01D1032300E0FC
:1060D80000233B643B681B69632B0CD83B681A6937
:1060E80013461B019B1A1B019B1A304AA2FB032370
:1060F8005B09DBB200E0EF237B642D4B1B681B6858
:106108002C4A126807F13401104698470346002BC1
:1061180072D06FF004037AE07B68012B6CD13B6886
:106128005B6819461D48FFF757FD0346002B02D050
:106138006FF008036BE0194B1F4A1A60174800F00C
:10614800FBFB00237B6180233B611023BB6201239F
:10615800FB6200233B6201233B630F497A681346C5
:106168005B0013441B010B4408331B68DB00BB6056
:106178000123FB600023BB610023FB6100237B62DA
:1061880007F108031946054800F03FF90346002BBC
:1061980014D06FF003033AE0FC060024E014002456
:1061A8002458014078150024045801401F85EB51FC
:1061B80008060024B0060024045400583B685968B7
:1061C80015487A6813465B0013441B0103441033D7
:1061D8001868114C7A6813465B0013441B0123446A
:1061E80010331B680246786800F094F90346002BC8
:1061F80002D04FF0FF330AE007497A6813465B0084
:1062080013441B010B44243302221A60002318464E
:106218004C37BD4690BD00BFFC06002480B584B055
:1062280000AF78600023FB607B68012B03D96FF017
:106238000103FB6056E07B68002B2AD12C4800F054
:106248001BFE2B4B2B4A1A602B4B2C4A1A602C4BEB
:106258001B685B682B4A1268104698470346002B58
:1062680003D06FF00403FB6032E021480CF002FA1F
:106278000346002B03D06FF00303FB6028E01E48A1
:106288000CF0F8F90346002B22D06FF00303FB60F3
:106298001EE07B68012B1BD1154800F0EDFD144B67
:1062A800194A1A60144B154A1A6011480CF0E2F9A1
:1062B8000346002B03D06FF00303FB6008E00E4891
:1062C8000CF0D8F90346002B02D06FF00303FB60F3
:1062D8000E497A6813465B0013441B010B442433B0
:1062E80000221A60FB6818461037BD4680BD00BF03
:1062F800E014002424580140781500240458014073
:1063080008060024B006002404540058FC060024A3
:1063180080B584B000AF786039600023FB737B6878
:106328001B681A687B681B6822F480321A603B6815
:106338001A687B681A623B68DA687B68DA623B68CD
:106348005A687B685A607B6800229A617B680022E1
:106358005A643B689A687B689A647B680022DA64AE
:106368003B681A697B681A653B685A697B689A605A
:106378003B689A697B685A617B680122DA613B68ED
:10638800DA697B68DA607B6800221A637B6810220E
:106398005A637B6800225A627B68002283F838209F
:1063A8003B681A6A7B685A653B685A6A7B689A65D3
:1063B8007B684FF48032DA657B6800221A667B6856
:1063C8004FF480225A667B6800229A667B68002216
:1063D800DA667B6804221A673B689A6A7B685A67A0
:1063E80078680BF0A7FE0346002B01D00123FB734E
:1063F8007B681B681A687B681B6842F480321A60E5
:10640800FB7B18461037BD4680BD80B584B000AF11
:10641800786039600023FB737B681B681A687B68A7
:106428001B6822F480321A603B681A687B681A621B
:106438003B68DA687B68DA623B685A687B685A604E
:106448007B684FF400229A617B6800225A643B689B
:106458009A687B689A647B684FF48072DA643B6858
:106468001A697B681A653B685A697B689A603B6859
:106478009A697B685A617B680122DA613B68DA694C
:106488007B68DA607B6800221A637B6810225A6393
:106498007B6800225A627B68012283F838207B6877
:1064A8000122DA637B684FF480721A643B681A6AC7
:1064B8007B685A653B685A6A7B689A657B680022E4
:1064C800DA657B684FF400321A667B6800225A66E8
:1064D8007B6800229A667B680022DA667B68012264
:1064E8001A673B689A6A7B685A6778680BF022FEDD
:1064F8000346002B01D00123FB737B681B681A68D5
:106508007B681B6842F480321A60FB7B18461037A0
:10651800BD4680BD80B586B000AFF860B9607A60CE
:106528003B6000237B61FB68012B02D06FF0010305
:1065380085E0454BD3F8E030434A43F40023C2F8E2
:10654800E030414BD3F8E03003F400233B613B6972
:1065580000237B616EE03D4A7B694C2101FB03F31C
:10656800134401221A80394A7B694C2101FB03F349
:106578001344023300221A80344A7B694C2101FB00
:1065880003F313440433324A1A603B6898B22F4A23
:106598007B694C2101FB03F313440A3302461A803A
:1065A8007B6898B2294A7B694C2101FB03F31344A9
:1065B800083302461A807B694C2202FB03F3234A04
:1065C80013441846F9F784FEBB68224AA2FB03234A
:1065D8009B0998B220497A6913465B0013445B0013
:1065E8000B44023302461A801B497A6913465B0042
:1065F80013445B000B44043318221A8016497A6945
:1066080013465B0013445B000B4402221A807B692B
:106618004C2202FB03F30D4A98187A6913465B0073
:1066280013445B000C4A13441946F9F76FFF7B6962
:1066380001337B617A697B689A428CD300231846C0
:106648001837BD4680BD00BF004402580C06002420
:10665800489D807ED34D6210A406002480B586B084
:1066680000AFF860B9607A6000237B61FB68012B9A
:1066780002D06FF0010322E000237B6112E0BA68C8
:106688007B69D0187B695B007A68D1187B694C22DA
:1066980002FB03F30C4A13441A46FAF73CF87B69E9
:1066A80001337B610949FA6813465B0013441B01F7
:1066B8000B4410331B687A699A42E0D300231846CA
:1066C8001837BD4680BD00BF0C060024FC06002418
:1066D80080B584B000AF78600023FB607B68012B35
:1066E80003D96FF00103FB601CE07B68002B0DD120
:1066F800144B1B689B69144A12680121104698477D
:106708000346002B02D06FF00403FB60FB68002BEC
:1067180008D10E480CF028F80346002B02D06FF081
:106728000303FB600A497A6813465B0013441B01A4
:106738000B44243302221A60FB6818461037BD4602
:1067480080BD00BF08060024B0060024E014002421
:10675800FC06002480B586B000AFF860B9607A60A6
:1067680000237B61FB68012B03D06FF001037B6181
:1067780018E00F49FA6813465B0013441B010B44E9
:106788000C331B68DB087A68B2FBF3F39BB21A463A
:10679800B96808480CF01CF90346002B02D06FF0CA
:1067A80003037B617B6918461837BD4680BD00BF6F
:1067B800FC060024E014002480B485B000AF7860A3
:1067C80039600023FB607B68012B03D96FF001035C
:1067D800FB600AE008497A6813465B0013441B0112
:1067E8000B4424331A683B681A60FB681846143750
:1067F800BD465DF8047B7047FC06002480B582B076
:1068080000AF786039603B68102B02D03B68002BE2
:1068180005D1054BD3F88430184603F0F1FF00BFCB
:106828000837BD4680BD00BFE014002480B582B0A3
:1068380000AF78607B681B68064A934203D100204A
:106848000CF064FE02E001200CF060FE00BF083787
:10685800BD4680BD2458014080B582B000AF786045
:106868007B681B68064A934203D100200CF0BCFDEC
:1068780002E001200CF0B8FD00BF0837BD4680BD1E
:106888002458014080B588B000AF0023FB61342351
:10689800BB81204B7B60204BBB60204B7B61204B36
:1068A8003B61204BBB613B1D19461F48FEF7F8FAB8
:1068B8000346002B03D06FF00703FB6124E01A485E
:1068C800FEF7D6FA0346002B03D06FF00403FB61F2
:1068D8001AE03B4619461448FDF7C5FC0346002B51
:1068E80003D06FF00403FB610EE03B6848F6941296
:1068F800934203D06FF00603FB6105E00B4B0C4A93
:106908001A600C4B084A1A60FB6918462037BD46C6
:1069180080BD00BF656F0008D96F000801710008CD
:10692800A57000085D7100085C07002408060024B3
:106938004C000024B006002480B598B000AF786001
:10694800754BD3F8F030744A43F48003C2F8F03042
:10695800714BD3F8F03003F48003BB64BB6C6E4B0F
:10696800D3F8E0306C4A43F01003C2F8E0306A4BC9
:10697800D3F8E03003F010037B647B6C664BD3F8EC
:10698800E030654A43F01003C2F8E030624BD3F8B8
:10699800E03003F010033B643B6C5F4BD3F8E0300E
:1069A8005D4A43F01003C2F8E0305B4BD3F8E030A7
:1069B80003F01003FB63FB6B1023FB6402233B65AE
:1069C80000237B650323BB650623FB6507F14C03A6
:1069D8001946524806F0B8FA2023FB640623FB65E3
:1069E80007F14C0319464D4806F0AEFA4023FB6404
:1069F8000623FB6507F14C031946484806F0A4FA3C
:106A08007B681B68464A93421ED0464B93F89130E8
:106A1800DBB2012B18D0404BD3F8E0303E4A43F0AC
:106A28004003C2F8E0303C4BD3F8E03003F04003B9
:106A3800BB63BB6B8023FB640623FB6507F14C0338
:106A48001946394806F080FA7B681B68374A934232
:106A580040F0B380304BD3F8F0302F4A43F4800332
:106A6800C2F8F0302C4BD3F8F03003F480037B638A
:106A78007B6B294BD3F8E030274A43F01003C2F868
:106A8800E030254BD3F8E03003F010033B633B6B59
:106A98007023FB6402233B6500237B650323BB65EE
:106AA8000623FB6507F14C0319461C4806F04CFA0F
:106AB800194BD3F8E030184A43F04003C2F8E030ED
:106AC800154BD3F8E03003F04003FB62FB6A8023E8
:106AD800FB6407F14C031946134806F035FA0E4BD0
:106AE800D3F8D8300C4A43F00203C2F8D8300A4B26
:106AF800D3F8D83003F00203BB62BB6A0C4BDB68E7
:106B0800102B19D10B4B4FF400625A61094B4FF40B
:106B180000529A6118E000BF004402580010025861
:106B280004540058E0140024001802580458014086
:106B3800B406002484070024B14B4FF480525A61F4
:106B4800AF4B4FF480429A61AD4B57225A60AC4B21
:106B58000022DA60AA4B4FF480621A61A84B4FF406
:106B68008072DA61A64B4FF400321A62A44B0422F9
:106B78005A62A34B03229A62A14B40229A60A04B0F
:106B8800A04A1A609E4B0022DA629D4B00221A63CB
:106B98007B689B4AC3F88020994A7B68936398482E
:106BA80002F0F0FE964802F091FB00220E213920F7
:106BB80002F0B9FA392002F0D0FA7B681B68924AD1
:106BC800934240F0B880914BD3F8F4308F4A43F4A5
:106BD8000013C2F8F4308D4BD3F8F43003F40013EB
:106BE8007B627B6A894BD3F8E030884A43F0100314
:106BF800C2F8E030854BD3F8E03003F010033B6275
:106C08003B6A824BD3F8E030804A43F00403C2F871
:106C1800E0307E4BD3F8E03003F00403FB61FB69FE
:106C28000423FB6402233B6500237B650223BB65C9
:106C38000A23FB6507F14C031946754806F084F9E9
:106C480001237B650123BB650223FB6407F14C0329
:106C58001946704806F078F96C4BD3F8E0306B4A67
:106C680043F01003C2F8E030684BD3F8E03003F08B
:106C78001003BB61BB693023FB6402233B6500231F
:106C88007B650223BB650823FB6507F14C031946A6
:106C98005F4806F059F95D4BD3F8E0305B4A43F49E
:106CA8000013C2F8E030594BD3F8E03003F4001376
:106CB8007B617B69584B0F225A60574B00229A60C0
:106CC800554B0022DA60544B4FF480621A61524BE4
:106CD8004FF400625A61504B4FF400529A614E4B88
:106CE8004FF48072DA614C4B4FF400321A624A4B0F
:106CF80000225A62484B03229A62474B0022DA620A
:106D0800454B00221A63444B444A1A607B68424A46
:106D1800C3F88420404A7B6893633F4802F032FE00
:106D28003D4802F0D3FA00220F21822002F0FBF93D
:106D3800822002F012FA7B681B68394A934240F0BD
:106D48009280324BD3F8F030304A43F48003C2F8D3
:106D5800F0302E4BD3F8F03003F480033B613B69ED
:106D68002A4BD3F8E030294A43F01003C2F8E03048
:106D7800264BD3F8E03003F01003FB60FB680823D0
:106D8800FB6402233B6500237B650223BB65062366
:106D9800FB6507F14C0319461D4806F0D5F81B4B57
:106DA800D3F8D830194A43F00203C2F8D830174B49
:106DB800D3F8D83003F00203BB60BB68164B5822E7
:106DC8005A60154B00229A60134B0022DA60124B6E
:106DD8004FF480621A61104B4FF400625A610E4BF7
:106DE8004FF400529A610C4B4FF48072DA610A4BEF
:106DF8004FF400321A62084B00225A6212E000BFB8
:106E0800840700242804024004540058004402580F
:106E18000010025800080258FC0700241C540258AD
:106E280024580140124B03229A62114B0022DA6265
:106E38000F4B00221A630E4B0E4A1A607B680C4AED
:106E4800C3F884200A4A7B689363094802F09AFDD4
:106E5800074802F03BFA00220F213C2002F063F9B8
:106E68003C2002F07AF900BF6037BD4680BD00BF04
:106E7800FC0700247004024080B588B000AF786039
:106E88007B681B68304A934234D1392002F073F989
:106E98007B68D3F88030184602F074FD7B681B6865
:106EA8001A687B681B6822F480321A601023FB6022
:106EB800FB681946254806F0F7F92023FB60FB68B4
:106EC8001946224806F0F0F94023FB60FB68194692
:106ED8001E4806F0E9F98023FB60FB6819461C4848
:106EE80006F0E2F91B4BD3F8F0301A4A23F480037A
:106EF800C2F8F0307B681B68174A93421FD13C20C8
:106F080002F039F97B68D3F88430184602F03AFD6C
:106F18007B681B681A687B681B6822F480321A60D9
:106F28000823FB60FB681946084806F0BDF9094BC1
:106F3800D3F8F030074A23F48003C2F8F03000BFDA
:106F48002037BD4680BD00BF0458014000100258DC
:106F580000180258004402582458014080B582B0F5
:106F680000AF00237B60164B164A1A60164B1B684D
:106F7800002B1FD1144B1B680133134A13601048B0
:106F880006F0B8FD0346002B14D10D4800F060FB55
:106F980008F08CFD03460D49184600F0E3F8034657
:106FA8001946074800F038F80346002B02D06FF066
:106FB80007037B607B6818460837BD4680BD00BF65
:106FC80010160024001C005874080024A086010034
:106FD80080B582B000AF00237B600D4B1B68013B7E
:106FE8000B4A13600A4B1B68002B0BD1094800F0B1
:106FF8009BFB084806F00CFB0346002B02D06FF001
:1070080007037B607B6818460837BD4680BD00BF14
:10701800740800241016002480B584B000AF78608E
:1070280039600023FB737B683A685A607B680022EA
:107038009A607B680122DA607B6800221A617B68AB
:1070480000225A617B6800229A617B680022DA611B
:107058007B6800221A62786806F04AFA0346002B19
:1070680002D00123FB7314E00023BB60B968786881
:1070780006F076FF0346002B02D00123FB7308E0DD
:107088000021786806F0B7FF0346002B01D00123E2
:10709800FB73FB7B18461037BD4680BD80B588B0B2
:1070A80002AFBA601A460346FB810B46BB81134602
:1070B800FB80B989F889FB880093BB68022200F03D
:1070C80057FB0346002B02D100237B610CE00948E3
:1070D80006F01EFD0346042B03D16FF065037B61A8
:1070E80002E06FF003037B617B6918461837BD46E1
:1070F80080BD00BF1016002480B588B002AFBA600A
:107108001A460346FB810B46BB811346FB80B989AF
:10711800F889FB880093BB68022200F04FFB034606
:10712800002B02D100237B610CE0094806F0F0FC3B
:107138000346042B03D16FF065037B6102E06FF017
:1071480003037B617B6918461837BD4680BD00BFC5
:107158001016002480B500AF01F09AFE03461846C9
:1071680080BD000080B586B000AF7860396000232C
:107178007B617B68002B6BD03B68002B68D00023B9
:107188003B6160E0354A3B692C2101FB03F3134462
:1071980004331B683A689A4252D3304A3B692C211F
:1071A80001FB03F3134408331B683A689A4247D833
:1071B8003969786800F056F83969786800F040F95C
:1071C800F860FB687F2B42D82549FA6813469B0074
:1071D80013449B000B441B6819072148FA6813469F
:1071E8009B0013449B00034404331B681B0503F4F2
:1071F800700319431A48FA6813469B0013449B000E
:10720800034408331B681B0403F470231943144810
:10721800FA6813469B0013449B0003440C331B6815
:107228001B029BB219430E48FA6813469B0013448D
:107238009B00034410331B68DBB20B437B6106E001
:107248003B6901333B613B69022B9BD900E000BFDE
:107258007B6918461837BD4680BD00BF44600108E9
:107268007808002480B48FB000AF786039601023AC
:107278007B637B685A086E4B13447A68B3FBF2F35E
:10728800FB613223BB614FF482737B61694A3B68BF
:107298002C2101FB03F3134424331B681846654A69
:1072A8003B682C2101FB03F313440C331B68C21801
:1072B800BB69D21A5F493B682C2000FB03F30B44DF
:1072C80028331B680333F96901FB03F3D31A3B63C3
:1072D800584A3B682C2101FB03F3134410331B6805
:1072E8001846544A3B682C2101FB03F3134420330E
:1072F8001B68C21A7B69D21A4E493B682C2000FBD6
:1073080003F30B4428331B680433F96901FB03F3C7
:10731800D31AFB62474A3B682C2101FB03F3134451
:1073280020331B681846434A3B682C2101FB03F3B2
:10733800134414331B6803443B613B6B002B01DC93
:1073480000233B63FB6A002B01DC0023FB62002364
:10735800BB6262E000237B6259E07B6A0133BA6A50
:10736800013202FB03F2FB6902FB03F3FB603B699A
:10737800FA689A4248D300233B6242E0BB6A013371
:107388003A6A02FB03F2FB6902FB03F3BB603B6B47
:10739800BA689A4232D3FB6ABA689A422ED8BA6A55
:1073A8007B6B9A422AD0244B1A68244913469B00C7
:1073B80013449B000B44BA6A1A601F4B1A681F4992
:1073C80013469B0013449B000B4404337A6A1A60EB
:1073D800194B1A68194913469B0013449B000B4428
:1073E80008333A6A1A60BB6A7B63134B1B68013324
:1073F800114A1360104B1B687F2B12D83B6A01336C
:107408003B623B6A0F2BB9D97B6A01337B627B6A8B
:107418000F2BA2D9BB6A0133BB62BB6A0F2B99D968
:1074280000E000BF3C37BD465DF8047B704700BFF5
:1074380000CA9A3B446001087812002478080024A6
:1074480080B493B000AF786039604FF0FF337B644D
:107458007B685A087A4B13447A68B3FBF2F3FB62F1
:10746800784A3B682C2101FB03F313441B685A0834
:10747800734B134473493A682C2000FB02F20A4408
:107488001268B3FBF2F3BB6232237B626D4A3B683E
:107498002C2101FB03F3134428331A68FB6A02FB0F
:1074A80003F33B62674A3B682C2101FB03F3134457
:1074B80004331B68624AB2FBF3F3FB61614A3B6821
:1074C8002C2101FB03F3134408331B685C4AB2FB0D
:1074D800F3F3BB61BB6A3B6400237B63A3E05A49B7
:1074E8007A6B13469B0013449B000B441B685A1C81
:1074F800FB6A02FB03F37B610023FB638CE07A6A7F
:107508003B6A1A44FB6B0133796901FB03F1FB6A9F
:107518005B000B4413443B614A4A3B682C2101FB46
:1075280003F3134418331B683A699A4271D93A69CC
:107538007B6AD21A3B6AD31A9B08FA6A9A4268D2C3
:107548000023BB6362E07A6A3B6A1A44BB6B01336F
:10755800796901FB03F1FB6A5B000B441344FB6090
:107568003A69FB681A4437493B682C2000FB03F34F
:107578000B4420331B681A4432493B682C2000FB1B
:1075880003F30B4424331B681344BB60BA68BB691C
:107598009A4238D3BA68FB699A4234D8294A3B6878
:1075A8002C2101FB03F313441C331B68FA689A422D
:1075B80029D3FA6AFB689A4225D2BA68BB6AD31AF9
:1075C8003B633B6B002B02DA3B6B5B423B633B6BE1
:1075D8003A6C9A4217D93B6B3B641B497A6B13464A
:1075E8009B0013449B000B441033FA6B1A60164936
:1075F8007A6B13469B0013449B000B440C33BA6B05
:107608001A607B6B7B64BB6B0133BB63BB6BFF2B6B
:1076180099D9FB6B0133FB63FB6BFF2B7FF66FAFD5
:107628007B6B01337B63094B1B687A6B9A42FFF4CF
:1076380056AF7B6C18464C37BD465DF8047B7047E7
:1076480000CA9A3B44600108780800247812002494
:1076580080B58AB000AF7860314BD3F8E030304A5B
:1076680043F00803C2F8E0302D4BD3F8E03003F0C4
:1076780008033B613B692A4BD3F8E030284A43F0C2
:107688000803C2F8E030264BD3F8E03003F00803D3
:10769800FB60FB684FF480537B611223BB610023BE
:1076A800FB6102233B6204237B6207F11403194642
:1076B8001C4805F049FC4FF400537B611223BB6161
:1076C8000023FB6102233B6204237B6207F114035E
:1076D8001946144805F038FC114BD3F8F430104A19
:1076E80043F08003C2F8F4300D4BD3F8F43003F0C4
:1076F8008003BB60BB680A4BD3F89C30084A43F050
:107708008003C2F89C30064BD3F89C30044A23F01F
:107718008003C2F89C3000BF2837BD4680BD00BF3B
:1077280000440258000C025880B588B000AF786059
:107738004FF48053FB60FB6819460B4805F0B4FD15
:107748004FF40053FB60FB681946074805F0ACFD91
:10775800064BD3F8F430054A23F08003C2F8F4301E
:1077680000BF2037BD4680BD000C025800440258B7
:1077780080B588B004AF7B600346FB810B46BB81B4
:1077880013467B817889BA89F9894FF47A73029311
:107798003B8B01937B6800930346074805F07CFF09
:1077A8000346002B01D1002301E06FF007031846C0
:1077B8001037BD4680BD00BF1016002480B588B0C4
:1077C80004AF7B600346FB810B46BB8113467B817C
:1077D8007889BA89F9894FF47A7302933B8B0193BC
:1077E8007B6800930346074806F06AF80346002BB7
:1077F80001D1002301E06FF0070318461037BD469A
:1078080080BD00BF1016002480B584B002AF786038
:1078180039604FF4F07300934FF4487301223968CC
:10782800786800F005F8034618460837BD4680BD5D
:1078380080B58EB000AFF860B9607A603B60002315
:107848007B63BB68012B08D8FB68002B05D17B68DC
:10785800022B06D07B68012B03D06FF001037B63FA
:10786800BFE07B68022B10D10223FB620023BB62BE
:1078780002233B635D49FA681346DB009B1A9B00B1
:107888000B44103302221A600FE00023FB62052329
:10789800BB6200233B635549FA681346DB009B1A19
:1078A8009B000B44103304221A605049FA681346AF
:1078B800DB009B1A9B000B440C337A681A604B4917
:1078C800FA681346DB009B1A9B000B443A681A605F
:1078D8004649FA681346DB009B1A9B000B440433A5
:1078E8003A6C1A60F86800F08DF800F0C5F8404B63
:1078F800404A1A60404B414A1A60414B4FF0A0423F
:107908001A603B4800F0BAFE3B4800F0E9FE3C48EC
:1079180000F014FFBB6A3A6C3968394800F014F972
:107928000346002B03D06FF003037B6314E0304859
:1079380000F01CFA0346002B03D06FF003037B63AF
:107948000AE03A6C39682A4800F082F90346002BAD
:1079580002D06FF003037B637B6B002B41D10020C7
:1079680000F0D4FF0346002B02D06FF0030339E088
:1079780000233B613B687B610023BB613B6CFB617F
:10798800FB6A3B624FF050437B6207F110031A46D3
:107998000021174800F0A8F90346002B03D06FF028
:1079A80003037B6313E0164805F0B8F80421144874
:1079B80005F08CF8B968386B00F054FF0346002BCB
:1079C80003D06FF006037B6301E000237B63074964
:1079D800FA681346DB009B1A9B000B4418330122FC
:1079E8001A607B6B18463837BD4680BD04170024E3
:1079F8005C160024001000503C17002400100052B0
:107A08002017002480B588B000AF7860184BD3F8F1
:107A1800E030174A43F04003C2F8E030144BD3F883
:107A2800E03003F04003BB60BB680823FB60012320
:107A38003B6101237B610323BB6107F10C031946FA
:107A48000C4805F081FA002208210A4805F036FDA5
:107A5800142001F029FA01220821064805F02EFD1C
:107A68000A2001F021FA00BF2037BD4680BD00BFC3
:107A7800004402580018025880B588B000AF304B57
:107A8800D3F8E0302E4A43F40073C2F8E0302C4BB0
:107A9800D3F8E03003F40073BB60BB684FF4805345
:107AA800FB6001233B610223BB6100237B6107F17B
:107AB8000C031946234805F047FA01224FF4805178
:107AC800204805F0FBFC1E4BD3F8E0301C4A43F479
:107AD8000073C2F8E0301A4BD3F8E03003F40073B7
:107AE8007B607B680423FB6000233B610223BB614E
:107AF80007F10C031946134805F026FA0122042160
:107B0800104805F0DBFC00220F21582001F00BFB88
:107B1800582001F022FB00220F215A2001F003FB1C
:107B28005A2001F01AFB00220F217B2001F0FBFAFA
:107B38007B2001F012FB00BF2037BD4680BD00BF8F
:107B4800004402580024025880B5A2B000AFF86083
:107B5800B9607A603B60FB684FF0A0421A60FB682E
:107B680000225A60FB6804229A60FB680122DA60EE
:107B78006423FB670523C7F880300023C7F88430E7
:107B880007F17C031946F86804F07CFC0346002BD7
:107B980001D0012353E000233B613B687B61002354
:107BA800BB610223FB61BB683B6200237B6240F63A
:107BB800FF73BB620023FB6200233B6300237B63EC
:107BC8000423BB634D23FB63BB684FF2244202FBD3
:107BD80003F21D4B13441D4AA2FB03235B0B3B64BA
:107BE80001237B640F23BB641023FB647B683B6524
:107BF8004FF400437B650423BB650423FB654FF406
:107C080000533B664FF480537B664FF40063BB66BA
:107C18004FF48063FB664FF400733B674FF4807347
:107C28007B670023BB6707F110031946F86804F067
:107C38004DFD0346002B01D0012300E00023184628
:107C48008837BD4680BD00BFD8C14200E31C754CD3
:107C580080B584B000AFF860B9607A60FB68214AEB
:107C68001A60FB6800225A60FB6800229A60FB6871
:107C78000022DA60FB6800221A61FB6801225A615F
:107C8800FB682322DA61BB6803F12302FB685A62AE
:107C9800BB6803F14502FB68DA62FB6800229A615F
:107CA800FB680F221A627B6803F10F02FB689A6275
:107CB8007B6803F11F02FB681A63FB68002283F8E4
:107CC8003420FB68002283F83520FB68002283F803
:107CD8003620F86806F0DCF9034618461037BD462A
:107CE80080BD00BF0010005080B592B000AFF860B2
:107CF800B9607A607B681B687B617B685B68BB6185
:107D08007B689B68FB617B68DB683B627B681B69FF
:107D18007B62FF23BB620023FB624FF4C0633B63BB
:107D280007237B637B685B69BB637B685A687B68F6
:107D38001B68D31AFB637B68DA687B689B68D31A75
:107D48003B64002387F84430002387F8453000233C
:107D580087F8463007F11403BA681946F86806F040
:107D680071FA034618464837BD4680BD80B5B2B0A3
:107D780000AF78604FF00053BB600523FB6284239B
:107D88003B6302237B630223BB631823FB634FF42B
:107D980000633B6400237B640023BB6407F1080392
:107DA800184607F099FE03461846C837BD4680BDF9
:107DB80080B485B000AF786039600023FB607B68D1
:107DC800002B03D06FF00103FB6009E008497A68D3
:107DD8001346DB009B1A9B000B4408333A681A6071
:107DE800FB6818461437BD465DF8047B704700BF32
:107DF8000417002480B485B000AF78603960002390
:107E0800FB607B68002B03D06FF00103FB600AE086
:107E180008497A681346DB009B1A9B000B440C3315
:107E28001A683B681A60FB6818461437BD465DF847
:107E3800047B70470417002480B485B000AF7860D5
:107E480039600023FB607B68002B03D06FF00103CF
:107E5800FB600EE00A4B1B685B6C002B09D00949DC
:107E68007A681346DB009B1A9B000B441A683B6830
:107E78001A60FB6818461437BD465DF8047B7047E6
:107E88007C1200240417002480B485B000AF786009
:107E980039600023FB607B68002B03D06FF001037F
:107EA800FB600FE00B4B1B689B6C002B0AD00A4948
:107EB8007A681346DB009B1A9B000B4404331A684C
:107EC8003B681A60FB6818461437BD465DF8047BAA
:107ED800704700BF7C1200240417002490B58FB0AF
:107EE80002AFF860B9607A603B600023FB613B68D1
:107EF8000A331B781A463B680B331B781B021A445B
:107F08003B680C331B781B041A443B680D331B7801
:107F18001B061344FB623B6812331B781A463B6806
:107F280013331B781B021A443B6814331B781B0459
:107F38001A443B6815331B781B061344BB613B6826
:107F480016331B781A463B6817331B781B021A44F2
:107F58003B6818331B781B041A443B6819331B7899
:107F68001B0613447B613B681C331B781A463B682D
:107F78001D331B781B0213443B613F49FA681346C3
:107F8800DB009B1A9B000B4408331B683B4A3421D7
:107F980001FB03F313445C3319683748FA68134646
:107FA800DB009B1A9B0003441B687A6802FB03F200
:107FB800BB68D018304CFA681346DB009B1A9B004C
:107FC800234410331B6803FB00F30B44BB623B697B
:107FD800203B072B02D800237B6208E03B69103B5B
:107FE800072B02D802237B6201E001237B627B69B5
:107FF800013BBA6902FB03F33A69D20802FB03F2B8
:10800800FB6A13443A6813443B620023FB6229E08D
:10801800BA6A7B6A0093BB69396AF86800F0D6FAD5
:108028001549FA681346DB009B1A9B000B44196834
:108038001148FA681346DB009B1A9B00034410336F
:108048001B6803FB01F3BA6A1344BB623B69DB0894
:10805800BA6902FB03F35B423A6A13443B62FB6A68
:108068000133FB62FA6A7B699A42D1D3FB691846ED
:108078003437BD4690BD00BF041700245C160024A9
:1080880080B588B000AFF860B9607A603B600023C3
:10809800FB6135E00023BB612BE03B681B781A4687
:1080A8003B6801331B781B021A433B6802331B7879
:1080B8001B041A433B6803331B781B0613437B617D
:1080C800BA68BB69D1187A68FB691A447B69F86891
:1080D80000F09EF90F49FA681346DB009B1A9B00D3
:1080E8000B4410331B683A6813443B60BB69013387
:1080F800BB61BA69BB6A9A42CFD3FB690133FB61A2
:10810800FA69FB6A9A42C5D3002318462037BD4650
:1081180080BD00BF0417002490B589B002AFF86095
:10812800B9607A603B602849FA681346DB009B1AFD
:108138009B000B4408331B68244A342101FB03F3DA
:1081480013445C3319682048FA681346DB009B1A0D
:108158009B000344103318681B4CFA681346DB0075
:108168009B1A9B0023441B687A6802FB03F2BB68D6
:10817800134403FB00F30B447B61BA683B68D118D6
:108188001148FA681346DB009B1A9B0003441B68DE
:1081980099420AD90C49FA681346DB009B1A9B00DE
:1081A8000B441A68BB68D31A3B607969BB6A0193B0
:1081B8000023009301233A68F86800F093F900233C
:1081C80018461C37BD4690BD041700245C160024D1
:1081D80090B589B002AFF860B9607A603B602D490C
:1081E800FA681346DB009B1A9B000B4408331B6894
:1081F800294A342101FB03F313445C3319682548E9
:10820800FA681346DB009B1A9B0003441033186876
:10821800204CFA681346DB009B1A9B0023441B681A
:108228007A6802FB03F2BB68134403FB00F30B44B8
:108238007B617A683B68D1181648FA681346DB00F8
:108248009B1A9B00034404331B6899420BD91149BC
:10825800FA681346DB009B1A9B000B4404331A6828
:108268007B68D31A3B6079690A48FA681346DB00D1
:108278009B1A9B0003441B68013BBA6A0192009356
:108288003B680122F86800F02DF9002318461C37D6
:10829800BD4690BD041700245C16002490B589B033
:1082A80002AFF860B9607A603B602149FA6813460A
:1082B800DB009B1A9B000B4408331B681D4A3421C2
:1082C80001FB03F313445C3319681948FA68134631
:1082D800DB009B1A9B00034410331868144CFA689F
:1082E8001346DB009B1A9B0023441B687A6802FB39
:1082F80003F2BB68134403FB00F30B447B61796909
:108308000B48FA681346DB009B1A9B0003441A6863
:108318003B68D31AFA6A01920093BB6A3A68F86814
:1083280000F0E0F8002318461C37BD4690BD00BF9A
:10833800041700245C16002480B485B000AFF860F0
:10834800B9607A603B603049FA681346DB009B1AD3
:108358009B000B4408331B682C4A342101FB03F3B0
:10836800134448331B68002B22D12749FA68134667
:10837800DB009B1A9B000B4408331B68234A3421FB
:1083880001FB03F313445C3319681F48FA6813466A
:10839800DB009B1A9B0003441B687A6802FB03F20C
:1083A800BB6813449B000B441A683B681A6023E0BF
:1083B8001549FA681346DB009B1A9B000B440833E7
:1083C8001B68124A342101FB03F313445C33196818
:1083D8000D48FA681346DB009B1A9B0003441B6890
:1083E8007A6802FB03F2BB6813445B000B441B88EA
:1083F8009BB21A463B681A60002318461437BD46DC
:108408005DF8047B704700BF041700245C16002445
:1084180080B485B000AFF860B9607A603B602F49DE
:10842800FA681346DB009B1A9B000B4408331B6851
:108438002B4A342101FB03F3134448331B68002BF8
:1084480022D12649FA681346DB009B1A9B000B448D
:1084580008331B68224A342101FB03F313445C33BD
:1084680019681E48FA681346DB009B1A9B000344F0
:108478001B687A6802FB03F2BB6813449B000B4439
:108488001A463B68136021E01449FA681346DB007A
:108498009B1A9B000B4408331B68114A342101FBCB
:1084A80003F313445C3319680C48FA681346DB007D
:1084B8009B1A9B0003441B687A6802FB03F2BB68A3
:1084C80013445B000B443A6892B21A8000231846A2
:1084D8001437BD465DF8047B704700BF04170024BD
:1084E8005C16002480B588B002AFF860B9607A6085
:1084F8003B607B6A3B613249FA681346DB009B1A92
:108508009B000B440C331B68022B29D102237B618F
:108518007B6ADB0A03F01F0213461B0113445A014E
:10852800D31A17339B0919047B6A5B0903F03F02CE
:108538001346DB0113445B00134421339B091B02E0
:1085480019437B6A03F01F0213461B0113445A01A7
:10855800D31A17339B090B4343F07F433B6102E077
:1085680000237B6100BF174B4FF440325A60154A15
:108578007B699360134A3B6AD360124B124A1A60B4
:10858800104803F05BFC0346002B15D101210D4870
:1085980003F0D6FD0346002B0ED1BA683B68009362
:1085A8007B683969074803F0B7FC0346002B03D101
:1085B8001921044803F0DBFC00BF1837BD4680BD15
:1085C800041700243C1700240010005280B588B01E
:1085D80002AFF860B9607A603B602549FA681346D3
:1085E800DB009B1A9B000B440C331B68022B02D147
:1085F80002237B6102E000237B6100BF1D4B4FF427
:1086080080325A601B4A7B6993601A4B0022DA60F9
:10861800184B0022DA64174BFF221A65154A3B6A89
:108628009364144B00225A64124B134A1A6011487F
:1086380003F004FC0346002B15D101210D4803F07B
:108648007FFD0346002B0ED1B9687A680123009399
:108658003B68084803F060FC0346002B03D1322135
:10866800044803F084FC00BF1837BD4680BD00BF36
:10867800041700243C1700240010005280B485B071
:1086880000AF78607B681B68134A93421ED1134B76
:10869800D3F8E430114A43F00803C2F8E4300F4B32
:1086A800D3F8E43003F00803FB60FB680B4BD3F806
:1086B8008C300A4A43F00803C2F88C30074BD3F8D1
:1086C8008C30064A23F00803C2F88C3000BF1437F8
:1086D800BD465DF8047B7047001000500044025806
:1086E80080B485B000AF78607B681B68114A9342FC
:1086F8001AD1114BD3F8D4300F4A43F01003C2F803
:10870800D4300D4BD3F8D43003F01003FB60FB6872
:10871800094BDB6F084A43F01003D367064BDB6F46
:10872800054A23F01003D36700BF1437BD465DF830
:10873800047B7047001000520044025880B485B092
:1087480000AF78607B681B68B3F1A04F1ED1124B55
:10875800D3F8E430104A43F01003C2F8E4300E4B6B
:10876800D3F8E43003F01003FB60FB680A4BD3F83E
:108778008C30094A43F01003C2F88C30064BD3F80A
:108788008C30054A23F01003C2F88C3000BF143730
:10879800BD465DF8047B70470044025880B588B038
:1087A80002AFBA601A460346FB810B46BB811346EB
:1087B800FB8000237B61FB88012B12D8F989B889DB
:1087C800FB88BA6813441B780093034615221048A7
:1087D80004F0E0F90346002B14D06FF007037B6127
:1087E80010E0F989F888BB89BA68019200930346BA
:1087F8003922074804F0F0F90346002B02D06FF045
:1088080007037B617B6918461837BD4680BD00BFEA
:108818002017002480B58AB004AFBA601A46034610
:10882800FB810B46BB811346FB8000237B61F989E2
:10883800F888BB89BA68029201930623009303461D
:10884800BA68074804F060FA0346002B02D06FF0BC
:1088580007037B617B6918461837BD4680BD00BF9A
:108868002017002480B588B000AF786039600023F5
:108878003B811F4B7B611F4BFB601F4B3B6107F12B
:10888800080319461D48F9F7A3FD0346002B03D03A
:108898006FF00703FB6125E0194B184A1A60184B63
:1088A8001B6807F1180211461846FAF795FB0346AC
:1088B800002B03D06FF00403FB6113E0114B124A45
:1088C8001A60104B1B681B680D4A10683A68796873
:1088D80098470346002B03D06FF00403FB6101E0C7
:1088E8000023FB61FB6918462037BD4680BD00BFE9
:1088F8005D710008A58700081D880008AC120024D7
:10890800801200247C1200240000002480B584B06A
:1089180000AF78607B68002B03D06FF00103FB6029
:1089280033E01C4800F09AF81A4800F037F803467C
:10893800002B03D04FF0FF33FB6026E0164B0822D4
:108948001A60154B03225A60134B40F203629A6077
:10895800114B0022DA60104B00221A610E4B3022B4
:108968005A610D4B00229A610B4B4FF40072DA6189
:1089780009490848F9F721FC0346002B03D06FF09A
:108988000403FB6001E00023FB60FB681846103716
:10899800BD4680BDA4170024CC12002480B58AB03F
:1089A80000AF78607B68204A1A607B6801225A60B1
:1089B8007B6801229A607B680422DA607B68202247
:1089C8001A617B6840225A617B684FF4C0729A61D1
:1089D8007B680022DA617B684FF400621A627B6868
:1089E8004FF480525A62114B00229A620223FB60B4
:1089F80007233B6104237B610723BB610223FB61DF
:108A080002233B6202237B6207F10C031946786854
:108A18000AF090F90346002B01D0012300E000235F
:108A280018462837BD4680BD40410052A41700248F
:108A380080B582B000AF7860074A7B68342101FBBB
:108A480003F3134430331B68184605F077FE00BF64
:108A58000837BD4680BD00BFA417002480B590B07C
:108A680000AF78607F4BD3F8D4307E4A43F480530C
:108A7800C2F8D4307B4BD3F8D43003F48053BB62B4
:108A8800BB6A784BD3F8D430764A43F00103C2F876
:108A9800D430744BD3F8D43003F001037B627B6A83
:108AA800704BD3F8E0306F4A43F00803C2F8E03067
:108AB8006C4BD3F8E03003F008033B623B6A694B28
:108AC800D3F8E030674A43F01003C2F8E030654B52
:108AD800D3F8E03003F01003FB61FB69614BD3F876
:108AE800E030604A43F02003C2F8E0305D4BD3F831
:108AF800E03003F02003BB61BB695A4BD3F8E03088
:108B0800584A43F04003C2F8E030564BD3F8E030FF
:108B180003F040037B617B69524BD3F8E030514A44
:108B280043F08003C2F8E0304E4BD3F8E03003F056
:108B380080033B613B694B4BD3F8E030494A43F42F
:108B48008073C2F8E030474BD3F8E03003F4807309
:108B5800FB60FB6802233B6301237B630323BB6346
:108B68000C23FB634CF20373FB6207F12C031946D9
:108B78003D4804F0E9F94FF68373FB6207F12C03D3
:108B880019463A4804F0E0F94FF63F03FB6207F153
:108B98002C031946364804F0D7F948F23713FB621C
:108BA80007F12C031946334804F0CEF94FF6E07369
:108BB800FB6207F12C0319462F4804F0C5F940F26F
:108BC800FF63FB6207F12C0319462C4804F0BCF93B
:108BD8002B4B4FF080425A60294B4FF080529A60DD
:108BE800274B8022DA60264B00221A61244B40F280
:108BF80002225A61224B40F608029A61204B202239
:108C0800DA611F4B80221A621D4B4FF000725A62C4
:108C18001B4B0022DA621A4B00221A63184B80227F
:108C28009A62174B00225A63154B00229A63144B21
:108C3800144A1A607B68124A1A63114A7B681364E3
:108C48000F4805F023FD0E4805F0D4FC00220F2143
:108C58007A2000F068FA7A2000F07FFA00BF4037E7
:108C6800BD4680BD00440258000C0258001002584E
:108C78000014025800180258001C0258002002581C
:108C8800EC1200244000005280B400AF314BD3F8FE
:108C98008830304A43F47003C2F888302D4B1B6982
:108CA8002C4A43F0100313612B4B1B682A4A43F0EC
:108CB80001031360284B00221A61274B1A682649C2
:108CC800264B13400B60244B00229A61224B002252
:108CD800DA61214B00221A621F4B00229A621E4B56
:108CE8000022DA621C4B00221A631B4B00225A63D3
:108CF800194B00229A63184B0022DA63164B0022A4
:108D08001A64154B00225A64134B1B68124A23F449
:108D180080231360104B00221A66114B5B6A104ABD
:108D280043F4804353620F4B1A680F4B1340B3F15F
:108D3800005F02D20D4B01221A600D4B43F2D202A2
:108D48001A60044B4FF000629A6000BFBD465DF8A0
:108D5800047B704700ED00E0004402587FEDF6EA1E
:108D6800C00000580010005C0000FFFF088100519F
:108D78000040005280B582B000AF032000F0C8F96F
:108D880006F0EAFC0246154B9B691B0A03F00F0329
:108D98001349CB5C03F01F0322FA03F37B600F4BEC
:108DA8009B6903F00F030E4AD35C03F01F037A6834
:108DB80022FA03F30B4A13600B4A7B6813600F20F7
:108DC80000F01CF80346002B01D0012302E000F05C
:108DD8000DF8002318460837BD4680BD00440258E8
:108DE800F4600108F8000024F400002480B400AF07
:108DF80000BFBD465DF8047B7047000080B582B0B7
:108E080000AF7860154B1B78002B01D1012321E0BE
:108E1800134B1A68114B1B7819464FF47A73B3FB3E
:108E2800F1F3B2FBF3F3184600F0B3F90346002B55
:108E380001D001230EE07B680F2B0AD80022796845
:108E48004FF0FF3000F06FF9064A7B68136000238B
:108E580000E0012318460837BD4680BD0001002404
:108E6800F4000024FC00002480B400AF064B1B78FB
:108E78001A46064B1B681344044A136000BFBD46DC
:108E88005DF8047B704700BF00010024D817002458
:108E980080B400AF034B1B681846BD465DF8047BE1
:108EA800704700BFD817002480B584B000AF786041
:108EB800FFF7EEFFB8607B68FB60FB68B3F1FF3F2C
:108EC80005D00A4B1B781A46FB681344FB6000BFA9
:108ED800FFF7DEFF0246BB68D31AFA689A42F7D852
:108EE80000BF00BF1037BD4680BD00BF0001002491
:108EF80080B400AF034B1B681B0C1846BD465DF8D9
:108F0800047B70470010005C80B400AF054B1B6AFF
:108F1800044A43F00103136200BFBD465DF8047BB9
:108F2800704700BF0004005880B485B000AF786077
:108F38007B6803F00703FB600B4BDB68BB60BA6818
:108F48004FF6FF031340BB60FB681A02BB681A4365
:108F5800064B1343BB60044ABB68D36000BF143799
:108F6800BD465DF8047B704700ED00E00000FA059F
:108F780080B400AF044BDB681B0A03F007031846F4
:108F8800BD465DF8047B704700ED00E080B483B017
:108F980000AF0346FB80B7F90630002B0BDBFB88DC
:108FA80003F01F020749B7F906305B09012000FAF0
:108FB80002F241F8232000BF0C37BD465DF8047B60
:108FC800704700BF00E100E080B483B000AF034603
:108FD800FB80B7F90630002B12DBFB8803F01F0279
:108FE8000A49B7F906305B09012000FA02F220337A
:108FF80041F82320BFF34F8F00BFBFF36F8F00BF2F
:1090080000BF0C37BD465DF8047B704700E100E007
:1090180080B483B000AF03463960FB80B7F90630EF
:10902800002B0ADB3B68DAB20C49B7F906301201AB
:10903800D2B20B4483F800230AE03B68DAB208494D
:10904800FB8803F00F03043B1201D2B20B441A76DB
:1090580000BF0C37BD465DF8047B704700E100E0B7
:1090680000ED00E080B489B000AFF860B9607A60C4
:10907800FB6803F00703FB61FB69C3F10703042BDB
:1090880028BF0423BB61FB690433062B02D9FB69A3
:10909800033B00E000237B614FF0FF32BB6902FA1B
:1090A80003F3DA43BB681A407B699A404FF0FF31FB
:1090B8007B6901FA03F3D9437B680B4013431846D5
:1090C8002437BD465DF8047B7047000080B582B048
:1090D80000AF78607B68013BB3F1807F01D3012347
:1090E8000FE00A4A7B68013B53600F214FF0FF30C5
:1090F800FFF78EFF054B00229A60044B07221A6087
:10910800002318460837BD4680BD00BF10E000E0C8
:1091180080B582B000AF78607868FFF705FF00BFC0
:109128000837BD4680BD80B586B000AF0346B9603C
:109138007A60FB81FFF71CFF78617A68B968786903
:10914800FFF790FF0246B7F90E3011461846FFF7B1
:109158005FFF00BF1837BD4680BD80B582B000AF45
:109168000346FB80B7F906301846FFF70FFF00BF2C
:109178000837BD4680BD80B582B000AF0346FB808E
:10918800B7F906301846FFF71FFF00BF0837BD467E
:1091980080BD80B582B000AF78607868FFF796FF31
:1091A800034618460837BD4680BD000080B400AFAE
:1091B800BFF35F8F00BF074B5B6A064A23F4803317
:1091C8005362054B00225A6000BFBD465DF8047B20
:1091D800704700BF00ED00E090ED00E080B483B080
:1091E80000AF78600B4A7B6843F0010353600A4B79
:1091F8005B6A094A43F480335362BFF34F8F00BF61
:10920800BFF36F8F00BF00BF0C37BD465DF8047B0E
:10921800704700BF90ED00E000ED00E080B483B03F
:1092280000AF78607B685A781D4B9A607B681B7822
:10923800002B29D01A4A7B685B68D3607B681B7B4C
:109248001A077B68DB7A1B061A437B689B7ADB0468
:109258001A437B685B7B9B041A437B689B7B5B049C
:109268001A437B68DB7B1B041A437B685B7A1B020F
:109278001A437B681B7A5B0013437A68127811469D
:10928800074A0B43136105E0054B0022DA60044BE3
:1092980000221A6100BF0C37BD465DF8047B704799
:1092A80090ED00E080B400AF074B1B681B0903F08A
:1092B8000F03072B01D1032300E001231846BD4605
:1092C8005DF8047B704700BF00ED00E080B586B014
:1092D80000AF7860FFF7DCFD38617B68002B01D1B7
:1092E800012316E37B681B68664A93424AD07B6871
:1092F8001B68654A934245D07B681B68634A934262
:1093080040D07B681B68624A93423BD07B681B68ED
:10931800604A934236D07B681B685F4A934231D0DB
:109328007B681B685D4A93422CD07B681B685C4A4B
:10933800934227D07B681B685A4A934222D07B68A5
:109348001B68594A93421DD07B681B68574A934251
:1093580018D07B681B68564A934213D07B681B68F9
:10936800544A93420ED07B681B68534A934209D0F3
:109378007B681B68514A934204D07B681B68504A3B
:10938800934201D1012300E00023002B00F03B8130
:109398007B68002283F834207B68022283F835201A
:1093A8007B681B68374A93424AD07B681B68364AF9
:1093B800934245D07B681B68344A934240D07B680F
:1093C8001B68334A93423BD07B681B68314A9342FF
:1093D80036D07B681B68304A934231D07B681B6863
:1093E8002E4A93422CD07B681B682D4A934227D083
:1093F8007B681B682B4A934222D07B681B682A4AE9
:1094080093421DD07B681B68284A934218D07B681A
:109418001B68274A934213D07B681B68254A9342EE
:109428000ED07B681B68244A934209D07B681B686E
:10943800224A934204D07B681B68214A934208D190
:109448007B681B681A687B681B6822F001021A6037
:1094580007E07B681B681A687B681B6822F00102BA
:109468001A602FE0FFF714FD02463B69D31A052B5B
:1094780028D97B6820225A657B68032283F8352027
:10948800012346E21000024028000240400002404A
:10949800580002407000024088000240A0000240CC
:1094A800B800024010040240280402404004024070
:1094B800580402407004024088040240A00402409C
:1094C800B80402407B681B681B6803F00103002B8B
:1094D800C8D17B681B681B687B617A69834B134022
:1094E8007B617B689A687B68DB681A437B681B69C9
:1094F8001A437B685B691A437B689B691A437B68DC
:10950800DB691A437B681B6A13437A6913437B61DF
:109518007B685B6A042B07D17B68DA6A7B681B6B04
:1095280013437A6913437B61714B1A68714B13407B
:10953800B3F1005F28D37B685B68282B03D97B686D
:109548005B682E2B17D97B685B683E2B03D97B6839
:109558005B68422B0FD97B685B68462B03D97B6815
:109568005B68482B07D97B685B684E2B05D97B68FD
:109578005B68522B01D8012300E00023002B03D0A5
:109588007B6943F480137B617B681B687A691A6086
:109598007B681B685B697B617B6923F007037B61E0
:1095A8007B685B6A7A6913437B617B685B6A042B1F
:1095B80017D17B689B6A7A6913437B617B68DB6A96
:1095C800002B0ED0786802F0AFFA0346002B08D0C3
:1095D8007B6840225A657B68012283F83520012385
:1095E80097E17B681B687A695A61786802F0EAF942
:1095F8000346BB607B68DB6D03F01F033F229A4084
:10960800BB689A60CDE07B681B683B4A934222D0D6
:109618007B681B68394A93421DD07B681B68384AAF
:10962800934218D07B681B68364A934213D07B68F4
:109638001B68354A93420ED07B681B68334A9342B5
:1096480009D07B681B68324A934204D07B681B6848
:10965800304A934201D1012300E00023002B00F09F
:1096680097807B681B68244A934221D07B681B68DB
:10967800224A93421CD07B681B68214A934217D028
:109688007B681B681F4A934212D07B681B681E4A7E
:1096980093420DD07B681B681C4A934208D07B68B4
:1096A8001B681B4A934203D07B681B68194A934284
:1096B80000BF7B68002283F834207B68022283F88D
:1096C80035207B681B681B687B617A69124B1340E5
:1096D8007B617B689B68402B20D07B689B68802BD4
:1096E80002D14FF480431AE0002318E03F8010FEB7
:1096F8000010005C0000FFFF085402581C54025878
:109708003054025844540258585402586C54025861
:1097180080540258945402580F00FEFF10237A68B0
:10972800D268D2081A437B681B69DB081A437B6836
:109738005B69DB081A437B689B69DB081A437B6813
:10974800DB69DB081A437B681B6A1B0913437A69C8
:1097580013437B617B681B687A691A607B681B68A6
:109768001A466E4B13446E4AA2FB03231B099A0048
:109778007B68DA65786802F025F90346FB607B6848
:10978800DB6D03F01F0301229A40FB685A6008E072
:109798007B6840225A657B68032283F835200123C1
:1097A800B7E07B681B685F4A934272D07B681B688E
:1097B8005D4A93426DD07B681B685C4A934268D0CF
:1097C8007B681B685A4A934263D07B681B68594A76
:1097D80093425ED07B681B68574A934259D07B6896
:1097E8001B68564A934254D07B681B68544A93427C
:1097F8004FD07B681B68534A93424AD07B681B68EA
:10980800514A934245D07B681B68504A934240D0E6
:109818007B681B684E4A93423BD07B681B684D4A65
:10982800934236D07B681B684B4A934231D07B68A1
:109838001B684A4A93422CD07B681B68484A93426B
:1098480027D07B681B68474A934222D07B681B68F5
:10985800454A93421DD07B681B68444A934218D0FE
:109868007B681B68424A934213D07B681B68414A55
:1098780093420ED07B681B683F4A934209D07B68AD
:109888001B683E4A934204D07B681B683C4A93425B
:1098980001D1012300E00023002B32D0786802F0C8
:1098A800BFF97B689B68802B02D17B6800225A60D5
:1098B8007B685A687B681B6ED2B21A607B685B6EE5
:1098C8007A68926E5A607B685B68002B10D07B6860
:1098D8005B68082B0CD8786802F03CFA7B68DB6E72
:1098E80000221A607B681B6F7A68526F5A6008E022
:1098F8007B680022DA667B6800221A677B68002290
:109908005A677B6800225A657B68012283F83520F4
:10991800002318461837BD4680BD00BFF8ABFDA729
:10992800CDCCCCCC100002402800024040000240C0
:10993800580002407000024088000240A000024027
:10994800B8000240100402402804024040040240CB
:10995800580402407004024088040240A0040240F7
:10996800B8040240085402581C5402583054025893
:1099780044540258585402586C540258805402589F
:109988009454025880B584B000AF78607B68002B8F
:1099980001D10123A8E17B681B68824A93424AD01F
:1099A8007B681B68804A934245D07B681B687F4A66
:1099B800934240D07B681B687D4A93423BD07B68CA
:1099C8001B687C4A934236D07B681B687A4A93426C
:1099D80031D07B681B68794A93422CD07B681B681E
:1099E800774A934227D07B681B68764A934222D0F5
:1099F8007B681B68744A93421DD07B681B68734A56
:109A0800934218D07B681B68714A934213D07B68D5
:109A18001B68704A93420ED07B681B686E4A93425B
:109A280009D07B681B686D4A934204D07B681B6829
:109A38006B4A934208D17B681B681A687B681B686D
:109A480022F001021A6007E07B681B681A687B68CD
:109A58001B6822F001021A607B681B68514A934216
:109A68004AD07B681B68504A934245D07B681B6884
:109A78004E4A934240D07B681B684D4A93423BD084
:109A88007B681B684B4A934236D07B681B684A4AFE
:109A9800934231D07B681B68484A93422CD07B683C
:109AA8001B68474A934227D07B681B68454A934204
:109AB80022D07B681B68444A93421DD07B681B6890
:109AC800424A934218D07B681B68414A934213D09C
:109AD8007B681B683F4A93420ED07B681B683E4AEE
:109AE800934209D07B681B683C4A934204D07B6848
:109AF8001B683B4A934201D1012300E00023002B5D
:109B080025D07B681B6800221A607B681B680022CE
:109B18005A607B681B6800229A607B681B68002279
:109B2800DA607B681B6800221A617B681B68212247
:109B38005A61786801F046FF0346BB607B68DB6DBD
:109B480003F01F033F229A40BB689A6081E07B685C
:109B58001B68244A934222D07B681B68224A93429E
:109B68001DD07B681B68214A934218D07B681B680C
:109B78001F4A934213D07B681B681E4A93420ED03B
:109B88007B681B681C4A934209D07B681B681B4A88
:109B9800934204D07B681B68194A934232D101234F
:109BA80031E000BF1000024028000240400002409F
:109BB800580002407000024088000240A0000240A5
:109BC800B800024010040240280402404004024049
:109BD800580402407004024088040240A004024075
:109BE800B8040240085402581C5402583054025811
:109BF80044540258585402586C540258805402581D
:109C0800945402580023002B21D07B681B68002243
:109C18001A607B681B6800225A607B681B680022F8
:109C28009A607B681B680022DA607B681B680022E8
:109C38001A61786801F0C6FE0346FB607B68DB6D3D
:109C480003F01F0301229A40FB685A6001E00123D8
:109C58004AE0786801F0E4FF7B681B6E002B08D0AF
:109C68007B681B6E00221A607B685B6E7A68926E56
:109C78005A607B685B68002B0FD07B685B68082B99
:109C88000BD8786802F066F87B68DB6E00221A60F1
:109C98007B681B6F7A68526F5A607B680022DA66AD
:109CA8007B6800221A677B6800225A677B6800225B
:109CB800DA637B6800221A647B6800225A647B6836
:109CC80000229A647B680022DA647B6800221A65A5
:109CD8007B6800225A657B68002283F835207B6800
:109CE800002283F83420002318461037BD4680BD73
:109CF80080B586B000AFF860B9607A603B60002339
:109D0800FB75FB68002B01D1012326E2FB6893F861
:109D18003430012B01D102231FE2FB68012283F8B2
:109D28003420FB6893F83530DBB2012B40F00A820F
:109D3800FB68022283F83520FB6800225A65FB681D
:109D48001B68684A93424AD0FB681B68664A93427C
:109D580045D0FB681B68654A934240D0FB681B6886
:109D6800634A93423BD0FB681B68624A934236D0F1
:109D7800FB681B68604A934231D0FB681B685F4AE6
:109D880093422CD0FB681B685D4A934227D0FB683E
:109D98001B685C4A934222D0FB681B685A4A93426C
:109DA8001DD0FB681B68594A934218D0FB681B6892
:109DB800574A934213D0FB681B68564A93420ED009
:109DC800FB681B68544A934209D0FB681B68534AD6
:109DD800934204D0FB681B68514A934208D1FB6840
:109DE8001B681A68FB681B6822F001021A6007E00A
:109DF800FB681B681A68FB681B6822F001021A607E
:109E08003B687A68B968F86801F030FCFB681B6841
:109E1800344A93424AD0FB681B68334A934245D080
:109E2800FB681B68314A934240D0FB681B68304A84
:109E380093423BD0FB681B682E4A934236D0FB689E
:109E48001B682D4A934231D0FB681B682B4A93420A
:109E58002CD0FB681B682A4A934227D0FB681B68F2
:109E6800284A934222D0FB681B68274A93421DD098
:109E7800FB681B68254A934218D0FB681B68244A74
:109E8800934213D0FB681B68224A93420ED0FB68AA
:109E98001B68214A934209D0FB681B681F4A9342FA
:109EA80004D0FB681B681E4A934201D1012300E0DD
:109EB8000023002B36D0FB681B681B6823F01E02AA
:109EC800FB681B6842F016021A60FB681B6C002BCB
:109ED8003ED0FB681B681A68FB681B6842F00802E2
:109EE8001A6035E01000024028000240400002409D
:109EF800580002407000024088000240A000024062
:109F0800B800024010040240280402404004024005
:109F1800580402407004024088040240A004024031
:109F2800B8040240FB681B681B6823F00E02FB683C
:109F38001B6842F00A021A60FB681B6C002B07D0F2
:109F4800FB681B681A68FB681B6842F004021A6009
:109F5800FB681B68834A934272D0FB681B68824A7D
:109F680093426DD0FB681B68804A934268D0FB68B7
:109F78001B687F4A934263D0FB681B687D4A934203
:109F88005ED0FB681B687C4A934259D0FB681B680B
:109F98007A4A934254D0FB681B68794A93424FD05F
:109FA800FB681B68774A93424AD0FB681B68764A6D
:109FB800934245D0FB681B68744A934240D0FB68C3
:109FC8001B68734A93423BD0FB681B68714A9342F3
:109FD80036D0FB681B68704A934231D0FB681B6817
:109FE8006E4A93422CD0FB681B686D4A934227D077
:109FF800FB681B686B4A934222D0FB681B686A4A5D
:10A0080093421DD0FB681B68684A934218D0FB68CE
:10A018001B68674A934213D0FB681B68654A9342E2
:10A028000ED0FB681B68644A934209D0FB681B6822
:10A03800624A934204D0FB681B68614A934201D18B
:10A04800012300E00023002B1AD0FB681B6E1B685D
:10A0580003F48033002B07D0FB681B6E1A68FB687B
:10A068001B6E42F480721A60FB68DB6E002B07D00F
:10A07800FB68DB6E1A68FB68DB6E42F480721A605C
:10A08800FB681B68374A93424AD0FB681B68364A0C
:10A09800934245D0FB681B68344A934240D0FB6822
:10A0A8001B68334A93423BD0FB681B68314A934292
:10A0B80036D0FB681B68304A934231D0FB681B6876
:10A0C8002E4A93422CD0FB681B682D4A934227D016
:10A0D800FB681B682B4A934222D0FB681B682A4AFC
:10A0E80093421DD0FB681B68284A934218D0FB682E
:10A0F8001B68274A934213D0FB681B68254A934282
:10A108000ED0FB681B68244A934209D0FB681B6881
:10A11800224A934204D0FB681B68214A934208D123
:10A12800FB681B681A68FB681B6842F001021A602A
:10A1380012E0FB681B681A68FB681B6842F00102A2
:10A148001A6009E0FB68002283F83420FB684FF4AA
:10A1580000625A650123FB75FB7D18461837BD461A
:10A1680080BD00BF100002402800024040000240AD
:10A17800580002407000024088000240A0000240DF
:10A18800B800024010040240280402404004024083
:10A19800580402407004024088040240A0040240AF
:10A1A800B8040240085402581C540258305402584B
:10A1B80044540258585402586C5402588054025857
:10A1C8009454025880B586B000AF7860FEF760FE00
:10A1D80038617B68002B01D10123DCE27B6893F8AE
:10A1E8003530DBB2022B08D07B6880225A657B6849
:10A1F800002283F834200123CDE27B681B68764A6D
:10A2080093424AD07B681B68744A934245D07B6866
:10A218001B68734A934240D07B681B68714A93421B
:10A228003BD07B681B68704A934236D07B681B68BA
:10A238006E4A934231D07B681B686D4A93422CD09A
:10A248007B681B686B4A934227D07B681B686A4A05
:10A25800934222D07B681B68684A93421DD07B6872
:10A268001B68674A934218D07B681B68654A93420B
:10A2780013D07B681B68644A93420ED07B681B68C6
:10A28800624A934209D07B681B68614A934204D0B2
:10A298007B681B685F4A934201D1012300E00023D9
:10A2A800002B13D07B681B681A687B681B6822F038
:10A2B8001E021A607B681B685A697B681B6822F05B
:10A2C80080025A617B681B687B610AE07B681B68B7
:10A2D8001A687B681B6822F00E021A607B681B688C
:10A2E8007B617B681B683C4A934272D07B681B6821
:10A2F8003A4A93426DD07B681B68394A934268D0CA
:10A308007B681B68374A934263D07B681B68364A70
:10A3180093425ED07B681B68344A934259D07B686D
:10A328001B68334A934254D07B681B68314A934276
:10A338004FD07B681B68304A93424AD07B681B68C1
:10A348002E4A934245D07B681B682D4A934240D0E1
:10A358007B681B682B4A93423BD07B681B682A4A60
:10A36800934236D07B681B68284A934231D07B6879
:10A378001B68274A93422CD07B681B68254A934266
:10A3880027D07B681B68244A934222D07B681B68CD
:10A39800224A93421DD07B681B68214A934218D0F9
:10A3A8007B681B681F4A934213D07B681B681E4A50
:10A3B80093420ED07B681B681C4A934209D07B6885
:10A3C8001B681B4A934204D07B681B68194A934256
:10A3D80032D1012331E000BF1000024028000240C2
:10A3E80040000240580002407000024088000240CD
:10A3F800A0000240B80002401004024028040240B5
:10A40800400402405804024070040240880402409C
:10A41800A0040240B8040240085402581C540258D0
:10A428003054025844540258585402586C54025834
:10A4380080540258945402580023002B07D07B689C
:10A448001B6E1A687B681B6E22F480721A607B6828
:10A458001B686D4A93424AD07B681B686B4A9342DB
:10A4680045D07B681B686A4A934240D07B681B686A
:10A47800684A93423BD07B681B68674A934236D050
:10A488007B681B68654A934231D07B681B68644AC5
:10A4980093422CD07B681B68624A934227D07B6822
:10A4A8001B68614A934222D07B681B685F4A9342CB
:10A4B8001DD07B681B685E4A934218D07B681B6876
:10A4C8005C4A934213D07B681B685B4A93420ED068
:10A4D8007B681B68594A934209D07B681B68584AB5
:10A4E800934204D07B681B68564A934208D17B6824
:10A4F8001B681A687B681B6822F001021A6007E073
:10A508007B681B681A687B681B6822F001021A6066
:10A5180013E0FEF7BDFC02463B69D31A052B0CD9A4
:10A528007B6820225A657B68002283F834207B6888
:10A53800032283F8352001232DE17B691B6803F092
:10A548000103002BE5D17B681B682F4A93424AD050
:10A558007B681B682D4A934245D07B681B682C4A50
:10A56800934240D07B681B682A4A93423BD07B6861
:10A578001B68294A934236D07B681B68274A934256
:10A5880031D07B681B68264A93422CD07B681B68B5
:10A59800244A934227D07B681B68234A934222D0DF
:10A5A8007B681B68214A93421DD07B681B68204A40
:10A5B800934218D07B681B681E4A934213D07B686D
:10A5C8001B681D4A93420ED07B681B681B4A934246
:10A5D80009D07B681B681A4A934204D07B681B68C1
:10A5E800184A934201D1012300E00023002B2BD00D
:10A5F8007B689B6DBB607B68DB6D03F01F033F22AC
:10A608009A40BB689A602AE0100002402800024085
:10A61800400002405800024070000240880002409A
:10A62800A0000240B8000240100402402804024082
:10A63800400402405804024070040240880402406A
:10A64800A0040240B80402407B689B6DFB607B68F5
:10A65800DB6D03F01F0301229A40FB685A607B6898
:10A668001B684F4A934272D07B681B684D4A9342DD
:10A678006DD07B681B684C4A934268D07B681B6826
:10A688004A4A934263D07B681B68494A93425ED02A
:10A698007B681B68474A934259D07B681B68464AC7
:10A6A800934254D07B681B68444A93424FD07B68DE
:10A6B8001B68434A93424AD07B681B68414A9342CD
:10A6C80045D07B681B68404A934240D07B681B6832
:10A6D8003E4A93423BD07B681B683D4A934236D042
:10A6E8007B681B683B4A934231D07B681B683A4AB7
:10A6F80093422CD07B681B68384A934227D07B68EA
:10A708001B68374A934222D07B681B68354A9342BC
:10A718001DD07B681B68344A934218D07B681B683D
:10A72800324A934213D07B681B68314A93420ED059
:10A738007B681B682F4A934209D07B681B682E4AA6
:10A74800934204D07B681B682C4A934201D10123B1
:10A7580000E00023002B15D07B685B6E7A68926E50
:10A768005A607B68DB6E002B0CD07B68DB6E1A6846
:10A778007B68DB6E22F480721A607B681B6F7A68D4
:10A78800526F5A607B68002283F834207B6801226C
:10A7980083F83520002318461837BD4680BD00BF12
:10A7A80010000240280002404000024058000240C9
:10A7B8007000024088000240A0000240B800024039
:10A7C8001004024028040240400402405804024099
:10A7D8007004024088040240A0040240B804024009
:10A7E800085402581C540258305402584454025811
:10A7F800585402586C5402588054025894540258C1
:10A8080080B58AB000AF78600023FB60674B1B6897
:10A81800674AA2FB03239B0A7B627B689B6D3B62B2
:10A828007B689B6DFB613B6A1B68BB61FB691B68AE
:10A838007B617B681B685F4A93424AD07B681B68D0
:10A848005D4A934245D07B681B685C4A934240D07E
:10A858007B681B685A4A93423BD07B681B68594AFD
:10A86800934236D07B681B68574A934231D07B6845
:10A878001B68564A93422CD07B681B68544A934203
:10A8880027D07B681B68534A934222D07B681B6899
:10A89800514A93421DD07B681B68504A934218D096
:10A8A8007B681B684E4A934213D07B681B684D4AED
:10A8B80093420ED07B681B684B4A934209D07B6851
:10A8C8001B684A4A934204D07B681B68484A9342F3
:10A8D80001D1012300E00023002B00F02B847B68CA
:10A8E800DB6D03F01F0308229A40BB691340002B5D
:10A8F80000F0A2807B681B682E4A93424AD07B688E
:10A908001B682D4A934245D07B681B682B4A9342AB
:10A9180040D07B681B682A4A93423BD07B681B68FF
:10A92800284A934236D07B681B68274A934231D025
:10A938007B681B68254A93422CD07B681B68244A95
:10A94800934227D07B681B68224A934222D07B68B7
:10A958001B68214A93421DD07B681B681F4A93429B
:10A9680018D07B681B681E4A934213D07B681B680B
:10A978001C4A93420ED07B681B681B4A934209D03D
:10A988007B681B68194A934204D07B681B68184A85
:10A9980093422FD17B681B681B6803F00403002BCC
:10A9A80014BF01230023DBB22EE000BFF400002413
:10A9B800B5814E1B100002402800024040000240B2
:10A9C800580002407000024088000240A000024087
:10A9D800B80002401004024028040240400402402B
:10A9E800580402407004024088040240A004024057
:10A9F800B80402407B681B681B6803F00803002B3F
:10AA080014BF01230023DBB2002B15D07B681B6821
:10AA18001A687B681B6822F004021A607B68DB6D89
:10AA280003F01F0308229A403B6A9A607B685B6DBB
:10AA380043F001027B685A657B68DB6D03F01F03F6
:10AA4800BA6922FA03F303F00103002B6ED07B6886
:10AA58001B68694A93424AD07B681B68674A9342DD
:10AA680045D07B681B68664A934240D07B681B6868
:10AA7800644A93423BD07B681B68634A934236D052
:10AA88007B681B68614A934231D07B681B68604AC7
:10AA980093422CD07B681B685E4A934227D07B6820
:10AAA8001B685D4A934222D07B681B685B4A9342CD
:10AAB8001DD07B681B685A4A934218D07B681B6874
:10AAC800584A934213D07B681B68574A93420ED06A
:10AAD8007B681B68554A934209D07B681B68544AB7
:10AAE800934204D07B681B68524A93420AD17B6820
:10AAF8001B685B6903F08003002B14BF012300234C
:10AB0800DBB203E07B681B681B680023002B0DD0B9
:10AB18007B68DB6D03F01F0301229A403B6A9A6051
:10AB28007B685B6D43F002027B685A657B68DB6D6E
:10AB380003F01F0304229A40BB691340002B00F066
:10AB48008F807B681B682C4A93424AD07B681B68BD
:10AB58002A4A934245D07B681B68294A934240D0D1
:10AB68007B681B68274A93423BD07B681B68264A50
:10AB7800934236D07B681B68244A934231D07B6865
:10AB88001B68234A93422CD07B681B68214A934256
:10AB980027D07B681B68204A934222D07B681B68B9
:10ABA8001E4A93421DD07B681B681D4A934218D0E9
:10ABB8007B681B681B4A934213D07B681B681A4A40
:10ABC80093420ED07B681B68184A934209D07B6871
:10ABD8001B68174A934204D07B681B68154A934246
:10ABE8002AD17B681B681B6803F00203002B14BF83
:10ABF80001230023DBB223E01000024028000240BA
:10AC080040000240580002407000024088000240A4
:10AC1800A0000240B800024010040240280402408C
:10AC28004004024058040240700402408804024074
:10AC3800A0040240B80402407B681B681B6800231C
:10AC4800002B0DD07B68DB6D03F01F0304229A40B4
:10AC58003B6A9A607B685B6D43F004027B685A65C7
:10AC68007B68DB6D03F01F0310229A40BB69134019
:10AC7800002B00F0A6807B681B68854A93424AD067
:10AC88007B681B68834A934245D07B681B68824A6D
:10AC9800934240D07B681B68804A93423BD07B68D4
:10ACA8001B687F4A934236D07B681B687D4A934273
:10ACB80031D07B681B687C4A93422CD07B681B6828
:10ACC8007A4A934227D07B681B68794A934222D0FC
:10ACD8007B681B68774A93421DD07B681B68764A5D
:10ACE800934218D07B681B68744A934213D07B68E0
:10ACF8001B68734A93420ED07B681B68714A934263
:10AD080009D07B681B68704A934204D07B681B6833
:10AD18006E4A93420AD17B681B681B6803F00803DC
:10AD2800002B14BF01230023DBB209E07B681B68FA
:10AD38001B6803F00403002B14BF01230023DBB2BC
:10AD4800002B3ED07B68DB6D03F01F0310229A4076
:10AD58003B6A9A607B681B681B6803F48023002B9E
:10AD680018D07B681B681B6803F40023002B08D1EC
:10AD78007B681B6C002B24D07B681B6C7868984719
:10AD88001FE07B689B6C002B1BD07B689B6C7868F2
:10AD9800984716E07B681B681B6803F48073002BD8
:10ADA80007D17B681B681A687B681B6822F0080259
:10ADB8001A607B681B6C002B03D07B681B6C78685F
:10ADC80098477B68DB6D03F01F0320229A40BB691C
:10ADD8001340002B00F010817B681B682C4A9342BB
:10ADE8004AD07B681B682B4A934245D07B681B6816
:10ADF800294A934240D07B681B68284A93423BD03B
:10AE08007B681B68264A934236D07B681B68254AB4
:10AE1800934231D07B681B68234A93422CD07B68CD
:10AE28001B68224A934227D07B681B68204A9342BA
:10AE380022D07B681B681F4A93421DD07B681B6821
:10AE48001D4A934218D07B681B681C4A934213D052
:10AE58007B681B681A4A93420ED07B681B68194AA4
:10AE6800934209D07B681B68174A934204D07B68D9
:10AE78001B68164A93422BD17B681B681B6803F03A
:10AE88001003002B14BF01230023DBB22AE000BF0C
:10AE980010000240280002404000024058000240D2
:10AEA8007000024088000240A0000240B800024042
:10AEB80010040240280402404004024058040240A2
:10AEC8007004024088040240A0040240B804024012
:10AED8007B681B681B6803F00203002B14BF012367
:10AEE8000023DBB2002B00F087807B68DB6D03F06A
:10AEF8001F0320229A403B6A9A607B6893F835309A
:10AF0800DBB2042B39D17B681B681A687B681B6825
:10AF180022F016021A607B681B685A697B681B68F6
:10AF280022F080025A617B681B6C002B03D17B687E
:10AF38009B6C002B07D07B681B681A687B681B68B2
:10AF480022F008021A607B68DB6D03F01F033F22C2
:10AF58009A403B6A9A607B68002283F834207B68B9
:10AF6800012283F835207B681B6D002B00F04A8393
:10AF78007B681B6D7868984744E37B681B681B688F
:10AF880003F48023002B18D07B681B681B6803F42C
:10AF98000023002B08D17B685B6C002B2CD07B68CE
:10AFA8005B6C7868984727E07B68DB6B002B23D0C5
:10AFB8007B68DB6B786898471EE07B681B681B68BA
:10AFC80003F48073002B0FD17B681B681A687B68B9
:10AFD8001B6822F010021A607B68002283F8342074
:10AFE8007B68012283F835207B68DB6B002B03D05C
:10AFF8007B68DB6B786898477B685B6D002B00F09B
:10B0080006837B685B6D03F00103002B00F08880EA
:10B018007B68042283F835207B681B687A4A934250
:10B028004AD07B681B68794A934245D07B681B6885
:10B03800774A934240D07B681B68764A93423BD05C
:10B048007B681B68744A934236D07B681B68734AD6
:10B05800934231D07B681B68714A93422CD07B683D
:10B068001B68704A934227D07B681B686E4A9342DC
:10B0780022D07B681B686D4A93421DD07B681B6891
:10B088006B4A934218D07B681B686A4A934213D074
:10B098007B681B68684A93420ED07B681B68674AC6
:10B0A800934209D07B681B68654A934204D07B6849
:10B0B8001B68644A934208D17B681B681A687B68DE
:10B0C8001B6822F001021A6007E07B681B681A6897
:10B0D8007B681B6822F001021A60FB680133FB6081
:10B0E8007A6A9A4207D37B681B681B6803F00103DE
:10B0F800002BF2D100E000BF7B68002283F83420E7
:10B108007B681B681B6803F00103002B04D07B6875
:10B11800032283F8352003E07B68012283F8352079
:10B128007B68DB6C002B00F072827B68DB6C7868D4
:10B1380098476CE27B681B68434A934222D07B683D
:10B148001B68424A93421DD07B681B68404A934261
:10B1580018D07B681B683F4A934213D07B681B68F2
:10B168003D4A93420ED07B681B683C4A934209D003
:10B178007B681B683A4A934204D07B681B68394A4B
:10B18800934201D1012300E00023002B00F03F820D
:10B198007B681B681B683B617B68DB6D03F01F03E2
:10B1A80004229A407B691340002B00F0CD803B6954
:10B1B80003F00403002B00F0C7807B68DB6D03F00D
:10B1C8001F0304229A40FB695A603B6903F4004359
:10B1D800002B49D03B6903F48033002B09D17B68ED
:10B1E8009B6C002B00F010827B689B6C78689847FA
:10B1F8000AE27B681B6C002B00F006827B681B6CE4
:10B208007868984700E200BF10000240280002401A
:10B21800400002405800024070000240880002408E
:10B22800A0000240B8000240100402402804024076
:10B23800400402405804024070040240880402405E
:10B24800A0040240B8040240085402581C54025892
:10B258003054025844540258585402586C540258F6
:10B2680080540258945402583B6903F02003002B81
:10B2780060D17B681B688C4A93424AD07B681B6804
:10B288008A4A934245D07B681B68894A934240D0DA
:10B298007B681B68874A93423BD07B681B68864A59
:10B2A800934236D07B681B68844A934231D07B68CE
:10B2B8001B68834A93422CD07B681B68814A93425F
:10B2C80027D07B681B68804A934222D07B681B6822
:10B2D8007E4A93421DD07B681B687D4A934218D0F2
:10B2E8007B681B687B4A934213D07B681B687A4A49
:10B2F80093420ED07B681B68784A934209D07B68DA
:10B308001B68774A934204D07B681B68754A93424E
:10B3180008D17B681B681A687B681B6822F00802E2
:10B328001A6007E07B681B681A687B681B6822F054
:10B3380004021A607B681B6C002B00F065817B6837
:10B348001B6C786898475FE17B68DB6D03F01F032F
:10B3580002229A407B691340002B00F0C5803B69AC
:10B3680003F00203002B00F0BF807B68DB6D03F065
:10B378001F0302229A40FB695A603B6903F40043A9
:10B38800002B18D03B6903F48033002B09D17B686C
:10B398005B6C002B00F03A817B685B6C786898479F
:10B3A80034E17B68DB6B002B00F030817B68DB6B62
:10B3B800786898472AE13B6903F02003002B68D19D
:10B3C8007B681B68384A93424AD07B681B68374AB7
:10B3D800934245D07B681B68354A934240D07B68CE
:10B3E8001B68344A93423BD07B681B68324A9342BD
:10B3F80036D07B681B68314A934231D07B681B6822
:10B408002F4A93422CD07B681B682E4A934227D040
:10B418007B681B682C4A934222D07B681B682B4AA6
:10B4280093421DD07B681B68294A934218D07B68D9
:10B438001B68284A934213D07B681B68264A9342AC
:10B448000ED07B681B68254A934209D07B681B682D
:10B45800234A934204D07B681B68224A934208D14E
:10B468007B681B681A687B681B6822F014021A60E4
:10B4780007E07B681B681A687B681B6822F00A0271
:10B488001A607B68002283F834207B68012283F8E5
:10B4980035207B68DB6B002B00F0B8807B68DB6BAA
:10B4A80078689847B2E000BF1000024028000240C8
:10B4B80040000240580002407000024088000240EC
:10B4C800A0000240B80002401004024028040240D4
:10B4D80040040240580402407004024088040240BC
:10B4E800A0040240B80402407B68DB6D03F01F0330
:10B4F80008229A407B691340002B00F088803B6942
:10B5080003F00803002B00F082807B681B68414A27
:10B5180093424AD07B681B683F4A934245D07B6878
:10B528001B683E4A934240D07B681B683C4A934262
:10B538003BD07B681B683B4A934236D07B681B68CC
:10B54800394A934231D07B681B68384A93422CD0E1
:10B558007B681B68364A934227D07B681B68354A4C
:10B56800934222D07B681B68334A93421DD07B6884
:10B578001B68324A934218D07B681B68304A934252
:10B5880013D07B681B682F4A93420ED07B681B68D8
:10B598002D4A934209D07B681B682C4A934204D0F9
:10B5A8007B681B682A4A934208D17B681B681A6823
:10B5B8007B681B6822F01C021A6007E07B681B6826
:10B5C8001A687B681B6822F00E021A607B68DB6DC4
:10B5D80003F01F0301229A40FB695A607B6801222D
:10B5E8005A657B68002283F834207B68012283F83F
:10B5F80035207B68DB6C002B09D07B68DB6C7868B6
:10B60800984704E000BF02E000BF00E000BF283711
:10B61800BD4680BD100002402800024040000240A4
:10B62800580002407000024088000240A00002401A
:10B63800B8000240100402402804024040040240BE
:10B64800580402407004024088040240A0040240EA
:10B65800B804024080B483B000AF78607B685B6D4B
:10B6680018460C37BD465DF8047B704780B487B038
:10B6780000AFF860B9607A603B60FB689B6D7B61E6
:10B68800FB689B6D3B61FB681B68844A934272D0E0
:10B69800FB681B68824A93426DD0FB681B68814A2D
:10B6A800934268D0FB681B687F4A934263D0FB686B
:10B6B8001B687E4A93425ED0FB681B687C4A9342B3
:10B6C80059D0FB681B687B4A934254D0FB681B68BF
:10B6D800794A93424FD0FB681B68784A93424AD014
:10B6E800FB681B68764A934245D0FB681B68754A1D
:10B6F800934240D0FB681B68734A93423BD0FB6877
:10B708001B68724A934236D0FB681B68704A9342A2
:10B7180031D0FB681B686F4A93422CD0FB681B68CA
:10B728006D4A934227D0FB681B686C4A934222D02B
:10B73800FB681B686A4A93421DD0FB681B68694A0C
:10B74800934218D0FB681B68674A934213D0FB6882
:10B758001B68664A93420ED0FB681B68644A934292
:10B7680009D0FB681B68634A934204D0FB681B68D6
:10B77800614A934201D1012300E00023002B0DD040
:10B78800FB685B6EFA68926E5A60FB68DB6E002B92
:10B7980004D0FB681B6FFA68526F5A60FB681B681D
:10B7A8003E4A93424AD0FB681B683D4A934245D0C3
:10B7B800FB681B683B4A934240D0FB681B683A4AC7
:10B7C80093423BD0FB681B68384A934236D0FB68EB
:10B7D8001B68374A934231D0FB681B68354A93424D
:10B7E8002CD0FB681B68344A934227D0FB681B683F
:10B7F800324A934222D0FB681B68314A93421DD0DB
:10B80800FB681B682F4A934218D0FB681B682E4AB6
:10B81800934213D0FB681B682C4A93420ED0FB68F6
:10B828001B682B4A934209D0FB681B68294A93423C
:10B8380004D0FB681B68284A934201D1012300E029
:10B848000023002B5AD0FB68DB6D03F01F033F2257
:10B858009A407B699A60FB681B681A68FB681B68DA
:10B8680022F480221A60FB681B683A685A60FB68F9
:10B878009B68402B08D1FB681B687A689A60FB6854
:10B888001B68BA68DA6087E0FB681B68BA689A6068
:10B89800FB681B687A68DA607EE000BF100002402F
:10B8A8002800024040000240580002407000024058
:10B8B80088000240A0000240B80002401004024084
:10B8C8002804024040040240580402407004024028
:10B8D80088040240A0040240B804024008540258F8
:10B8E8001C540258305402584454025858540258B0
:10B8F8006C5402588054025894540258FB681B68D0
:10B90800284A934222D0FB681B68274A93421DD0DD
:10B91800FB681B68254A934218D0FB681B68244AB9
:10B92800934213D0FB681B68224A93420ED0FB68EF
:10B938001B68214A934209D0FB681B681F4A93423F
:10B9480004D0FB681B681E4A934201D1012300E022
:10B958000023002B20D0FB68DB6D03F01F030122BE
:10B968009A403B695A60FB681B683A685A60FB68F2
:10B978009B68402B08D1FB681B687A689A60FB6853
:10B988001B68BA68DA6007E0FB681B68BA689A60E7
:10B99800FB681B687A68DA6000BF1C37BD465DF833
:10B9A800047B7047085402581C54025830540258FB
:10B9B80044540258585402586C540258805402583F
:10B9C8009454025880B485B000AF78607B681B68D7
:10B9D800424A93424AD07B681B68414A934245D009
:10B9E8007B681B683F4A934240D07B681B683E4A8D
:10B9F80093423BD07B681B683C4A934236D07B68B5
:10BA08001B683B4A934231D07B681B68394A934292
:10BA18002CD07B681B68384A934227D07B681B6808
:10BA2800364A934222D07B681B68354A93421DD020
:10BA38007B681B68334A934218D07B681B68324A7C
:10BA4800934213D07B681B68304A93420ED07B68C0
:10BA58001B682F4A934209D07B681B682D4A934282
:10BA680004D07B681B682C4A934201D1012300E073
:10BA78000023002B24D07B681B68DBB2103B274ACD
:10BA8800A2FB03231B09FB60FB6803F00703244A9E
:10BA9800D35C1A467B68DA65FB68032B08D97B6898
:10BAA8001B681A461F4B13401A1D7B689A650DE0E8
:10BAB8007B681B681A461B4B13407A68936505E040
:10BAC8007B681B6823F0FF027B689A657B689B6D27
:10BAD80018461437BD465DF8047B704710000240D5
:10BAE8002800024040000240580002407000024016
:10BAF80088000240A0000240B80002401004024042
:10BB080028040240400402405804024070040240E5
:10BB180088040240A0040240B8040240ABAAAAAAC2
:10BB28000461010800FCFFFF80B485B000AF7860B5
:10BB38000023FB737B689B69002B20D17B689B6A81
:10BB4800032B58D801A252F823F000BF65BB0008A8
:10BB580077BB000865BB0008FFBB00087B68DB6A91
:10BB680003F08073002B48D00123FB7345E07B680A
:10BB7800DB6AB3F1C07F42D10123FB733FE07B68EE
:10BB88009B69B3F5005F23D17B689B6A032B38D888
:10BB980001A252F823F000BFB1BB0008B7BB0008F0
:10BBA800B1BB0008C9BB00080123FB7330E07B6808
:10BBB800DB6A03F08073002B25D00123FB7322E09E
:10BBC8007B68DB6AB3F1C07F1FD10123FB731CE0E4
:10BBD8007B689B6A022B02D9032B03D018E0012350
:10BBE800FB7315E07B68DB6A03F08073002B0ED0D3
:10BBF8000123FB730BE000BF0AE000BF08E000BFB1
:10BC080006E000BF04E000BF02E000BF00E000BFA4
:10BC1800FB7B18461437BD465DF8047B704700BFB0
:10BC280080B485B000AF78607B681B68BB607B68B8
:10BC38001B68384A934222D07B681B68364A934275
:10BC48001DD07B681B68354A934218D07B681B68F7
:10BC5800334A934213D07B681B68324A93420ED012
:10BC68007B681B68304A934209D07B681B682F4A5F
:10BC7800934204D07B681B682D4A934201D101236B
:10BC880000E00023002B1AD07B681B68DBB2083B5E
:10BC9800284AA2FB03231B09FB60FA68264B1344BE
:10BCA8009B001A467B681A667B68244A5A66FB68BA
:10BCB80003F01F0301229A407B689A6624E07B68A0
:10BCC8001B68DBB2103B1E4AA2FB03231B09FB6067
:10BCD800BB681C4A934206D8BB681B4A934202D9E8
:10BCE800FB680833FB60FA68184B13449B001A463C
:10BCF8007B681A667B68164A5A66FB6803F01F035E
:10BD080001229A407B689A6600BF1437BD465DF8E9
:10BD1800047B7047085402581C5402583054025887
:10BD280044540258585402586C54025880540258CB
:10BD380094540258CDCCCCCC0096001680580258AA
:10BD4800ABAAAAAAB80402400F040240008200105D
:10BD58008008024080B485B000AF78607B685B687B
:10BD6800DBB2FB60FB68002B4AD0FB68082B47D886
:10BD78007B681B68254A934222D07B681B68244A4B
:10BD880093421DD07B681B68224A934218D07B6877
:10BD98001B68214A934213D07B681B681F4A934251
:10BDA8000ED07B681B681E4A934209D07B681B68CB
:10BDB8001C4A934204D07B681B681B4A934201D1FA
:10BDC800012300E00023002B0AD0FA68174B134424
:10BDD8009B001A467B68DA667B68154A1A6709E091
:10BDE800FA68144B13449B001A467B68DA667B6832
:10BDF800114A1A67FB68013B01229A407B685A671F
:10BE080000BF1437BD465DF8047B704708540258DC
:10BE18001C5402583054025844540258585402587A
:10BE28006C54025880540258945402583F96001695
:10BE3800405902583F8200104009024080B582B044
:10BE480000AF78607B68002B01D101234FE07B684D
:10BE580093F86130DBB2002B06D17B68002283F8AF
:10BE68006020786800F04EF87B68022283F8612031
:10BE78007B681B681A68204B13407A6851687A6897
:10BE8800D26911437A6812680B4313607B681B6898
:10BE98005A6B1A4B13407A6891687A689269114311
:10BEA8007A6812680B4353637B681B681A6C144BDF
:10BEB80013407A68D1687A6812680B4313647B6808
:10BEC8001B685B6B23F440117B681B691A057B6850
:10BED8005B695B051A437B681B680A435A637B6886
:10BEE80000225A667B68012283F8612000231846E5
:10BEF8000837BD4680BD00BFBFFFF8FFF8FEFFFF53
:10BF08000000FFFF80B483B000AF786000BF0C373B
:10BF1800BD465DF8047B704780B586B002AFF86017
:10BF2800B9607A603B60FB6893F86030012B01D1FF
:10BF3800022318E0FB68012283F86020FB680222D4
:10BF480083F86120BB6900933B687A68B968F86830
:10BF580000F0AAF9FB681B681A68FB681B6842F0C6
:10BF680001021A60002318461037BD4680BD80B50F
:10BF780086B000AF786039600023FB607B681B687F
:10BF88001B6803F00103002B56D0FCF781FF786192
:10BF98004BE07B681B685B68FB60FB6803F0210370
:10BFA800002B23D0FB6803F02003002B05D07B680F
:10BFB8005B6E43F002027B685A66FB6803F001037C
:10BFC800002B05D07B685B6E43F001027B685A66E4
:10BFD8007B681B6821229A607B68042283F86120B1
:10BFE8007B68002283F860200123A5E03B68B3F159
:10BFF800FF3F1AD0FCF74CFF02467B69D31A3A6818
:10C008009A4202D33B68002B0FD17B685B6E43F0EA
:10C0180020027B685A667B68032283F861207B686C
:10C02800002283F86020032386E07B681B685B6836
:10C0380003F00203002BACD07B681B68DB6903F0BC
:10C0480020033B617B681B685B6A03F020033A6945
:10C0580013433B613B69002B61D0FCF719FF786102
:10C0680056E07B681B685B68FB60FB6803F029038C
:10C07800002B2ED0FB6803F00803002B05D07B684B
:10C088005B6E43F004027B685A66FB6803F020038A
:10C09800002B05D07B685B6E43F002027B685A6612
:10C0A800FB6803F00103002B05D07B685B6E43F04F
:10C0B80001027B685A667B681B6829229A607B6844
:10C0C800042283F861207B68002283F86020012322
:10C0D80032E03B68B3F1FF3F1AD0FCF7D9FE0246C5
:10C0E8007B69D31A3A689A4202D33B68002B0FD176
:10C0F8007B685B6E43F020027B685A667B6803228C
:10C1080083F861207B68002283F86020032313E012
:10C118007B681B685B6803F01003002BA1D07B6869
:10C128001B6812229A607B68012283F861207B6871
:10C13800002283F86020002318461837BD4680BDCA
:10C1480080B487B000AF786039607B685B68B3F50E
:10C15800403F3B68012B04D13A681346DB009B1A29
:10C168009B007B6893F86030012B01D1022392E099
:10C178007B68012283F860207B68022283F86120B3
:10C188003A681346DB009B1A9B0028337A681344ED
:10C19800FB60FB685A68FB689B681B041A43FB68D2
:10C1A8001B691B051A43FB685B695B0513433B610D
:10C1B8003C4B7B61FB685B680A2B03D0FB685B68C0
:10C1C800092B07D1FB68DB6803F07F433A69134307
:10C1D8003B6105E0FB68DB681B063A6913433B617A
:10C1E8003B68002B20D17B681B685A6A7B69DB435C
:10C1F80002EA03017B681B683A690A435A627B6852
:10C208001B68FA6812689A61FB685B680A2B03D09E
:10C21800FB685B68092B35D1FB68DA687B681B68AB
:10C2280022F07F429A622DE0FB685B680B2B09D1F4
:10C23800FB689B699B043A6913433B617B6943F440
:10C2480040237B617B681B68DA697B69DB4302EA10
:10C2580003017B681B683A690A43DA617B681B68DB
:10C26800FA6812681A61FB685B680A2B03D0FB68DE
:10C278005B68092B06D1FB68DA687B681B6822F0CB
:10C288007F421A627B68012283F861207B68002262
:10C2980083F86020002318461C37BD465DF8047BF0
:10C2A800704700BF0F0033FF80B48BB000AFF86059
:10C2B800B9607A603B60FB681B685B6C03F04041C7
:10C2C8003B681A043B6B1A43FB681B680A435A64B1
:10C2D800FB681B687A68DA63FB685B68B3F5403F04
:10C2E80074D1BB6803F07F433B62BB6803F47F03F0
:10C2F800FB61BB6803F47F43BB61BB68DBB27B6156
:10C30800FB689B68002B08D1BA69FB691A433B6A32
:10C3180013437A6913437B6253E0FB689B68012BE4
:10C3280006D1BA69FB6913437A6913437B6248E013
:10C33800FB689B68022B11D1FB69DB0CFB61BB69B5
:10C348009B0ABB617B69DB087B61BB695A01FB699E
:10C35800DB0213437A6913437B6232E0FB689B6814
:10C36800032B17D13B6ADB0F3B62FB69DB0CFB61DC
:10C37800BB69DB0ABB617B69DB087B61BB695A016E
:10C38800FB699B021A433B6ADB0313437A69134335
:10C398007B6216E03B6A1B0F3B62FB691B0DFB616E
:10C3A800BB691B0BBB617B691B097B61BB691A01FC
:10C3B800FB691B021A433B6A1B0313437A69134345
:10C3C8007B62FB681B687A6A9A630DE0FB685B68AE
:10C3D800B3F5802F04D1FB681B68BA685A6103E083
:10C3E800FB681B68BA68DA6000BF2C37BD465DF889
:10C3F800047B704780B485B000AFF860B9607A609C
:10C408003B60BB689A017B681A433B681B021A436E
:10C41800BB691B041A43FB68DA6600BF1437BD46C4
:10C428005DF8047B704780B586B000AFF860B960EE
:10C438007A603B60FCF72CFD786109E0FCF728FD89
:10C4480002467B69D31AB3F57A7F01D9032315E035
:10C45800FB681B685B6F03F00103002BEED0BB6821
:10C468009A017B681A433B681B0242EA03013B6A54
:10C478001A04FB681B680A43DA6600231846183753
:10C48800BD4680BD80B588B000AF786039607B68F4
:10C49800002B01D1012306E17B685B7CDBB2002B1A
:10C4A80002D1786800F008F97B6803225A740023E7
:10C4B8003B617B681B68D3F830247B681B6842F0BB
:10C4C8008072C3F830247B681B68D3F8303403F0DB
:10C4D80080733B613B69FCF7DBFCF86109E0FCF722
:10C4E800D7FC0246FB69D31AB3F57A7F01D9032337
:10C4F800D9E07B681B68D3F80C3403F48053002B15
:10C50800EDD07B681B68D3F830147B681A68684BD9
:10C518000B40C2F830347B681B68D3F830143B6892
:10C528001B689A003B685B68DB021A433B689B68A0
:10C538001B041A437B681B680A43C3F83024002392
:10C54800FB607B681B68D3F830247B681B6842F06B
:10C558000102C3F830247B681B68D3F8303403F039
:10C568000103FB60FB68FCF793FCF86109E0FCF74A
:10C578008FFC0246FB69D31AB3F57A7F01D90323EE
:10C5880091E07B681B68D3F80C3403F48073002BAC
:10C59800EDD07B681B68D3F8A0207B681B6842F04D
:10C5A8000602C3F8A0207B681B68D3F894207B6838
:10C5B8001B6822F00302C3F894207B681B68D3F839
:10C5C80094207B685B681A437B681B6842F0010211
:10C5D800C3F894207B681B68D3F8A4207B681B6889
:10C5E80022F00302C3F8A4207B681B68D3F8A410C8
:10C5F8007B68DA687B681B680A43C3F8A4207B68F9
:10C608001B689A687B681B6822F0FF029A607B6847
:10C618001B6899687B689A687B681B680A439A60FC
:10C628003B685B68002B02D03B685B6800E0012335
:10C63800BB61BB691F4A02FB03F23B689B6803F0BE
:10C6480003039A403B681B6846F2A81101FB03F3F9
:10C65800B2FBF3F37B617B681B68D3F818247B6813
:10C668001B6822F03F02C3F818247B681B68D3F8C4
:10C6780018147B681B687A690A43C3F818247B6816
:10C688001B680022C3F8C4207B681B680022C3F81B
:10C69800C8207B6800229A617B6800225A617B6807
:10C6A80001225A74002318462037BD4680BD00BFBA
:10C6B8000386FCFF00093D0080B483B000AF7860BA
:10C6C80000BF0C37BD465DF8047B704780B483B06B
:10C6D80000AF786039607B681B7C012B01D1022395
:10C6E800EEE17B6801221A747B681B685A6B7B68D1
:10C6F8001B6822F001025A637B681B68D3F8002488
:10C708007B681B6822F00102C3F800247B681B6861
:10C718009A6B7B681B6822F003029A637B681B682C
:10C72800996B3B68DA687B681B680A439A637B6885
:10C738001B68D96B7B681A688B4B0B40D3637B688B
:10C748001B68D96B3B681A697B681B680A43DA6304
:10C758007B681B68196C7B681A68844B0B401364F0
:10C768007B681B68196C3B685A697B681B680A43BD
:10C778001A647B681B68596C7B681A687B4B0B4092
:10C7880053647B681B68596C3B689A697B681B68B3
:10C798000A435A647B681B68DA687B681B6822F066
:10C7A8000302DA607B681B68D9683B681A687B6893
:10C7B8001B680A43DA607B681B685A697B681B68D8
:10C7C80022F007025A617B681B6859693B685A6AFC
:10C7D8003B681B6A1A433B68DB691A437B681B6822
:10C7E8000A435A617B681B681A697B681B6822F0D8
:10C7F8000F021A617B681B6819693B685A687B6875
:10C808001B680A431A617B681B68D3F800247B689D
:10C818001B6822F00E02C3F800247B681B68D3F85B
:10C8280000143B685B685A007B681B680A43C3F8BE
:10C8380000243B685B68032B10D17B681B681A696E
:10C848007B681B6822F480721A617B681B6819690F
:10C858003B689A687B681B680A431A617B681B6897
:10C86800996C7B681A68424B0B4093647B681B6821
:10C87800996C3B689A6A7B681B680A439A647B6870
:10C888001B68D96C7B681A68394B0B40D3647B688A
:10C898001B68D96C3B68DA6A7B681B680A43DA64F0
:10C8A8007B681B68196D7B681A68324B0B401365EF
:10C8B8007B681B68196D3B681A6B7B681B680A43A9
:10C8C8001A657B681B68596D7B681A682A4B0B4090
:10C8D80053657B681B68596D3B685A6B7B681B689E
:10C8E8000A435A657B681B68996D7B681A68224BF6
:10C8F8000B4093657B681B68996D3B689A6B7B68F6
:10C908001B680A439A657B681B68D96D7B681A683F
:10C91800194B0B40D3657B681B68D96D3B68DA6B94
:10C928007B681B680A43DA657B681B68196E7B683D
:10C938001A680D4B0B4013667B681B68196E3B68C1
:10C948001A6C7B681B680A431A667B681B689A6BBB
:10C958007B681B6822F400429A637B681B68996BAA
:10C968003B685A6C0AE000BF00C0FFFF00E0FFFF11
:10C9780000F0FFFF0080FFFF00FCFFFF7B681B68E3
:10C988000A439A637B681B689A697B681B6822F470
:10C998007F029A617B681B6899693B689B6C1A04E3
:10C9A8007B681B680A439A617B681B689A697B6885
:10C9B8001B6822F0FF029A617B681B6899693B68D3
:10C9C800DA6C7B681B680A439A617B681B689A6B00
:10C9D8007B681B6822F400529A637B681B68996B1A
:10C9E8003B681A6D7B681B680A439A637B681B68FF
:10C9F8009A6B7B681B6822F480529A637B681B6879
:10CA0800996B3B685A6D7B681B680A439A637B681D
:10CA18001B689A6B7B681B6822F400629A637B68C8
:10CA28001B68996B3B689A6D7B681B680A439A631D
:10CA38007B681B689A6B7B681B6822F480629A6328
:10CA48007B681B68996B3B68DA6D7B681B680A43D7
:10CA58009A637B681B689A6B7B681B6822F4007278
:10CA68009A637B681B68996B3B681A6E7B681B68C6
:10CA78000A439A637B681B689A6B7B681B6822F47D
:10CA880080729A637B681B68996B3B685A6E7B68F7
:10CA98001B680A439A637B681B689A6B7B681B68F0
:10CAA80022F480429A637B681B68996B3B689A6E94
:10CAB8007B681B680A439A637B6800221A74002308
:10CAC80018460C37BD465DF8047B704780B483B0C8
:10CAD80000AF786039607B681B7C012B01D1022391
:10CAE80016E07B6801221A747B681B68DA6A7B6827
:10CAF8001B6822F01F02DA627B681B68D96A7B68B0
:10CB08001B683A680A43DA627B6800221A740023B9
:10CB180018460C37BD465DF8047B704780B485B075
:10CB280000AF78607B681B7C012B01D102232BE0CE
:10CB38007B6801221A740023FB607B681B685A68B3
:10CB48007B681B6842F001025A607B681B685B685F
:10CB580003F00103FB60FB680023BB607B681B6874
:10CB6800D3F804247B681B6842F00802C3F8042445
:10CB78007B681B68D3F8043403F00803BB60BB6808
:10CB88007B6800221A74002318461437BD465DF8E6
:10CB9800047B704780B588B002AFF860B9607A60EE
:10CBA8003B60FB681B7C012B01D1022310E0FB6872
:10CBB80001221A743B6A00933B687A68B968F8687E
:10CBC800FFF731FC0346FB75FB6800221A74FB7DF6
:10CBD80018461837BD4680BD80B58CB002AFF860E6
:10CBE800B9607A603B607B6BBB61FB681B7C012B87
:10CBF80001D1022384E0FB6801221A74FCF748F98A
:10CC080078610CE0FCF744F902467B69D31AB3F566
:10CC18007A7F04D9FB6800221A74032370E0FB684A
:10CC28001B685B6F03F00103002BEBD03B6BFB61D0
:10CC38003B68032B28BF03233B6100233B620FE0C3
:10CC4800BA693B6A13441B781A463B6A0133DB0016
:10CC580002FA03F3FA691343FB613B6A01333B624F
:10CC68003A6A3B699A42EBD3FB681B68FA691A6710
:10CC78003A683B69D31A7B62BA693B691344BB6162
:10CC880028E07B6A042B28BF04233B610023FB6157
:10CC980000233B620EE0BA693B6A13441B781A46CC
:10CCA8003B6ADB0002FA03F3FA691343FB613B6A50
:10CCB80001333B623A6A3B699A42ECD3FB681B68D2
:10CCC800FA691A677A6A3B69D31A7B62BA693B695F
:10CCD8001344BB617B6A002BD3D1FB6818683B689F
:10CCE8000133DAB23B6801331B0ADBB20093134607
:10CCF8007A68B968FFF77EFBFB6800221A74002384
:10CD080018462837BD4680BD80B58CB002AFF860A4
:10CD1800B9607A603B607B687B623B683B62FB681A
:10CD28001B7C012B01D102239AE0FB6801221A74B3
:10CD38003B6A022B13D93B6ADAB23B6A1B0ADBB2A5
:10CD4800009313463722B968F868FFF76CFB03466F
:10CD5800002B04D0FB6800221A74012380E03B6B8F
:10CD6800062B09D1FB681868002300937B6B3A6B8C
:10CD7800B968FFF73FFB33E03B6B042B09D1FB6835
:10CD880018680023009300233A6BB968FFF732FB59
:10CD980026E03B6B142B0CD1FB681868BB6B1B7827
:10CDA8001A460023009313463A6BB968FFF722FB33
:10CDB80016E03B6B242B0ED1FB681868BB6B1B7805
:10CDC8001A46BB6B01331B78009313463A6BB9685C
:10CDD800FFF710FB04E0FB6800221A7401233FE010
:10CDE800FCF756F8B86134E0FB681B685B6F03F02A
:10CDF8001003002B20D1FB681B681B6F7B613B6A0B
:10CE0800042B28BF04233B610023FB6110E0FB696E
:10CE1800DB007A6922FA03F3DAB27B6A1A707B6A5A
:10CE280001337B623B6A013B3B62FB690133FB6177
:10CE3800FA693B699A42EAD3FCF72AF80246BB69C9
:10CE4800D31AB3F57A7F04D9FB6800221A74032336
:10CE580006E03B6A002BC7DCFB6800221A7400233B
:10CE680018462837BD4680BD80B487B000AFF8604B
:10CE78000B467A60FB720023FB75FB68002B01D11F
:10CE880001230AE0FB7A002B03D1FB687A685A6019
:10CE980002E00123FB7500BFFB7D18461C37BD4629
:10CEA8005DF8047B704780B483B000AF7860396068
:10CEB8007B68002B01D1012303E07B683A681A6084
:10CEC800002318460C37BD465DF8047B7047000008
:10CED80080B586B000AF78607B681B681B0C03F0D8
:10CEE80003033B617B681B6803F01F03012202FAFE
:10CEF80003F3FB60FCF7D6F90346032B05D13B6926
:10CF08001A010F4B13447B6104E03B691A010D4B76
:10CF180013447B617B691B68FA681340BB60BB687C
:10CF2800002B09D07B69FA681A607B685B68002B64
:10CF380002D07B685B68984700BF1837BD4680BD44
:10CF480088000058C800005880B489B000AF7860E5
:10CF580039600023FB61894B7B6194E13B681A6867
:10CF68000121FB6901FA03F313403B613B69002B84
:10CF780000F086813B685B68012B0BD03B685B68DF
:10CF8800022B07D03B685B68112B03D03B685B68BA
:10CF9800122B30D17B689B68BB61FB695B00032265
:10CFA80002FA03F3DB43BA691340BB613B68DA68F2
:10CFB800FB695B0002FA03F3BA691343BB617B6840
:10CFC800BA699A607B685B68BB610122FB6902FAF7
:10CFD80003F3DB43BA691340BB613B685B681B0919
:10CFE80003F00102FB6902FA03F3BA691343BB6158
:10CFF8007B68BA695A607B68DB68BB61FB695B0068
:10D00800032202FA03F3DB43BA691340BB613B68AE
:10D018009A68FB695B0002FA03F3BA691343BB61C0
:10D028007B68BA69DA603B685B68022B03D03B68AF
:10D038005B68122B23D1FB69DA087B68083253F846
:10D048002230BB61FB6903F007039B000F2202FA41
:10D0580003F3DB43BA691340BB613B681A69FB6998
:10D0680003F007039B0002FA03F3BA691343BB6199
:10D07800FB69DA087B680832B96943F822107B68D3
:10D088001B68BB61FB695B00032202FA03F3DB4305
:10D09800BA691340BB613B685B6803F00302FB6934
:10D0A8005B0002FA03F3BA691343BB617B68BA6990
:10D0B8001A603B685B6803F08053002B00F0E08047
:10D0C8002F4BD3F8F4302E4A43F00203C2F8F43061
:10D0D8002B4BD3F8F43003F00203FB60FB68294ABA
:10D0E800FB699B08023352F82330BB61FB6903F0EC
:10D0F80003039B000F2202FA03F3DB43BA691340D0
:10D10800BB617B68204A934252D07B681F4A934296
:10D1180031D07B681E4A93422BD07B681D4A9342CC
:10D1280025D07B681C4A93421FD07B681B4A9342D8
:10D1380019D07B681A4A934213D07B68194A9342E4
:10D148000DD07B68184A934207D07B68174A9342F0
:10D1580001D109232DE00A232BE0082329E0072326
:10D1680027E0062325E0052323E0042321E0032309
:10D178001FE002231DE001231BE000BF80000058D0
:10D1880000440258000400580000025800040258E5
:10D1980000080258000C02580010025800140258E7
:10D1A80000180258001C0258002002580024025897
:10D1B8000023FA6902F0030292009340BA6913430C
:10D1C800BB613849FB699B080233BA6941F82320DF
:10D1D8007B691B68BB613B69DB43BA691340BB6170
:10D1E8003B685B6803F48033002B03D0BA693B6962
:10D1F8001343BB617B69BA691A607B695B68BB6171
:10D208003B69DB43BA691340BB613B685B6803F465
:10D218000033002B03D0BA693B691343BB617B69B8
:10D22800BA695A604FF0B0431B68BB613B69DB4386
:10D23800BA691340BB613B685B6803F48013002B39
:10D2480003D0BA693B691343BB614FF0B042BB6975
:10D2580013604FF0B0435B68BB613B69DB43BA695D
:10D268001340BB613B685B6803F40013002B03D0D9
:10D27800BA693B691343BB614FF0B042BB69536065
:10D28800FB690133FB613B681A68FB6922FA03F307
:10D29800002B7FF463AE00BF00BF2437BD465DF8A6
:10D2A800047B70470004005880B487B000AF7860F2
:10D2B800396000237B61754B3B61D9E001227B69B2
:10D2C80002FA03F33A681340FB60FB68002B00F096
:10D2D800CC806F4A7B699B08023352F82330BB60CD
:10D2E8007B6903F003039B000F2202FA03F3BA6879
:10D2F8001340BB607B68674A934237D07B68664AB5
:10D30800934231D07B68654A93422BD07B68644A4C
:10D31800934225D07B68634A93421FD07B68624A58
:10D32800934219D07B68614A934213D07B68604A64
:10D3380093420DD07B685F4A934207D07B685E4A70
:10D34800934201D1092312E00A2310E008230EE0DA
:10D3580007230CE006230AE0052308E0042306E07F
:10D36800032304E0022302E0012300E000237A699A
:10D3780002F0030292009340BA689A4236D13B69A0
:10D388001A68FB68DB431A403B691A603B695A68B4
:10D39800FB68DB431A403B695A604FF0B0431A6898
:10D3A800FB68DB434FF0B04113400B604FF0B043D4
:10D3B8005A68FB68DB434FF0B04113404B607B6910
:10D3C80003F003039B000F2202FA03F3BB60304A09
:10D3D8007B699B08023352F82310BB68DA432C4858
:10D3E8007B699B080A40023340F823207B681A684F
:10D3F8007B695B00032101FA03F31A437B681A6017
:10D408007B69DA087B68083253F822107B6903F0DD
:10D4180007039B000F2202FA03F3DB437A69D20861
:10D4280019407B68083243F822107B68DA687B6908
:10D438005B00032101FA03F3DB431A407B68DA60DF
:10D448007B685A6801217B6901FA03F3DB431A40C0
:10D458007B685A607B689A687B695B00032101FAE4
:10D4680003F3DB431A407B689A607B6901337B6175
:10D478003A687B6922FA03F3002B7FF41FAF00BFE1
:10D4880000BF1C37BD465DF8047B7047800000581C
:10D49800000400580000025800040258000802580E
:10D4A800000C0258001002580014025800180258C4
:10D4B800001C0258002002580024025880B483B08F
:10D4C80000AF78600B467B8013467B707B78002B1F
:10D4D80003D07A887B689A6103E07B881A047B68AA
:10D4E8009A6100BF0C37BD465DF8047B70470000A9
:10D4F80080B582B000AF78607B68002B01D1012332
:10D508007FE07B6893F84130DBB2002B06D17B6863
:10D51800002283F84020786800F0A9F87B6824226C
:10D5280083F841207B681B681A687B681B6822F0B7
:10D5380001021A607B685A687B681B6822F0706277
:10D548001A617B681B689A687B681B6822F4004232
:10D558009A607B68DB68012B07D17B689A687B68D7
:10D568001B6842F400429A6006E07B689A687B6810
:10D578001B6842F404429A607B68DB68022B04D182
:10D588007B681B684FF400625A607B681B685968A7
:10D598007B681A681D4B0B4353607B681B68DA680D
:10D5A8007B681B6822F40042DA607B681A697B6832
:10D5B8005B6942EA03017B689B691A027B681B6806
:10D5C8000A43DA607B68D9697B681A6A7B681B68DA
:10D5D8000A431A607B681B681A687B681B6842F0FC
:10D5E80001021A607B6800225A647B68202283F853
:10D5F80041207B6800221A637B68002283F842205E
:10D60800002318460837BD4680BD00BF00800002D1
:10D6180080B582B000AF78607B68002B01D1012310
:10D6280021E07B68242283F841207B681B681A6804
:10D638007B681B6822F001021A60786800F021F804
:10D648007B6800225A647B68002283F841207B684B
:10D6580000221A637B68002283F842207B6800223C
:10D6680083F84020002318460837BD4680BD80B4A3
:10D6780083B000AF786000BF0C37BD465DF8047B0F
:10D68800704780B483B000AF786000BF0C37BD46E8
:10D698005DF8047B7047000080B588B002AFF86081
:10D6A800084611461A4603467B810B463B811346C2
:10D6B800FB80FB6893F84130DBB2202B40F0F98007
:10D6C8003B6A002B02D0BB8C002B05D1FB684FF4C2
:10D6D80000725A640123EDE0FB6893F84030012B97
:10D6E80001D10223E6E0FB68012283F84020FBF722
:10D6F800CFFB78617B690093192301224FF4004125
:10D70800F86800F0DDFA0346002B01D00123D1E0D0
:10D71800FB68212283F84120FB68402283F84220DD
:10D72800FB6800225A64FB683A6A5A62FB68BA8C42
:10D738005A85FB6800225A63F8883A8979897B6997
:10D748000193BB6A00930346F86800F0EDF90346BD
:10D75800002B05D0FB68002283F840200123A9E0B4
:10D76800FB685B8D9BB2FF2B0ED9FB68FF221A85E5
:10D77800FB681B8DDAB27989002300934FF0807320
:10D78800F86800F0BFFB0FE0FB685B8D9AB2FB689E
:10D798001A85FB681B8DDAB27989002300934FF054
:10D7A8000073F86800F0AEFB7A69B96AF86800F0AF
:10D7B800C7FA0346002B01D001237BE0FB685B6AB4
:10D7C8001A78FB681B689A62FB685B6A5A1CFB68DC
:10D7D8005A62FB685B8D9BB2013B9AB2FB685A8523
:10D7E800FB681B8D013B9AB2FB681A85FB685B8D51
:10D7F8009BB2002B34D0FB681B8D002B30D17B698A
:10D808000093BB6A00228021F86800F059FA0346A9
:10D81800002B01D001234DE0FB685B8D9BB2FF2BF1
:10D828000ED9FB68FF221A85FB681B8DDAB279894D
:10D83800002300934FF08073F86800F063FB0FE05B
:10D84800FB685B8D9AB2FB681A85FB681B8DDAB2A0
:10D858007989002300934FF00073F86800F052FBB9
:10D86800FB685B8D9BB2002B9ED17A69B96AF86818
:10D8780000F0A6FA0346002B01D001231AE0FB684A
:10D888001B682022DA61FB681B685968FB681A6804
:10D898000A4B0B405360FB68202283F84120FB6849
:10D8A800002283F84220FB68002283F840200023EE
:10D8B80000E0022318461837BD4680BD00E800FE88
:10D8C80080B588B002AFF860084611461A4603468C
:10D8D8007B810B463B811346FB80FB6893F8413004
:10D8E800DBB2202B40F0FD803B6A002B02D0BB8CC2
:10D8F800002B05D1FB684FF400725A640123F1E054
:10D90800FB6893F84030012B01D10223EAE0FB6861
:10D91800012283F84020FBF7BBFA78617B6900930A
:10D92800192301224FF40041F86800F0C9F90346B1
:10D93800002B01D00123D5E0FB68222283F8412087
:10D94800FB68402283F84220FB6800225A64FB6887
:10D958003A6A5A62FB68BA8C5A85FB6800225A6395
:10D96800F8883A8979897B690193BB6A00930346F1
:10D97800F86800F02DF90346002B05D0FB6800225B
:10D9880083F840200123ADE0FB685B8D9BB2FF2B41
:10D998000ED9FB68FF221A85FB681B8DDAB27989DC
:10D9A800524B00934FF08073F86800F0ABFA0FE029
:10D9B800FB685B8D9AB2FB681A85FB681B8DDAB22F
:10D9C80079894A4B00934FF00073F86800F09AFA8F
:10D9D8007B690093BB6A00220421F86800F070F9A3
:10D9E8000346002B01D001237CE0FB681B685A6AC0
:10D9F800FB685B6AD2B21A70FB685B6A5A1CFB68E8
:10DA08005A62FB681B8D013B9AB2FB681A85FB685A
:10DA18005B8D9BB2013B9AB2FB685A85FB685B8DB4
:10DA28009BB2002B34D0FB681B8D002B30D17B6957
:10DA38000093BB6A00228021F86800F041F9034690
:10DA4800002B01D001234DE0FB685B8D9BB2FF2BBF
:10DA58000ED9FB68FF221A85FB681B8DDAB279891B
:10DA6800002300934FF08073F86800F04BFA0FE042
:10DA7800FB685B8D9AB2FB681A85FB681B8DDAB26E
:10DA88007989002300934FF00073F86800F03AFAA0
:10DA9800FB685B8D9BB2002B9AD17A69B96AF868EA
:10DAA80000F08EF90346002B01D001231AE0FB6831
:10DAB8001B682022DA61FB681B685968FB681A68D2
:10DAC8000B4B0B405360FB68202283F84120FB6816
:10DAD800002283F84220FB68002283F840200023BC
:10DAE80000E0022318461837BD4680BD0024008098
:10DAF80000E800FE80B483B000AF78607B6893F8DC
:10DB08004130DBB218460C37BD465DF8047B7047E0
:10DB180080B483B000AF78607B685B6C18460C37C4
:10DB2800BD465DF8047B704780B586B002AFF860EB
:10DB3800084611461A4603467B810B463B8113462D
:10DB4800FB80FB88DAB27989204B00934FF0807311
:10DB5800F86800F0D7F9FA69B969F86800F0F0F8E0
:10DB68000346002B01D001232CE0FB88012B05D1B3
:10DB78003B89DAB2FB681B689A6215E03B891B0A8D
:10DB88009BB2DAB2FB681B689A62FA69B969F868ED
:10DB980000F0D6F80346002B01D0012312E03B89A0
:10DBA800DAB2FB681B689A62FB690093BB690022C2
:10DBB8008021F86800F084F80346002B01D0012387
:10DBC80000E0002318461037BD4680BD00200080C5
:10DBD80080B586B002AFF860084611461A4603467B
:10DBE8007B810B463B811346FB80FB88DAB279893F
:10DBF800204B00930023F86800F084F9FA69B969AA
:10DC0800F86800F09DF80346002B01D001232CE0B2
:10DC1800FB88012B05D13B89DAB2FB681B689A6245
:10DC280015E03B891B0A9BB2DAB2FB681B689A6253
:10DC3800FA69B969F86800F083F80346002B01D047
:10DC4800012312E03B89DAB2FB681B689A62FB6920
:10DC58000093BB6900224021F86800F031F80346C0
:10DC6800002B01D0012300E0002318461037BD46E1
:10DC780080BD00BF0020008080B483B000AF786012
:10DC88007B681B689B6903F00203022B03D17B6846
:10DC98001B6800229A627B681B689B6903F001037A
:10DCA800012B07D07B681B689A697B681B6842F068
:10DCB80001029A6100BF0C37BD465DF8047B7047CE
:10DCC80080B584B000AFF860B9603B601346FB7163
:10DCD80022E03B68B3F1FF3F1ED0FBF7D9F80246BC
:10DCE800BB69D31A3A689A4202D33B68002B13D116
:10DCF800FB685B6C43F02002FB685A64FB682022D7
:10DD080083F84120FB68002283F84220FB68002248
:10DD180083F8402001230FE0FB681B689A69BB6801
:10DD28001340BA689A420CBF01230023DBB21A469B
:10DD3800FB799A42CDD0002318461037BD4680BDE6
:10DD480080B584B000AFF860B9607A602CE07A687A
:10DD5800B968F86800F070F80346002B01D0012379
:10DD68002AE0BB68B3F1FF3F1ED0FBF791F80246EB
:10DD78007B68D31ABA689A4202D3BB68002B13D1C6
:10DD8800FB685B6C43F02002FB685A64FB68202246
:10DD980083F84120FB68002283F84220FB680022B8
:10DDA80083F84020012307E0FB681B689B6903F0A8
:10DDB8000203022BCBD1002318461037BD4680BD85
:10DDC80080B584B000AFF860B9607A6028E07A68FE
:10DDD800B968F86800F030F80346002B01D0012339
:10DDE80026E0FBF755F802467B68D31ABA689A42D0
:10DDF80002D3BB68002B13D1FB685B6C43F0200295
:10DE0800FB685A64FB68202283F84120FB680022E3
:10DE180083F84220FB68002283F84020012307E0B2
:10DE2800FB681B689B6903F02003202BCFD10023DC
:10DE380018461037BD4680BD80B584B000AFF86085
:10DE4800B9607A60FB681B689B6903F01003102BAC
:10DE580051D122E0BB68B3F1FF3F1ED0FBF718F8A1
:10DE680002467B68D31ABA689A4202D3BB68002B71
:10DE780013D1FB685B6C43F02002FB685A64FB68B3
:10DE8800202283F84120FB68002283F84220FB68A7
:10DE9800002283F8402001232EE0FB681B689B6961
:10DEA80003F02003202BD5D1FB681B681022DA6110
:10DEB800FB681B682022DA61F868FFF7DDFEFB6863
:10DEC8001B685968FB681A680D4B0B405360FB6868
:10DED8005B6C43F00402FB685A64FB68202283F8F9
:10DEE8004120FB68002283F84220FB68002283F867
:10DEF8004020012300E0002318461037BD4680BDAE
:10DF080000E800FE80B485B000AFF8607B600B4687
:10DF18007B8113467B72FB681B685A68BB695B0D83
:10DF280003F480610D4B0B43DB4302EA03017B8959
:10DF3800C3F309027B7A1B0403F47F031A437B684B
:10DF48001A43BB691A43FB681B680A435A6000BF3F
:10DF58001437BD465DF8047B704700BFFF63FF03BD
:10DF680080B483B000AF786039607B6893F8413043
:10DF7800DBB2202B38D17B6893F84030012B01D1DC
:10DF8800022332E07B68012283F840207B68242248
:10DF980083F841207B681B681A687B681B6822F03D
:10DFA80001021A607B681B681A687B681B6822F488
:10DFB80080521A607B681B6819687B681B683A681E
:10DFC8000A431A607B681B681A687B681B6842F002
:10DFD80001021A607B68202283F841207B680022B6
:10DFE80083F84020002300E0022318460C37BD4682
:10DFF8005DF8047B704780B485B000AF7860396005
:10E008007B6893F84130DBB2202B39D17B6893F8D9
:10E018004030012B01D1022333E07B68012283F8D1
:10E0280040207B68242283F841207B681B681A689B
:10E038007B681B6822F001021A607B681B681B68FA
:10E04800FB60FB6823F47063FB603B681B02FA68A3
:10E058001343FB607B681B68FA681A607B681B685F
:10E068001A687B681B6842F001021A607B682022EC
:10E0780083F841207B68002283F84020002300E0D9
:10E08800022318461437BD465DF8047B704700002C
:10E0980080B584B000AF78607B68002B01D1012384
:10E0A800BFE07B6893F8A130DBB2002B06D17B6818
:10E0B800002283F8A020786800F0BAF87B68022272
:10E0C80083F8A1207B681B689A697B681B6822F02B
:10E0D80070429A617B681B6899697B685A687B689B
:10E0E8009B681A437B68DB681A437B681B691A4381
:10E0F8007B681B680A439A617B681B6899687B6820
:10E108001A684A4B0B4093607B685B691B04FB6091
:10E118007B681B6899687B689A69FB681A437B6807
:10E128001B680A439A607B681B68D9687B681A6811
:10E138003E4B0B40D3607B68DB691B04FB607B684C
:10E148001B68D9687B681A6AFB681A437B681B6876
:10E158000A43DA607B681B6819697B681A68334B65
:10E168000B4013617B685B6A1B04FB607B681B6860
:10E1780019697B689A6AFB681A437B681B680A43BB
:10E188001A617B681B6859697B681A68274B0B40C2
:10E1980053617B68DB6A1B04FB607B681B685969F9
:10E1A8007B681A6BFB681A437B681B680A435A61D1
:10E1B8007B6893F835301B02FB607B6893F8363038
:10E1C8001B04BB607B681B68DA6A7B681B6802F00B
:10E1D8007F42DA627B681B68D96ABA68FB681343B6
:10E1E8007A6892F834201A437B681B680A43DA621B
:10E1F8007B681B685A6B7B681B6842F006025A638F
:10E208007B681B689A697B681B6842F001029A6107
:10E218007B680022C3F8A4207B68012283F8A12030
:10E22800002318461037BD4680BD00BF00F800F037
:10E2380080B483B000AF786000BF0C37BD465DF88E
:10E24800047B7047B0B584B000AFF860B9607A60FD
:10E25800FB6893F8A030012B01D102232CE0FB6866
:10E26800012283F8A020FB68022283F8A120FA6823
:10E278007B68342101FB03F3134403F13802BB68C4
:10E2880014461D460FCD0FC40FCD0FC40FCD0FC4BC
:10E298002B6823607A68B968F86800F011F8FB68A1
:10E2A8001B6801225A62FB68012283F8A120FB68DF
:10E2B800002283F8A020002318461037BD46B0BDC1
:10E2C80080B489B000AFF860B9607A60BB685A68FA
:10E2D800FB681B68DB681B0CC3F30B0313441B04AC
:10E2E800FB61FB681B681A467B68DB0113448433B7
:10E2F8005B68FA68126811467A68D2010A44843267
:10E3080003F470435360BB681A68FB681B68DB68DA
:10E318001B0CC3F30B0313445A1CFB681B681946F8
:10E328007B68DB010B4484331946FB6913434B605C
:10E33800BB68DA68FB681B68DB68C3F30A0313442D
:10E348001B04FB61FB681B681A467B68DB011344EE
:10E3580084339B68FA68126811467A68D2010A44C5
:10E36800843203F470439360BB689A68FB681B6847
:10E37800DB68C3F30A0313445A1CFB681B6819467D
:10E388007B68DB010B4484331946FB6913438B60BC
:10E39800FB681B681A467B68DB01134484331B69DE
:10E3A800FA68126811467A68D2010A44843223F066
:10E3B80007031361FB681B681A467B68DB0113447B
:10E3C80084331A46BB681B691361BB6893F8313004
:10E3D8001B02FB61BB6893F832301B04BB61BB684E
:10E3E8009B691B067B61FB681B681A467B68DB011F
:10E3F800134484339B69FB681B681A467B68DB01FE
:10E40800134484331A4600239361BB6893F8303071
:10E418001A46FB691A43BB691A43FB681B6819460D
:10E428007B68DB010B44843319467B6913438B619A
:10E43800FB681B681A467B68DB01134484335B69FD
:10E44800FA68126811467A68D2010A44843223F0C5
:10E45800FF035361FB681B681A467B68DB011344A2
:10E4680084331A46BB685B695361FB681B681A46AC
:10E478007B68DB0113448433DA69FB681B6819463F
:10E488007B68DB010B4484331946584B1340CB613E
:10E49800BB68DA69BB681B6AF96809680846796865
:10E4A800C901014484311343CB61FB681B681A46D8
:10E4B8007B68DB01134484339B6AFB681B681A463C
:10E4C8007B68DB01134484331A4600239362FB689C
:10E4D8001B681A467B68DB01134484331A46BB6801
:10E4E8005B6A9362BB681B69002B02D10423FB6142
:10E4F8001BE0BB681B69012B02D10323FB6114E0FD
:10E50800BB681B69042B0BD0BB681B69022B07D0A7
:10E51800BB681B69032B03D0BB681B69072B02D19F
:10E528000223FB6101E00123FB61FB681B681A46BB
:10E538007B68DB0113448433DB6AFA68126811468E
:10E548007A68D2010A44843203F0E023D362BB68BC
:10E558009B6AFA6902FB03F31A04BB685968BB6833
:10E568001B68CB1AF96901FB03F30733F9680968DB
:10E5780008467968C901014484311343CB62FB68BA
:10E588001B681A467B68DB01134484331A6BFB68EB
:10E598001B6819467B68DB010B4484331946144B0E
:10E5A80013400B63FB681B681A467B68DB01134446
:10E5B80084331A46BB68DB6A1363FB681B681A4618
:10E5C8007B68DB01134484331B68FA6812681146C0
:10E5D8007A68D2010A44843243F00103136000BF11
:10E5E8002437BD465DF8047B704700BFF8F8FFFF8D
:10E5F80000F8FFFF80B584B000AF7860FAF748FCF8
:10E60800F8607B68002B01D101233BE07B68002286
:10E6180083F83C207B68022283F83D207B681B68D6
:10E62800DA687B681B6822F00102DA600FE0FAF70B
:10E638002FFC0246FB68D31A052B08D97B684022B9
:10E648009A667B68032283F83D2001231AE07B68E1
:10E658001B68DB6803F00103002BE8D1786800F041
:10E66800C3F97B680022DA657B6800221A667B683A
:10E6780000225A667B6800229A667B68012283F82A
:10E688003D20002318461037BD4680BD80B483B0B6
:10E6980000AF78607B68002B01D1012348E07B68DC
:10E6A8001B68DA687B681B6822F00102DA607B6805
:10E6B8001B680022DA607B681B6800221A617B688D
:10E6C8001B6800225A617B681B6800229A617B687C
:10E6D8001B680022DA617B681B6800221A627B686B
:10E6E8001B6800225A627B681B6800229A627B685A
:10E6F8001B6800221A637B681B6800225A637B68C8
:10E708001B681F225A607B680022DA657B6800223A
:10E718001A667B6800225A667B6800229A667B68C4
:10E72800002283F83D207B68002283F83C200023E8
:10E7380018460C37BD465DF8047B704780B586B037
:10E7480000AF78600023BB609A4B1B689A4AA2FB13
:10E7580003239B0A7B617B681B681A46974B13440B
:10E768009B0903F01F03012202FA03F33B614FF0F8
:10E77800A4431A683B691340002B00F02E817B6884
:10E788001B681B6803F00103002B54D07B681B68CF
:10E79800DB6803F00203002B4DD07B681B68DA6846
:10E7A8007B681B6822F00202DA607B681B689B6842
:10E7B800FB60FB6803F08003002B06D17B689B6E2F
:10E7C80043F001027B689A6605E07B689B6E43F024
:10E7D80002027B689A66FB6803F40073002B05D07D
:10E7E8007B689B6E43F004027B689A66FB6803F4BF
:10E7F8008073002B05D07B689B6E43F008027B6812
:10E808009A66FB6803F48063002B05D07B689B6ED7
:10E8180043F010027B689A66FB6803F40063002BE0
:10E8280005D07B689B6E43F020027B689A667B6804
:10E838001B6801225A607B681B681B6803F0100381
:10E84800002B12D07B681B68DB6803F02003002BC9
:10E858000BD07B681B6810225A607B689B6C002B6E
:10E8680003D07B689B6C786898477B681B681B683B
:10E8780003F00803002B12D07B681B68DB6803F0E9
:10E888001003002B0BD07B681B6808225A607B683A
:10E89800DB6C002B03D07B68DB6C786898477B685F
:10E8A8001B681B6803F00403002B12D07B681B68ED
:10E8B800DB6803F00803002B0BD07B681B6804227D
:10E8C8005A607B681B6D002B03D07B681B6D7868D2
:10E8D80098477B681B681B6803F00203002B39D03C
:10E8E8007B681B68DB6803F00403002B32D07B686D
:10E8F8001B68DA687B681B6822F03E02DA607B6876
:10E9080093F83D30DBB2042B10D17B68002283F8EA
:10E918003C207B68012283F83D207B689B6D002B9F
:10E928005DD07B689B6D7868984758E07B681B686A
:10E9380002225A607B68002283F83C207B6801220F
:10E9480083F83D207B685B6C002B03D07B685B6C95
:10E95800786898477B689B6E002B41D07B680422BF
:10E9680083F83D207B681B68DA687B681B6822F0A7
:10E978000102DA60BB680133BB607A699A4207D347
:10E988007B681B68DB6803F00103002BF2D100E011
:10E9980000BF7B68002283F83C207B681B68DB682B
:10E9A80003F00103002B0BD07B68032283F83D2082
:10E9B8000AE000BFF4000024B5814E1BC0FFFFAD84
:10E9C8007B68012283F83D207B685B6D002B07D0B4
:10E9D8007B685B6D7868984702E000BF00E000BF85
:10E9E8001837BD4680BD00BF80B485B000AF7860E1
:10E9F8007B68D9687B681A697B681B680A43DA6098
:10EA08007B685A697B689B691A437B68DB691A4390
:10EA18007B681B6A1A437B685B6A1A437B68DB6AFC
:10EA28001A437B681B6B1A437B689B6A013B9B04F8
:10EA380042EA03017B689A687B681B680A431A618B
:10EA48007B685B68B3F1804F07D17B681B681A69E4
:10EA58007B681B6842F040421A617B681B68002291
:10EA68005A617B685B6B002B11DA7B681B685A69FB
:10EA78007B681B6842F480225A617B685B6B5B424F
:10EA8800FB607B681B68FA6892B21A6206E07B68D2
:10EA98005B6B1A467B681B6892B21A627B689B6B39
:10EAA800002B15DA7B681B685A697B681B6842F47F
:10EAB80000225A617B689B6B5B42FB607B681B682A
:10EAC800196AFB681A047B681B680A431A6209E022
:10EAD8007B681B68196A7B689B6B1A047B681B68D8
:10EAE8000A431A627B685B68B3F1804F06D07B6883
:10EAF8005A687B681B68D2B29A6203E07B681B681D
:10EB080000229A627B681B6800225A6200BF143791
:10EB1800BD465DF8047B704780B584B000AF78606F
:10EB2800294BDB6803F00703062B0AD0264BDB686A
:10EB380003F03F037A689A4201D0012340E00023A2
:10EB48003EE0214BDB6823F03F021F497B681343FB
:10EB5800CB60FAF79DF9F86009E0FAF799F90246EF
:10EB6800FB68D31AB3F57A7F01D9012328E0164B45
:10EB78005B6803F40053B3F5005FEED17B681E2B8E
:10EB880008D07B682E2B05D07B681D2B02D07B68B4
:10EB98002D2B14D1FAF77CF9F86009E0FAF778F927
:10EBA8000246FB68D31AB3F57A7F01D9012307E03F
:10EBB800054BDB6803F48033B3F5803FEED10023C7
:10EBC80018461037BD4680BD0048025880B58CB045
:10EBD80000AF78607B68002B01D10123FFE37B68DD
:10EBE8001B6803F00103002B00F08780994B1B6919
:10EBF80003F03803FB62974B9B6ABB62FB6A102BDE
:10EC080007D0FB6A182B10D1BB6A03F00303022B51
:10EC18000BD1904B1B6803F40033002B6CD07B683E
:10EC28005B68002B68D10123D9E37B685B68B3F587
:10EC3800803F06D1874B1B68864A43F480331360B4
:10EC48002EE07B685B68002B0CD1824B1B68814AE5
:10EC580023F4803313607F4B1B687E4A23F48023A0
:10EC680013601DE07B685B68B3F5A02F0CD1794B6E
:10EC78001B68784A43F480231360764B1B68754AF7
:10EC880043F4803313600BE0724B1B68714A23F422
:10EC9800803313606F4B1B686E4A23F48023136024
:10ECA8007B685B68002B13D0FAF7F2F8786208E00B
:10ECB800FAF7EEF802467B6AD31A642B01D90323CC
:10ECC8008DE3644B1B6803F40033002BF0D014E091
:10ECD800FAF7DEF8786208E0FAF7DAF802467B6AB3
:10ECE800D31A642B01D9032379E35A4B1B6803F425
:10ECF8000033002BF0D100E000BF7B681B6803F0F5
:10ED08000203002B00F0AE80524B1B6903F038035E
:10ED18003B62504B9B6AFB613B6A002B07D03B6A06
:10ED2800182B3AD1FB6903F00303002B35D1494B6B
:10ED38001B6803F00403002B05D07B68DB68002BFD
:10ED480001D101234BE3FAF7D3F8034641F203025A
:10ED5800934217D87B681B69402B08D13D4B5B68F1
:10ED680023F47C333B4A43F4003353607AE0394B55
:10ED78005B6823F47C327B681B691B0335491343AA
:10ED88004B606FE0334B5B6823F0FE427B681B6986
:10ED98001B06304913434B6064E07B68DB68002B3B
:10EDA80045D02C4B1B6823F019027B68DB68294986
:10EDB80013430B60FAF76CF8786208E0FAF768F822
:10EDC80002467B6AD31A022B01D9032307E3214B9E
:10EDD8001B6803F00403002BF0D0FAF789F8034608
:10EDE80041F20302934217D87B681B69402B08D174
:10EDF800184B5B6823F47C33164A43F400335360A2
:10EE080030E0144B5B6823F47C327B681B691B037E
:10EE1800104913434B6025E00E4B5B6823F0FE421C
:10EE28007B681B691B060B4913434B601AE0094BAF
:10EE38001B68084A23F001031360FAF729F878627F
:10EE48000AE0FAF725F802467B6AD31A022B03D99F
:10EE58000323C4E200440258A44B1B6803F00403D4
:10EE6800002BEED17B681B6803F01003002B00F029
:10EE7800A9809E4B1B6903F03803BB619B4B9B6ABF
:10EE88007B61BB69082B07D0BB69182B3AD17B691A
:10EE980003F00303012B35D1944B1B6803F48073F3
:10EEA800002B05D07B68DB69802B01D0012396E21B
:10EEB800FAF71EF8034641F20302934217D87B681B
:10EEC8001B6A202B08D1894B5B6823F0F843874ADB
:10EED80043F08043536075E0844B5B6823F0F8424D
:10EEE8007B681B6A9B06814913434B606AE07F4B32
:10EEF800DB6823F07C527B681B6A1B067B49134343
:10EF0800CB605FE07B68DB69002B42D0774B1B68E6
:10EF1800764A43F080031360F9F7BAFF786208E095
:10EF2800F9F7B6FF02467B6AD31A022B01D90323ED
:10EF380055E26E4B1B6803F48073002BF0D0F9F791
:10EF4800D7FF034641F20302934217D87B681B6A36
:10EF5800202B08D1654B5B6823F0F843634A43F0E4
:10EF6800804353602EE0614B5B6823F0F8427B6876
:10EF78001B6A9B065D4913434B6023E05B4BDB68D0
:10EF880023F07C527B681B6A1B0658491343CB60ED
:10EF980018E0564B1B68554A23F080031360F9F7B5
:10EFA80077FF786208E0F9F773FF02467B6AD31AA5
:10EFB800022B01D9032312E24C4B1B6803F4807324
:10EFC800002BF0D17B681B6803F00803002B36D0B8
:10EFD8007B685B69002B19D0444B5B6F434A43F055
:10EFE80001035367F9F754FF786208E0F9F750FF17
:10EFF80002467B6AD31A022B01D90323EFE13B4B6C
:10F008005B6F03F00203002BF0D018E0374B5B6F07
:10F01800364A23F001035367F9F73AFF786208E0AC
:10F02800F9F736FF02467B6AD31A022B01D903236C
:10F03800D5E12E4B5B6F03F00203002BF0D17B6808
:10F048001B6803F02003002B36D07B689B69002BDC
:10F0580019D0264B1B68254A43F480531360F9F7EF
:10F0680017FF786208E0F9F713FF02467B6AD31AA4
:10F07800022B01D90323B2E11C4B1B6803F4005394
:10F08800002BF0D018E0194B1B68184A23F4805362
:10F098001360F9F7FDFE786208E0F9F7F9FE024619
:10F0A8007B6AD31A022B01D9032398E10F4B1B6803
:10F0B80003F40053002BF0D17B681B6803F00403B2
:10F0C800002B00F085800A4B1B68094A43F48073C3
:10F0D8001360F9F7DDFE78620CE0F9F7D9FE024615
:10F0E8007B6AD31A642B05D9032378E100440258BC
:10F0F80000480258964B1B6803F48073002BECD031
:10F108007B689B68012B06D1924B1B6F914A43F099
:10F11800010313672DE07B689B68002B0CD18D4B96
:10F128001B6F8C4A23F0010313678A4B1B6F894AB4
:10F1380023F0040313671CE07B689B68052B0CD144
:10F14800844B1B6F834A43F004031367814B1B6F87
:10F15800804A43F0010313670BE07E4B1B6F7D4A27
:10F1680023F0010313677B4B1B6F7A4A23F00403D8
:10F1780013677B689B68002B15D0F9F789FE7862C6
:10F188000AE0F9F785FE02467B6AD31A41F2883213
:10F19800934201D9032322E16E4B1B6F03F0020354
:10F1A800002BEED014E0F9F773FE78620AE0F9F765
:10F1B8006FFE02467B6AD31A41F28832934201D924
:10F1C80003230CE1634B1B6F03F00203002BEED10A
:10F1D8007B685B6A002B00F001815E4B1B6903F0C2
:10F1E8003803182B00F0BC807B685B6A022B40F068
:10F1F8009580584B1B68574A23F080731360F9F7C2
:10F2080047FE786208E0F9F743FE02467B6AD31AA4
:10F21800022B01D90323E2E04E4B1B6803F0007375
:10F22800002BF0D14B4B9A6A4B4B13407A68916A8A
:10F238007A68D26A12010A43464913438B627B6893
:10F248001B6B013BC3F308027B685B6B013B5B02F2
:10F258009BB21A437B689B6B013B1B0403F4FE03C0
:10F268001A437B68DB6B013B1B0603F0FE433949FD
:10F2780013430B63374BDB6A364A23F00103D3622F
:10F28800344B5A6B354B13407A68926CD200314933
:10F2980013434B632F4BDB6A23F00C027B681B6C18
:10F2A8002C491343CB622B4BDB6A23F002027B68A9
:10F2B8005B6C28491343CB62264BDB6A254A43F42F
:10F2C8008033D362234BDB6A224A43F40033D36290
:10F2D800204BDB6A1F4A43F48023D3621D4BDB6A51
:10F2E8001C4A43F00103D3621A4B1B68194A43F0C6
:10F2F80080731360F9F7CCFD786208E0F9F7C8FD70
:10F3080002467B6AD31A022B01D9032367E0114B0B
:10F318001B6803F00073002BF0D05FE00D4B1B68F7
:10F328000C4A23F080731360F9F7B2FD786208E0A5
:10F33800F9F7AEFD02467B6AD31A022B01D90323E3
:10F348004DE0044B1B6803F00073002BF0D145E03F
:10F3580000480258004402580CFCFFFF0700FFFF5A
:10F36800214B9B6A3B61204B1B6BFB607B685B6A94
:10F37800012B31D03B6903F003027B689B6A9A42F8
:10F388002AD13B691B0903F03F027B68DB6A9A427A
:10F3980022D1FB68C3F308027B681B6B013B9A42CE
:10F3A8001AD1FB685B0A03F07F027B685B6B013B49
:10F3B8009A4211D1FB681B0C03F07F027B689B6BA0
:10F3C800013B9A4208D1FB681B0E03F07F027B6861
:10F3D800DB6B013B9A4201D0012300E00023184671
:10F3E8003037BD4680BD00BF0044025880B586B0A6
:10F3F80000AF786039607B68002B01D101239CE164
:10F408008A4B1B6803F00F033A689A4210D9874B5E
:10F418001B6823F00F0285493B6813430B60834B3D
:10F428001B6803F00F033A689A4201D0012384E174
:10F438007B681B6803F00403002B10D07B681A69F3
:10F448007B4B9B6903F070039A4208D9784B9B6900
:10F4580023F070027B681B69754913438B617B68D5
:10F468001B6803F00803002B10D07B685A69704BA7
:10F47800DB6903F070039A4208D96D4BDB6923F00E
:10F4880070027B685B696A491343CB617B681B68C0
:10F4980003F01003002B10D07B689A69644BDB697A
:10F4A80003F4E0639A4208D9614BDB6923F4E06214
:10F4B8007B689B695E491343CB617B681B6803F0DB
:10F4C8002003002B10D07B68DA69594B1B6A03F0C4
:10F4D80070039A4208D9564B1B6A23F070027B6866
:10F4E800DB69534913430B627B681B6803F0020313
:10F4F800002B10D07B68DA684D4B9B6903F00F0333
:10F508009A4208D94A4B9B6923F00F027B68DB6853
:10F51800474913438B617B681B6803F00103002B89
:10F5280055D0434B9B6923F470627B689B684049C4
:10F5380013438B617B685B68022B07D13C4B1B68CC
:10F5480003F40033002B21D10123F6E07B685B68CC
:10F55800032B07D1364B1B6803F00073002B15D122
:10F568000123EAE07B685B68012B07D1304B1B68FD
:10F5780003F48073002B09D10123DEE02C4B1B68B8
:10F5880003F00403002B01D10123D6E0284B1B69AB
:10F5980023F007027B685B68254913430B61F9F781
:10F5A80077FC78610AE0F9F773FC02467B69D31AA5
:10F5B80041F28832934201D90323BEE01C4B1B69F8
:10F5C80003F038027B685B68DB009A42EBD17B680A
:10F5D8001B6803F00203002B10D07B68DA68144B19
:10F5E8009B6903F00F039A4208D2114B9B6923F0E1
:10F5F8000F027B68DB680E4913438B610B4B1B685A
:10F6080003F00F033A689A4214D2084B1B6823F0A0
:10F618000F0206493B6813430B60044B1B6803F059
:10F628000F033A689A4205D0012386E00020005271
:10F63800004402587B681B6803F00403002B10D0B9
:10F648007B681A693F4B9B6903F070039A4208D2A2
:10F658003C4B9B6923F070027B681B693949134353
:10F668008B617B681B6803F00803002B10D07B6854
:10F678005A69344BDB6903F070039A4208D2314B64
:10F68800DB6923F070027B685B692E491343CB6109
:10F698007B681B6803F01003002B10D07B689A6905
:10F6A800284BDB6903F4E0639A4208D2254BDB69F7
:10F6B80023F4E0627B689B6922491343CB617B6832
:10F6C8001B6803F02003002B10D07B68DA691D4B00
:10F6D8001B6A03F070039A4208D21A4B1B6A23F084
:10F6E80070027B68DB69174913430B6200F034F83A
:10F6F8000246144B9B691B0A03F00F031249CB5CAB
:10F7080003F01F0322FA03F33B610E4B9B6903F0DE
:10F718000F030D4AD35C03F01F033A6922FA03F37F
:10F728000A4A13600A4A3B6913600A4B1B68184669
:10F73800F9F764FB0346FB73FB7B18461837BD4695
:10F7480080BD00BF00440258F4600108F80000249E
:10F75800F4000024FC00002480B489B000AFB34B4F
:10F768001B6903F03803182B00F2558101A252F8E7
:10F7780023F000BFE1F700081FFA00081FFA00088D
:10F788001FFA00081FFA00081FFA00081FFA0008ED
:10F798001FFA000807F800081FFA00081FFA0008F7
:10F7A8001FFA00081FFA00081FFA00081FFA0008CD
:10F7B8001FFA00080DF800081FFA00081FFA0008D1
:10F7C8001FFA00081FFA00081FFA00081FFA0008AD
:10F7D8001FFA000813F80008944B1B6803F0200375
:10F7E800002B09D0914B1B68DB0803F00303904AF8
:10F7F80022FA03F3BB6111E18D4BBB610EE18D4B26
:10F80800BB610BE18C4BBB6108E1884B9B6A03F041
:10F8180003037B61854B9B6A1B0903F03F033B6134
:10F82800824BDB6A03F00103FB60804B5B6BDB08F8
:10F83800C3F30C03FA6802FB03F307EE903AF8EE01
:10F84800677AC7ED027A3B69002B00F0E1807B699B
:10F85800022B00F083807B69022B00F2A1807B6978
:10F86800002B03D07B69012B56D099E06F4B1B68A6
:10F8780003F02003002B2DD06C4B1B68DB0803F032
:10F8880003036B4A22FA03F37B607B6807EE903A26
:10F89800F8EE676A3B6907EE903AF8EE677A86EE0B
:10F8A800A77A624B1B6BC3F3080307EE903AF8EE96
:10F8B800676A97ED026ADFED615AC6EE257A76EE41
:10F8C800A77AF7EE006A77EEA67A67EE277AC7ED91
:10F8D800077A87E03B6907EE903AF8EE677ADFED42
:10F8E800586A86EEA77A514B1B6BC3F3080307EEE1
:10F8F800903AF8EE676A97ED026ADFED505AC6EE65
:10F90800257A76EEA77AF7EE006A77EEA67A67EEA2
:10F91800277AC7ED077A65E03B6907EE903AF8EE7B
:10F92800677ADFED486A86EEA77A404B1B6BC3F314
:10F93800080307EE903AF8EE676A97ED026ADFED82
:10F948003F5AC6EE257A76EEA77AF7EE006A77EE8A
:10F95800A67A67EE277AC7ED077A43E03B6907EE98
:10F96800903AF8EE677ADFED386A86EEA77A2F4B81
:10F978001B6BC3F3080307EE903AF8EE676A97ED3E
:10F98800026ADFED2E5AC6EE257A76EEA77AF7EEF2
:10F99800006A77EEA67A67EE277AC7ED077A21E044
:10F9A8003B6907EE903AF8EE677ADFED266A86EE55
:10F9B800A77A1E4B1B6BC3F3080307EE903AF8EEC9
:10F9C800676A97ED026ADFED1D5AC6EE257A76EE74
:10F9D800A77AF7EE006A77EEA67A67EE277AC7ED80
:10F9E800077A00BF114B1B6B5B0A03F07F030133DF
:10F9F8003B603B6807EE903AB8EE677AD7ED076A46
:10FA0800C6EE877AFCEEE77A17EE903ABB6105E01E
:10FA18000023BB6102E0074BBB6100BFBB6918460E
:10FA28002437BD465DF8047B704700BF0044025888
:10FA38000090D00300093D0040787D010000004699
:10FA48000024744C0024744A20BCBE4B80B582B09C
:10FA580000AFFFF781FE0246104B9B691B0A03F0BB
:10FA68000F030F49CB5C03F01F0322FA03F37B60FB
:10FA78000A4B9B6903F00F03094AD35C03F01F0389
:10FA88007A6822FA03F3074A1360074A7B6813600F
:10FA9800044B1B6818460837BD4680BD0044025811
:10FAA800F4600108F8000024F400002480B500AFD9
:10FAB800FFF7CCFF0246064BDB691B0A03F007037E
:10FAC8000449CB5C03F01F0322FA03F3184680BDF8
:10FAD80000440258F460010880B586B000AF786031
:10FAE8000023FB750023BB757B681B6803F000636C
:10FAF800002B3FD07B689B6EB3F5401F2AD0B3F52F
:10FB0800401F24D8B3F5001F18D0B3F5001F1ED826
:10FB1800002B03D0B3F5801F07D018E0AB4BDB6A8E
:10FB2800AA4A43F40033D36215E07B680433022108
:10FB3800184602F09BF90346FB750CE07B682433FA
:10FB48000221184602F044FA0346FB7503E001233C
:10FB5800FB7500E000BFFB7D002B09D19B4B1B6DA3
:10FB680023F440127B689B6E984913430B6501E0B0
:10FB7800FB7DBB757B681B6803F48073002B3DD04D
:10FB88007B689B6D042B26D801A252F823F000BF96
:10FB9800ADFB0008BBFB0008CDFB0008E5FB000837
:10FBA800E5FB0008894BDB6A884A43F40033D362DB
:10FBB80015E07B6804330021184602F057F9034624
:10FBC800FB750CE07B6824330021184602F000FA2C
:10FBD8000346FB7503E00123FB7500E000BFFB7DD6
:10FBE800002B09D1794B1B6D23F007027B689B6DB5
:10FBF800764913430B6501E0FB7DBB757B681B6889
:10FC080003F40073002B42D07B68DB6DB3F5807F73
:10FC18002BD0B3F5807F25D8C02B28D0C02B21D876
:10FC2800802B16D0802B1DD8002B02D0402B07D05C
:10FC380018E0664BDB6A654A43F40033D36217E089
:10FC48007B6804330021184602F010F90346FB755F
:10FC58000EE07B6824330021184602F0B9F9034608
:10FC6800FB7505E00123FB7502E000BF00E000BF63
:10FC7800FB7D002B09D1554B1B6D23F4E0727B688B
:10FC8800DB6D524913430B6501E0FB7DBB757B6857
:10FC98001B6803F48063002B49D07B68D3F8A83035
:10FCA800B3F5000F30D0B3F5000F2AD8B3F5C00F65
:10FCB8002CD0B3F5C00F24D8B3F5800F18D0B3F506
:10FCC800800F1ED8002B03D0B3F5001F07D018E013
:10FCD8003E4BDB6A3D4A43F40033D36217E07B684E
:10FCE80004330021184602F0C1F80346FB750EE004
:10FCF8007B6824330021184602F06AF90346FB7535
:10FD080005E00123FB7502E000BF00E000BFFB7DBA
:10FD1800002B0AD12D4B9B6D23F460027B68D3F82E
:10FD2800A8302A4913438B6501E0FB7DBB757B68CE
:10FD38001B6803F40063002B4CD07B68D3F8AC300D
:10FD4800B3F1806F30D0B3F1806F2AD8B3F1407F20
:10FD58002CD0B3F1407F24D8B3F1007F18D0B3F191
:10FD6800007F1ED8002B03D0B3F1807F07D018E0A6
:10FD7800164BDB6A154A43F40033D36217E07B68FD
:10FD880004330021184602F071F80346FB750EE0B3
:10FD98007B6824330021184602F01AF90346FB75E4
:10FDA80005E00123FB7502E000BF00E000BFFB7D1A
:10FDB800002B0DD1054B9B6D23F0E0627B68D3F8D7
:10FDC800AC30024913438B6504E000BF004402587D
:10FDD800FB7DBB757B681B6803F00073002B32D07A
:10FDE8007B689B6C302B1CD0302B17D8202B0CD069
:10FDF800202B13D8002B16D0102B0FD1B14BDB6A58
:10FE0800B04A43F40033D3620EE07B680433022126
:10FE1800184602F02BF80346FB7505E00123FB7535
:10FE280002E000BF00E000BFFB7D002B09D1A54B1D
:10FE3800DB6C23F030027B689B6CA2491343CB64D4
:10FE480001E0FB7DBB757B681B6803F48053002BC6
:10FE580047D07B681B6EB3F5804F30D0B3F5804F29
:10FE68002AD8B3F5405F2CD0B3F5405F24D8B3F55A
:10FE7800005F18D0B3F5005F1ED8002B03D0B3F590
:10FE8800805F07D018E08F4BDB6A8E4A43F400335B
:10FE9800D36217E07B6804330021184601F0E6FFBF
:10FEA8000346FB750EE07B6824330021184602F0F8
:10FEB8008FF80346FB7505E00123FB7502E000BFE0
:10FEC80000E000BFFB7D002B09D17E4B1B6D23F4A6
:10FED800E0427B681B6E7B4913430B6501E0FB7DA9
:10FEE800BB757B681B6803F40053002B49D07B6803
:10FEF8005B6EB3F5A02F2ED0B3F5A02F28D8B3F59D
:10FF0800802F2AD0B3F5802F22D8B3F5403F26D0D2
:10FF1800B3F5403F1CD8B3F5003F10D0B3F5003F10
:10FF280016D8002B1DD0B3F5803F11D17B68043360
:10FF38000121184601F09AFF0346FB7512E07B6821
:10FF480024330121184602F043F80346FB7509E003
:10FF58000123FB7506E000BF04E000BF02E000BF1C
:10FF680000E000BFFB7D002B09D1564B1B6D23F42D
:10FF7800E0227B685B6E534913430B6501E0FB7D10
:10FF8800BB757B681B6803F48043002B4BD07B68F0
:10FF9800D3F8B030B3F1A04F2ED0B3F1A04F28D88A
:10FFA800B3F1804F2AD0B3F1804F22D8B3F1405F2C
:10FFB80026D0B3F1405F1CD8B3F1005F10D0B3F185
:10FFC800005F16D8002B1DD0B3F1805F11D17B687C
:10FFD80004330121184601F049FF0346FB7512E07E
:10FFE8007B6824330121184601F0F2FF0346FB75B4
:08FFF80009E00123FB7506E09E
:020000040801F1
:1000000000BF04E000BF02E000BF00E000BFFB7DD6
:10001000002B0AD12D4B9B6D23F0E0427B68D3F877
:10002000B0302A4913438B6501E0FB7DBB757B68CB
:100030001B6803F08063002B22D07B68DB6C002BF5
:100040000ED0B3F5807F08D17B68043301211846B8
:1000500001F010FF0346FB7503E00123FB7500E090
:1000600000BFFB7D002B09D1184BDB6C23F48072A1
:100070007B68DB6C15491343CB6401E0FB7DBB75EA
:100080007B681B6803F40043002B31D07B681B6F37
:10009000B3F1005F0ED0B3F1005F14D8002B17D07E
:1000A000B3F1805F0FD1094BDB6A084A43F4003398
:1000B000D3620EE07B6804330121184601F0DAFEBA
:1000C0000346FB7505E00123FB7502E0004402587E
:1000D00000BFFB7D002B09D1BC4B1B6D23F04052B0
:1000E0007B681B6FB94913430B6501E0FB7DBB7552
:1000F0007B681B6803F08073002B32D07B685B6CDD
:10010000032B1BD801A252F823F000BF43010108C2
:100110001D0101082B01010843010108AB4BDB6AFB
:10012000AA4A43F40033D3620CE07B680433022113
:10013000184601F09FFE0346FB7503E00123FB75A3
:1001400000E000BFFB7D002B09D1A04BDB6C23F04E
:1001500003027B685B6C9D491343CB6401E0FB7D2C
:10016000BB757B681B6803F48003002B00F086805E
:10017000974B1B68964A43F480731360F8F78CFE24
:10018000386109E0F8F788FE02463B69D31A642B10
:1001900002D90323FB7505E08D4B1B6803F48073C4
:1001A000002BEFD0FB7D002B66D1884B1A6F7B684C
:1001B000D3F8B430534003F44073002B13D0834B77
:1001C0001B6F23F44073FB60804B1B6F7F4A43F42B
:1001D000803313677D4B1B6F7C4A23F48033136796
:1001E0007A4AFB6813677B68D3F8B430B3F5807F35
:1001F00015D1F8F751FE38610BE0F8F74DFE0246D5
:100200003B69D31A41F28832934202D90323FB752A
:1002100005E06E4B1B6F03F00203002BEDD0FB7D5E
:10022000002B26D17B68D3F8B43003F44073B3F5C8
:10023000407F0DD1654B1B6923F47C527B68D3F85A
:10024000B4301909634B0B40604913430B6105E05F
:100250005E4B1B695D4A23F47C5313615B4B1A6F41
:100260007B68D3F8B430C3F30B03584913430B67CF
:1002700004E0FB7DBB7501E0FB7DBB757B681B6803
:1002800003F00103002B7ED07B68DB6F282B67D83F
:1002900001A252F823F000BF6703010861030108BF
:1002A000610301086103010861030108610301089A
:1002B00061030108610301083D03010861030108AE
:1002C000610301086103010861030108610301087A
:1002D00061030108610301084F030108610301087C
:1002E000610301086103010861030108610301085A
:1002F0006103010861030108670301086103010844
:100300006103010861030108610301086103010839
:100310006103010861030108670301086103010823
:100320006103010861030108610301086103010819
:100330006103010861030108670301087B68043356
:100340000121184601F096FD0346FB750CE07B6821
:1003500024330121184601F03FFE0346FB7503E0FC
:100360000123FB7500E000BFFB7D002B09D1174B7B
:100370005B6D23F038027B68DB6F144913434B65D8
:1003800001E0FB7DBB757B681B6803F00203002B5B
:100390003ED07B689B6F052B27D801A252F823F033
:1003A000F1030108B9030108D9030108F1030108A9
:1003B000F1030108F10301087B68043301211846A9
:1003C00001F058FD0346FB7513E000BF00440258DE
:1003D00000480258CFFFFF007B68243301211846F4
:1003E00001F0FAFD0346FB7503E00123FB7500E015
:1003F00000BFFB7D002B09D19F4B5B6D23F00702F3
:100400007B689B6F9C4913434B6501E0FB7DBB758B
:100410007B681B6803F00403002B39D07B68D3F89A
:100420009430052B20D801A252F823F06F04010864
:1004300045040108570401086F0401086F0401080E
:100440006F0401087B6804330121184601F012FD96
:100450000346FB750CE07B6824330121184601F04C
:10046000BBFD0346FB7503E00123FB7500E000BF05
:10047000FB7D002B0AD1804B9B6D23F007027B682C
:10048000D3F894307C4913438B6501E0FB7DBB7549
:100490007B681B6803F02003002B4BD07B68D3F8EC
:1004A0009030B3F1A04F2ED0B3F1A04F28D8B3F1C4
:1004B000804F2AD0B3F1804F22D8B3F1405F26D0CD
:1004C000B3F1405F1CD8B3F1005F10D0B3F1005F0F
:1004D00016D8002B1DD0B3F1805F11D17B68043397
:1004E0000021184601F0C6FC0346FB7512E07B684C
:1004F00024330221184601F06FFD0346FB7509E025
:100500000123FB7506E000BF04E000BF02E000BF6E
:1005100000E000BFFB7D002B0AD1574B5B6D23F041
:10052000E0427B68D3F89030534913434B6501E0B8
:10053000FB7DBB757B681B6803F04003002B4BD031
:100540007B68D3F89C30B3F5A05F2ED0B3F5A05FE5
:1005500028D8B3F5805F2AD0B3F5805F22D8B3F5F1
:10056000406F26D0B3F5406F1CD8B3F5006F10D0A4
:10057000B3F5006F16D8002B1DD0B3F5806F11D1E5
:100580007B6804330021184601F074FC0346FB75B8
:1005900012E07B6824330221184601F01DFD03465A
:1005A000FB7509E00123FB7506E000BF04E000BF16
:1005B00002E000BF00E000BFFB7D002B0AD12E4B04
:1005C0009B6D23F4E0527B68D3F89C302A49134397
:1005D0008B6501E0FB7DBB757B681B6803F08003C6
:1005E000002B4DD07B68D3F8A030B3F5204F2ED030
:1005F000B3F5204F28D8B3F5004F2AD0B3F5004FFC
:1006000022D8B3F5C04F26D0B3F5C04F1CD8B3F5F0
:10061000804F10D0B3F5804F16D8002B1DD0B3F506
:10062000005F11D17B6804330021184601F022FCE1
:100630000346FB7512E07B6824330221184601F063
:10064000CBFC0346FB7509E00123FB7506E000BF08
:1006500004E000BF02E000BF00E000BFFB7D002B14
:100660000CD1054B9B6D23F460427B68D3F8A0301E
:10067000014913438B6503E000440258FB7DBB75C1
:100680007B681B6803F00803002B1AD07B68D3F843
:100690008430B3F5805F0AD17B6824330221184689
:1006A00001F09AFC0346002B01D00123BB758C4B53
:1006B0005B6D23F440527B68D3F884308849134340
:1006C0004B657B681B6803F01003002B1AD07B6816
:1006D000D3F89830B3F5807F0AD17B6824330221A8
:1006E000184601F079FC0346002B01D00123BB75AD
:1006F0007B4B9B6D23F440727B68D3F8983078492C
:1007000013438B657B681B6803F40023002B34D0F4
:100710007B68D3F8A430B3F5003F1DD0B3F5003F9C
:1007200017D8002B03D0B3F5803F09D011E07B68C8
:1007300004330021184601F09DFB0346FB750CE0D5
:100740007B6824330221184601F046FC0346FB7502
:1007500003E00123FB7500E000BFFB7D002B0AD105
:100760005F4B9B6D23F440327B68D3F8A4305C4927
:1007700013438B6501E0FB7DBB757B681B6803F44D
:100780008023002B33D07B68D3F88830B3F5401F2B
:100790001CD0B3F5401F16D8B3F5801F03D0B3F5B6
:1007A000001F07D00FE04E4BDB6A4D4A43F4003385
:1007B000D3620CE07B6824330121184601F00CFC65
:1007C0000346FB7503E00123FB7500E000BFFB7DE2
:1007D000002B0AD1424B5B6D23F440127B68D3F8A7
:1007E00088303F4913434B6501E0FB7DBB757B6857
:1007F0001B6803F48033002B29D07B681B6D002B12
:1008000003D0B3F5803F07D00FE0354BDB6A344AA5
:1008100043F40033D3620BE07B68043302211846B3
:1008200001F028FB0346FB7502E00123FB7500BFC6
:10083000FB7D002B09D12A4BDB6C23F480327B68D3
:100840001B6D27491343CB6401E0FB7DBB757B68BF
:100850001B6803F00053002B0AD07B68243302216D
:10086000184601F0B9FB0346002B01D00123BB75EC
:100870007B681B6803F40033002B35D07B68D3F80A
:100880008030B3F5407F17D0B3F5407F11D8B3F572
:10089000007F13D0B3F5007F0BD8002B10D0B3F539
:1008A000807F06D10E4BDB6A0D4A43F40033D362DE
:1008B00007E00123FB7504E000BF02E000BF00E099
:1008C00000BFFB7D002B0DD1054B5B6D23F4407207
:1008D0007B68D3F88030024913434B6504E000BFC6
:1008E00000440258FB7DBB757B681B6803F48013D2
:1008F000002B08D0314B1B6D23F000427B685B6FEF
:100900002E4913430B657B681B6803F08053002B53
:1009100009D02A4B1B6923F480427B68D3F8B83096
:10092000264913430B617B681B6803F40013002BFB
:1009300008D0224B1B6D23F080727B68DB6E1F4951
:1009400013430B657B681B6803F08043002B0DD0BD
:100950001A4B1B69194A23F400431361174B1A6998
:100960007B68D3F8BC30154913430B617B681B6867
:10097000002B08DA114BDB6C23F040527B685B6D77
:100980000E491343CB647B681B6803F40003002B00
:1009900009D00A4B5B6D23F440027B68D3F88C309E
:1009A000064913434B65BB7D002B01D1002300E0BA
:1009B000012318461837BD4680BD00BF00440258C9
:1009C00080B483B000AF78607B68A34A1A607B680C
:1009D0001B6843F008027B681A607B681B6843F45D
:1009E00000727B681A607B681B6843F480627B68D6
:1009F0001A607B681B6843F400627B681A607B683E
:100A00001B6843F000727B681A607B681B6843F0C8
:100A100080527B681A607B681B6843F000527B68D9
:100A20001A607B681B6843F080627B681A608B4B9E
:100A30009B6A1B0D03F03F027B685A62874B1B6C5D
:100A4000C3F308035A1C7B689A62844B1B6C1B0E11
:100A500003F07F035A1C7B685A63804B1B6C5B0A54
:100A600003F07F035A1C7B68DA627C4B1B6C1B0C07
:100A700003F07F035A1C7B681A63784BDB6A9B0A7E
:100A800003F003027B689A63744BDB6A5B0A03F032
:100A900001027B68DA63714B9B6A1B0B03F03F0218
:100AA0007B685A606D4B9B6BC3F308035A1C7B68D1
:100AB0009A606A4B9B6B1B0E03F07F035A1C7B688A
:100AC0005A61664B9B6B5B0A03F07F035A1C7B6881
:100AD000DA60624B9B6B1B0C03F07F035A1C7B6834
:100AE0001A615E4BDB6A9B0903F003027B689A6123
:100AF0005A4BDB6A5B0903F001027B68DA61574BF2
:100B00005B6D03F038027B68DA67544B5B6D03F072
:100B100007027B689A67514B9B6D03F007027B6865
:100B2000C3F894204D4B5B6D03F440527B68C3F8CF
:100B300084204A4B5B6D03F0E0427B68C3F8902051
:100B4000464B9B6D03F4E0527B68C3F89C20434BFB
:100B50009B6D03F460427B68C3F8A0203F4B1B6D84
:100B600003F007027B689A653C4B1B6D03F4E0724F
:100B70007B68DA65394B9B6D03F460027B68C3F8D0
:100B8000A820364B9B6D03F0E0627B68C3F8AC2075
:100B9000324B1B6F03F440727B68C3F8B4202F4BB9
:100BA0005B6D03F440127B68C3F888202B4BDB6C31
:100BB00003F480327B681A65284B5B6D03F4407246
:100BC0007B68C3F88020254B1B6903F480427B6857
:100BD000C3F8B820214B9B6D03F440327B68C3F807
:100BE000A4201E4B1B6D03F000427B685A671B4B11
:100BF0001B6D03F080727B68DA66184B1B6D03F483
:100C000040127B689A66154B1B6D03F4E0427B68CB
:100C10001A66124B1B6D03F4E0227B685A660F4B79
:100C20009B6D03F0E0427B68C3F8B0200B4B1B6D5B
:100C300003F040527B681A67084B5B6D03F4400277
:100C40007B68C3F88C20054BDB6C03F003027B68E8
:100C50005A64024BDB6C03E0F7F1FFC90044025811
:100C600003F030027B689A64104BDB6C03F48072F3
:100C70007B68DA640D4BDB6C03F040527B685A658D
:100C80000A4B1B6903F40043002B04D17B6800224C
:100C9000C3F8BC2004E07B684FF40042C3F8BC20DA
:100CA00000BF0C37BD465DF8047B70470044025816
:100CB00080B590B000AF78607B68B3F5807F40F07E
:100CC0009580AE4B1B6D03F007033B633B6B042B1E
:100CD00000F2888001A252F823F000BFF10C010855
:100CE000190D0108410D0108DD0D0108690D01080C
:100CF000A24B1B6803F00073B3F1007F08D107F12A
:100D00002403184600F064FFBB6AFB6300F095BC47
:100D10000023FB6300F091BC984B1B6803F0006359
:100D2000B3F1006F08D107F11803184600F0A8FCD2
:100D3000BB69FB6300F081BC0023FB6300F07DBC5A
:100D40008E4B1B6803F00053B3F1005F08D107F12D
:100D50000C03184600F0E8FDFB68FB6300F06DBC77
:100D60000023FB6300F069BC844BDB6C03F0405351
:100D70007B63824B1B6803F00403042B0CD17B6B59
:100D8000002B09D17D4B1B68DB0803F003037C4A71
:100D900022FA03F3FB631FE0784B1B6803F48073B4
:100DA000B3F5807F06D17B6BB3F1805F02D1754BC9
:100DB000FB6311E0714B1B6803F40033B3F5003F94
:100DC00006D17B6BB3F1005F02D16F4BFB6303E095
:100DD0000023FB6300F031BC00F02FBC6B4BFB63C6
:100DE00000F02BBC0023FB6300F027BC7B68B3F54D
:100DF000007F40F09580614B1B6D03F4E0733B6313
:100E00003B6BB3F5807F4DD03B6BB3F5807F00F239
:100E100084803B6BC02B7DD03B6BC02B7DD83B6B64
:100E2000802B2DD03B6B802B77D83B6B002B03D0D6
:100E30003B6B402B12D070E0504B1B6803F00073EB
:100E4000B3F1007F07D107F12403184600F0C0FE7C
:100E5000BB6AFB63F1E30023FB63EEE3474B1B68D4
:100E600003F00063B3F1006F07D107F118031846D0
:100E700000F006FCBB69FB63DFE30023FB63DCE3FC
:100E80003E4B1B6803F00053B3F1005F07D107F13D
:100E90000C03184600F048FDFB68FB63CDE300231C
:100EA000FB63CAE3354BDB6C03F040537B63334B8E
:100EB0001B6803F00403042B0CD17B6B002B09D1BE
:100EC0002E4B1B68DB0803F003032D4A22FA03F3C1
:100ED000FB631EE0294B1B6803F48073B3F5807F2E
:100EE00006D17B6BB3F1805F02D1264BFB6310E030
:100EF000224B1B6803F40033B3F5003F06D17B6B34
:100F0000B3F1005F02D1204BFB6302E00023FB63DF
:100F100093E392E31D4BFB638FE30023FB638CE3BE
:100F20007B68B3F5806F40F0A780144B9B6D03F492
:100F300060033B633B6BB3F5000F5FD03B6BB3F5D6
:100F4000000F00F296803B6BB3F5C00F00F08E806F
:100F50003B6BB3F5C00F00F28C803B6BB3F5800F99
:100F60003AD03B6BB3F5800F00F283803B6B002BD4
:100F70000ED03B6BB3F5001F1CD07AE00044025842
:100F80000090D00300093D0040787D010080BB0047
:100F9000AA4B1B6803F00073B3F1007F07D107F180
:100FA0002403184600F014FEBB6AFB6345E30023EC
:100FB000FB6342E3A14B1B6803F00063B3F1006FD6
:100FC00007D107F11803184600F05AFBBB69FB6311
:100FD00033E30023FB6330E3984B1B6803F00053BB
:100FE000B3F1005F07D107F10C03184600F09CFC39
:100FF000FB68FB6321E30023FB631EE38F4BDB6C89
:1010000003F040537B638D4B1B6803F00403042BF8
:101010000CD17B6B002B09D1884B1B68DB0803F0DC
:101020000303874A22FA03F3FB631EE0834B1B682A
:1010300003F48073B3F5807F06D17B6BB3F1805FDF
:1010400002D1804BFB6310E07C4B1B6803F4003340
:10105000B3F5003F06D17B6BB3F1005F02D17A4B51
:10106000FB6302E00023FB63E7E2E6E2774BFB630E
:10107000E3E20023FB63E0E27B68B3F5006F40F03E
:101080009C806E4B9B6D03F0E0633B633B6BB3F165
:10109000806F54D03B6BB3F1806F00F28B803B6B61
:1010A000B3F1407F00F083803B6BB3F1407F00F2EF
:1010B00081803B6BB3F1007F2FD03B6BB3F1007F9E
:1010C00078D83B6B002B04D03B6BB3F1807F12D000
:1010D00070E05A4B1B6803F00073B3F1007F07D137
:1010E00007F12403184600F073FDBB6AFB63A4E21A
:1010F0000023FB63A1E2514B1B6803F00063B3F1D3
:10110000006F07D107F11803184600F0B9FABB6960
:10111000FB6392E20023FB638FE2484B1B6803F002
:101120000053B3F1005F07D107F10C03184600F03C
:10113000FBFBFB68FB6380E20023FB637DE23F4B2C
:10114000DB6C03F040537B633C4B1B6803F00403F0
:10115000042B0CD17B6B002B09D1384B1B68DB08AF
:1011600003F00303364A22FA03F3FB631EE0334B1A
:101170001B6803F48073B3F5807F06D17B6BB3F1FA
:10118000805F02D12F4BFB6310E02C4B1B6803F4F4
:101190000033B3F5003F06D17B6BB3F1005F02D1A2
:1011A000294BFB6302E00023FB6346E245E2274B49
:1011B000FB6342E20023FB633FE27B68B3F5805FA1
:1011C00040F0A8801D4B1B6D03F4E043BB63BB6B79
:1011D000B3F5804F60D0BB6BB3F5804F00F29780C2
:1011E000BB6BB3F5405F00F08F80BB6BB3F5405F26
:1011F00000F28D80BB6BB3F5005F3BD0BB6BB3F5EA
:10120000005F00F28480BB6B002B04D0BB6BB3F596
:10121000805F1DD07BE0094B1B6803F00073B3F1C6
:10122000007F07D107F12403184600F0D1FCBB6A08
:10123000FB6302E20023FB63FFE100BF00440258AE
:101240000090D00300093D0040787D010080BB0084
:10125000A34B1B6803F00063B3F1006F07D107F1E4
:101260001803184600F00CFABB69FB63E5E10023A4
:10127000FB63E2E19A4B1B6803F00053B3F1005F9C
:1012800007D107F10C03184600F04EFBFB68FB6327
:10129000D3E10023FB63D0E1914BDB6C03F04053BF
:1012A0007B638F4B1B6803F00403042B0CD17B6B17
:1012B000002B09D18A4B1B68DB0803F00303894A22
:1012C00022FA03F3FB631EE0854B1B6803F4807373
:1012D000B3F5807F06D17B6BB3F1805F02D1824B87
:1012E000FB6310E07E4B1B6803F40033B3F5003F53
:1012F00006D17B6BB3F1005F02D17C4BFB6302E054
:101300000023FB6399E198E1794BFB6395E10023AE
:10131000FB6392E17B68B3F5002F73D1704B9B6D3B
:1013200003F44033BB63BB6BB3F5003F2FD0BB6B03
:10133000B3F5003F63D8BB6B002B04D0BB6BB3F598
:10134000803F12D05BE0664B1B6803F00063B3F193
:10135000006F07D107F11803184600F091F9BB6937
:10136000FB636AE10023FB6367E15D4B1B6803F0ED
:101370000053B3F1005F07D107F10C03184600F0EA
:10138000D3FA7B69FB6358E10023FB6355E1544BBF
:10139000DB6C03F040537B63514B1B6803F0040389
:1013A000042B0CD17B6B002B09D14D4B1B68DB0848
:1013B00003F003034B4A22FA03F3FB631EE0484B9E
:1013C0001B6803F48073B3F5807F06D17B6BB3F1A8
:1013D000805F02D1444BFB6310E0414B1B6803F478
:1013E0000033B3F5003F06D17B6BB3F1005F02D150
:1013F0003E4BFB6302E00023FB631EE11DE1002383
:10140000FB631AE17B68B3F5803F33D1344BDB6C6F
:1014100003F48033BB63BB6B002B04D0BB6BB3F511
:10142000803F12D023E02E4B1B6803F00073B3F112
:10143000007F07D107F12403184600F0C9FBBB6AFF
:10144000FB63FAE00023FB63F7E0254B1B6803F026
:101450000063B3F1006F07D107F11803184600F0DD
:101460000FF93B6AFB63E8E00023FB63E5E0002340
:10147000FB63E2E07B68B3F5804F40F08F80184B50
:101480009B6D03F0E043BB63BB6BB3F1A04F75D022
:10149000BB6BB3F1A04F7ED8BB6BB3F1804F60D074
:1014A000BB6BB3F1804F76D8BB6BB3F1405F45D0D7
:1014B000BB6BB3F1405F6ED8BB6BB3F1005F2BD059
:1014C000BB6BB3F1005F66D8BB6B002B04D0BB6B6A
:1014D000B3F1805F0ED05EE000F0BCF8F863ACE0E2
:1014E000004402580090D00300093D0040787D017F
:1014F0000080BB00534B1B6803F00063B3F1006F27
:1015000007D107F11803184600F0BAF8FB69FB632E
:1015100093E00023FB6390E04A4B1B6803F0005309
:10152000B3F1005F07D107F10C03184600F0FCF996
:101530003B69FB6381E00023FB637EE0414B1B685A
:1015400003F00403042B09D13E4B1B68DB0803F0B6
:1015500003033D4A22FA03F3FB636EE00023FB63BF
:101560006BE0384B1B6803F48073B3F5807F02D1C6
:10157000364BFB6361E00023FB635EE0314B1B688D
:1015800003F40033B3F5003F02D1314BFB6354E069
:101590000023FB6351E00023FB634EE07B68B3F55F
:1015A000004F48D1274B1B6D03F04053BB63BB6B0F
:1015B000B3F1005F2AD0BB6BB3F1005F38D8BB6BCF
:1015C000002B04D0BB6BB3F1805F0DD030E01D4B1E
:1015D0001B6803F40033B3F5003F02D11C4BFB63DF
:1015E0002BE00023FB6328E0164B1B6803F000731D
:1015F000B3F1007F07D107F12403184600F0E8FAA1
:10160000BB6AFB6319E00023FB6316E00D4B1B680C
:1016100003F00063B3F1006F07D107F11803184618
:1016200000F02EF8FB69FB6307E00023FB6304E096
:101630000023FB6301E00023FB63FB6B184640378C
:10164000BD4680BD004402580090D00300093D0013
:1016500040787D0180B500AFFEF7FCF90246064BED
:101660001B6A1B0903F007030449CB5C03F01F034B
:1016700022FA03F3184680BD00440258F4600108C2
:1016800080B489B000AF7860A14B9B6A03F003037C
:10169000BB619F4B9B6A1B0B03F03F037B619C4B21
:1016A000DB6A1B0903F001033B61994BDB6BDB0831
:1016B000C3F30C033A6902FB03F307EE903AF8EE2A
:1016C000677AC7ED037A7B69002B00F01181BB6953
:1016D000022B00F08380BB69022B00F2A180BB6962
:1016E000002B03D0BB69012B56D099E0884B1B68B7
:1016F00003F02003002B2DD0854B1B68DB0803F083
:101700000303844A22FA03F3BB60BB6807EE903AF6
:10171000F8EE676A7B6907EE903AF8EE677A86EE34
:10172000A77A7B4B9B6BC3F3080307EE903AF8EE66
:10173000676A97ED036ADFED785AC6EE257A76EE92
:10174000A77AF7EE006A77EEA67A67EE277AC7EDFA
:10175000077A87E07B6907EE903AF8EE677ADFED6B
:101760006F6A86EEA77A6A4B9B6BC3F3080307EE9A
:10177000903AF8EE676A97ED036ADFED675AC6EEB6
:10178000257A76EEA77AF7EE006A77EEA67A67EE0C
:10179000277AC7ED077A65E07B6907EE903AF8EEA5
:1017A000677ADFED5F6A86EEA77A594B9B6BC3F3CE
:1017B000080307EE903AF8EE676A97ED036ADFEDEB
:1017C000565AC6EE257A76EEA77AF7EE006A77EEDD
:1017D000A67A67EE277AC7ED077A43E07B6907EEC2
:1017E000903AF8EE677ADFED4F6A86EEA77A484BBB
:1017F0009B6BC3F3080307EE903AF8EE676A97ED28
:10180000036ADFED455AC6EE257A76EEA77AF7EE43
:10181000006A77EEA67A67EE277AC7ED077A21E0AD
:101820007B6907EE903AF8EE677ADFED3D6A86EE67
:10183000A77A374B9B6BC3F3080307EE903AF8EE99
:10184000676A97ED036ADFED345AC6EE257A76EEC5
:10185000A77AF7EE006A77EEA67A67EE277AC7EDE9
:10186000077A00BF2A4B9B6B5B0A03F07F0307EEEE
:10187000903AF8EE677AB7EE007A37EE877AD7EDCE
:10188000076AC6EE877AFCEEE77A17EE902A7B6845
:101890001A601F4B9B6B1B0C03F07F0307EE903A03
:1018A000F8EE677AB7EE007A37EE877AD7ED076AF7
:1018B000C6EE877AFCEEE77A17EE902A7B685A60CC
:1018C000134B9B6B1B0E03F07F0307EE903AF8EE71
:1018D000677AB7EE007A37EE877AD7ED076AC6EEF9
:1018E000877AFCEEE77A17EE902A7B689A6008E028
:1018F0007B6800221A607B6800225A607B680022A5
:101900009A6000BF2437BD465DF8047B704700BF76
:10191000004402580090D003000000460024744C9C
:101920000024744A20BCBE4B80B489B000AF7860FC
:10193000A14B9B6A03F00303BB619F4B9B6A1B0D8A
:1019400003F03F037B619C4BDB6A1B0A03F001033E
:101950003B61994B5B6CDB08C3F30C033A6902FBF8
:1019600003F307EE903AF8EE677AC7ED037A7B69E6
:10197000002B00F01181BB69022B00F08380BB6952
:10198000022B00F2A180BB69002B03D0BB69012BA5
:1019900056D099E0884B1B6803F02003002B2DD014
:1019A000854B1B68DB0803F00303844A22FA03F328
:1019B000BB60BB6807EE903AF8EE676A7B6907EE9A
:1019C000903AF8EE677A86EEA77A7B4B1B6CC3F3EE
:1019D000080307EE903AF8EE676A97ED036ADFEDC9
:1019E000785AC6EE257A76EEA77AF7EE006A77EE99
:1019F000A67A67EE277AC7ED077A87E07B6907EE5C
:101A0000903AF8EE677ADFED6F6A86EEA77A6A4B56
:101A10001B6CC3F3080307EE903AF8EE676A97ED84
:101A2000036ADFED675AC6EE257A76EEA77AF7EEFF
:101A3000006A77EEA67A67EE277AC7ED077A65E047
:101A40007B6907EE903AF8EE677ADFED5F6A86EE23
:101A5000A77A594B1B6CC3F3080307EE903AF8EED4
:101A6000676A97ED036ADFED565AC6EE257A76EE81
:101A7000A77AF7EE006A77EEA67A67EE277AC7EDC7
:101A8000077A43E07B6907EE903AF8EE677ADFED7C
:101A90004F6A86EEA77A484B1B6CC3F3080307EE28
:101AA000903AF8EE676A97ED036ADFED455AC6EEA5
:101AB000257A76EEA77AF7EE006A77EEA67A67EED9
:101AC000277AC7ED077A21E07B6907EE903AF8EEB6
:101AD000677ADFED3D6A86EEA77A374B1B6CC3F35E
:101AE000080307EE903AF8EE676A97ED036ADFEDB8
:101AF000345AC6EE257A76EEA77AF7EE006A77EECC
:101B0000A67A67EE277AC7ED077A00BF2A4B1B6CCF
:101B10005B0A03F07F0307EE903AF8EE677AB7EEC0
:101B2000007A37EE877AD7ED076AC6EE877AFCEE41
:101B3000E77A17EE902A7B681A601F4B1B6C1B0C10
:101B400003F07F0307EE903AF8EE677AB7EE007A7B
:101B500037EE877AD7ED076AC6EE877AFCEEE77A2A
:101B600017EE902A7B685A60134B1B6C1B0E03F018
:101B70007F0307EE903AF8EE677AB7EE007A37EE19
:101B8000877AD7ED076AC6EE877AFCEEE77A17EE1A
:101B9000902A7B689A6008E07B6800221A607B6864
:101BA00000225A607B6800229A6000BF2437BD463D
:101BB0005DF8047B704700BF004402580090D003DA
:101BC000000000460024744C0024744A20BCBE4B24
:101BD00080B489B000AF7860A04B9B6A03F0030328
:101BE000BB619E4B9B6A1B0903F03F037B619B4BD0
:101BF000DB6A03F001033B61984B5B6BDB08C3F3CB
